{
  "_format": "hh-sol-artifact-1",
  "contractName": "Vault",
  "sourceName": "contracts/LiquidityPool.sol",
  "abi": [
    {
      "inputs": [
        {
          "internalType": "address",
          "name": "_manager",
          "type": "address"
        },
        {
          "internalType": "string",
          "name": "_name",
          "type": "string"
        },
        {
          "internalType": "string",
          "name": "_symbol",
          "type": "string"
        }
      ],
      "stateMutability": "nonpayable",
      "type": "constructor"
    },
    {
      "anonymous": false,
      "inputs": [
        {
          "indexed": true,
          "internalType": "address",
          "name": "owner",
          "type": "address"
        },
        {
          "indexed": true,
          "internalType": "address",
          "name": "spender",
          "type": "address"
        },
        {
          "indexed": false,
          "internalType": "uint256",
          "name": "value",
          "type": "uint256"
        }
      ],
      "name": "Approval",
      "type": "event"
    },
    {
      "anonymous": false,
      "inputs": [
        {
          "indexed": false,
          "internalType": "bytes32",
          "name": "orderhash",
          "type": "bytes32"
        }
      ],
      "name": "CancelOrder",
      "type": "event"
    },
    {
      "anonymous": false,
      "inputs": [
        {
          "indexed": false,
          "internalType": "address",
          "name": "user",
          "type": "address"
        },
        {
          "indexed": false,
          "internalType": "uint256",
          "name": "amount",
          "type": "uint256"
        }
      ],
      "name": "Deposit",
      "type": "event"
    },
    {
      "anonymous": false,
      "inputs": [
        {
          "indexed": false,
          "internalType": "address",
          "name": "taker",
          "type": "address"
        },
        {
          "indexed": false,
          "internalType": "address",
          "name": "sellToken",
          "type": "address"
        },
        {
          "indexed": false,
          "internalType": "address",
          "name": "buyToken",
          "type": "address"
        },
        {
          "indexed": false,
          "internalType": "uint256",
          "name": "sellAmount",
          "type": "uint256"
        },
        {
          "indexed": false,
          "internalType": "uint256",
          "name": "buyAmount",
          "type": "uint256"
        }
      ],
      "name": "Swap",
      "type": "event"
    },
    {
      "anonymous": false,
      "inputs": [
        {
          "indexed": true,
          "internalType": "address",
          "name": "from",
          "type": "address"
        },
        {
          "indexed": true,
          "internalType": "address",
          "name": "to",
          "type": "address"
        },
        {
          "indexed": false,
          "internalType": "uint256",
          "name": "value",
          "type": "uint256"
        }
      ],
      "name": "Transfer",
      "type": "event"
    },
    {
      "anonymous": false,
      "inputs": [
        {
          "indexed": false,
          "internalType": "address",
          "name": "user",
          "type": "address"
        },
        {
          "indexed": false,
          "internalType": "uint256",
          "name": "amount",
          "type": "uint256"
        }
      ],
      "name": "Withdraw",
      "type": "event"
    },
    {
      "inputs": [
        {
          "internalType": "address",
          "name": "token",
          "type": "address"
        }
      ],
      "name": "addToken",
      "outputs": [],
      "stateMutability": "nonpayable",
      "type": "function"
    },
    {
      "inputs": [
        {
          "internalType": "address",
          "name": "owner",
          "type": "address"
        },
        {
          "internalType": "address",
          "name": "spender",
          "type": "address"
        }
      ],
      "name": "allowance",
      "outputs": [
        {
          "internalType": "uint256",
          "name": "",
          "type": "uint256"
        }
      ],
      "stateMutability": "view",
      "type": "function"
    },
    {
      "inputs": [
        {
          "internalType": "address",
          "name": "spender",
          "type": "address"
        },
        {
          "internalType": "uint256",
          "name": "amount",
          "type": "uint256"
        }
      ],
      "name": "approve",
      "outputs": [
        {
          "internalType": "bool",
          "name": "",
          "type": "bool"
        }
      ],
      "stateMutability": "nonpayable",
      "type": "function"
    },
    {
      "inputs": [
        {
          "internalType": "address",
          "name": "account",
          "type": "address"
        }
      ],
      "name": "balanceOf",
      "outputs": [
        {
          "internalType": "uint256",
          "name": "",
          "type": "uint256"
        }
      ],
      "stateMutability": "view",
      "type": "function"
    },
    {
      "inputs": [
        {
          "components": [
            {
              "internalType": "address",
              "name": "vault",
              "type": "address"
            },
            {
              "internalType": "address",
              "name": "sellToken",
              "type": "address"
            },
            {
              "internalType": "address",
              "name": "buyToken",
              "type": "address"
            },
            {
              "internalType": "uint256",
              "name": "sellAmount",
              "type": "uint256"
            },
            {
              "internalType": "uint256",
              "name": "buyAmount",
              "type": "uint256"
            },
            {
              "internalType": "uint256",
              "name": "expirationTimeSeconds",
              "type": "uint256"
            }
          ],
          "internalType": "struct Vault.Order",
          "name": "order",
          "type": "tuple"
        }
      ],
      "name": "calculateOrderHash",
      "outputs": [
        {
          "internalType": "bytes32",
          "name": "",
          "type": "bytes32"
        }
      ],
      "stateMutability": "pure",
      "type": "function"
    },
    {
      "inputs": [
        {
          "components": [
            {
              "internalType": "address",
              "name": "vault",
              "type": "address"
            },
            {
              "internalType": "address",
              "name": "sellToken",
              "type": "address"
            },
            {
              "internalType": "address",
              "name": "buyToken",
              "type": "address"
            },
            {
              "internalType": "uint256",
              "name": "sellAmount",
              "type": "uint256"
            },
            {
              "internalType": "uint256",
              "name": "buyAmount",
              "type": "uint256"
            },
            {
              "internalType": "uint256",
              "name": "expirationTimeSeconds",
              "type": "uint256"
            }
          ],
          "internalType": "struct Vault.Order",
          "name": "order",
          "type": "tuple"
        }
      ],
      "name": "cancelOrder",
      "outputs": [],
      "stateMutability": "nonpayable",
      "type": "function"
    },
    {
      "inputs": [],
      "name": "decimals",
      "outputs": [
        {
          "internalType": "uint8",
          "name": "",
          "type": "uint8"
        }
      ],
      "stateMutability": "view",
      "type": "function"
    },
    {
      "inputs": [
        {
          "internalType": "address",
          "name": "spender",
          "type": "address"
        },
        {
          "internalType": "uint256",
          "name": "subtractedValue",
          "type": "uint256"
        }
      ],
      "name": "decreaseAllowance",
      "outputs": [
        {
          "internalType": "bool",
          "name": "",
          "type": "bool"
        }
      ],
      "stateMutability": "nonpayable",
      "type": "function"
    },
    {
      "inputs": [
        {
          "internalType": "uint256",
          "name": "amount",
          "type": "uint256"
        }
      ],
      "name": "deposit",
      "outputs": [],
      "stateMutability": "nonpayable",
      "type": "function"
    },
    {
      "inputs": [
        {
          "internalType": "address",
          "name": "spender",
          "type": "address"
        },
        {
          "internalType": "uint256",
          "name": "addedValue",
          "type": "uint256"
        }
      ],
      "name": "increaseAllowance",
      "outputs": [
        {
          "internalType": "bool",
          "name": "",
          "type": "bool"
        }
      ],
      "stateMutability": "nonpayable",
      "type": "function"
    },
    {
      "inputs": [
        {
          "internalType": "bytes32",
          "name": "orderhash",
          "type": "bytes32"
        },
        {
          "internalType": "bytes",
          "name": "signature",
          "type": "bytes"
        }
      ],
      "name": "isValidSignature",
      "outputs": [
        {
          "internalType": "bool",
          "name": "",
          "type": "bool"
        }
      ],
      "stateMutability": "view",
      "type": "function"
    },
    {
      "inputs": [],
      "name": "name",
      "outputs": [
        {
          "internalType": "string",
          "name": "",
          "type": "string"
        }
      ],
      "stateMutability": "view",
      "type": "function"
    },
    {
      "inputs": [
        {
          "internalType": "uint256",
          "name": "index",
          "type": "uint256"
        }
      ],
      "name": "removeToken",
      "outputs": [],
      "stateMutability": "nonpayable",
      "type": "function"
    },
    {
      "inputs": [
        {
          "components": [
            {
              "internalType": "address",
              "name": "vault",
              "type": "address"
            },
            {
              "internalType": "address",
              "name": "sellToken",
              "type": "address"
            },
            {
              "internalType": "address",
              "name": "buyToken",
              "type": "address"
            },
            {
              "internalType": "uint256",
              "name": "sellAmount",
              "type": "uint256"
            },
            {
              "internalType": "uint256",
              "name": "buyAmount",
              "type": "uint256"
            },
            {
              "internalType": "uint256",
              "name": "expirationTimeSeconds",
              "type": "uint256"
            }
          ],
          "internalType": "struct Vault.Order",
          "name": "order",
          "type": "tuple"
        },
        {
          "internalType": "bytes",
          "name": "signature",
          "type": "bytes"
        },
        {
          "internalType": "uint256",
          "name": "fillAmount",
          "type": "uint256"
        },
        {
          "internalType": "bool",
          "name": "fillAvailable",
          "type": "bool"
        }
      ],
      "name": "swap",
      "outputs": [],
      "stateMutability": "nonpayable",
      "type": "function"
    },
    {
      "inputs": [],
      "name": "symbol",
      "outputs": [
        {
          "internalType": "string",
          "name": "",
          "type": "string"
        }
      ],
      "stateMutability": "view",
      "type": "function"
    },
    {
      "inputs": [],
      "name": "totalSupply",
      "outputs": [
        {
          "internalType": "uint256",
          "name": "",
          "type": "uint256"
        }
      ],
      "stateMutability": "view",
      "type": "function"
    },
    {
      "inputs": [
        {
          "internalType": "address",
          "name": "to",
          "type": "address"
        },
        {
          "internalType": "uint256",
          "name": "amount",
          "type": "uint256"
        }
      ],
      "name": "transfer",
      "outputs": [
        {
          "internalType": "bool",
          "name": "",
          "type": "bool"
        }
      ],
      "stateMutability": "nonpayable",
      "type": "function"
    },
    {
      "inputs": [
        {
          "internalType": "address",
          "name": "from",
          "type": "address"
        },
        {
          "internalType": "address",
          "name": "to",
          "type": "address"
        },
        {
          "internalType": "uint256",
          "name": "amount",
          "type": "uint256"
        }
      ],
      "name": "transferFrom",
      "outputs": [
        {
          "internalType": "bool",
          "name": "",
          "type": "bool"
        }
      ],
      "stateMutability": "nonpayable",
      "type": "function"
    },
    {
      "inputs": [
        {
          "internalType": "uint256",
          "name": "amount",
          "type": "uint256"
        }
      ],
      "name": "withdraw",
      "outputs": [],
      "stateMutability": "nonpayable",
      "type": "function"
    }
  ],
  "bytecode": "0x60806040523480156200001157600080fd5b50604051620032b0380380620032b0833981810160405281019062000037919062000369565b8181816003908051906020019062000051929190620000b7565b5080600490805190602001906200006a929190620000b7565b50505082600660006101000a81548173ffffffffffffffffffffffffffffffffffffffff021916908373ffffffffffffffffffffffffffffffffffffffff16021790555050505062000468565b828054620000c59062000432565b90600052602060002090601f016020900481019282620000e9576000855562000135565b82601f106200010457805160ff191683800117855562000135565b8280016001018555821562000135579182015b828111156200013457825182559160200191906001019062000117565b5b50905062000144919062000148565b5090565b5b808211156200016357600081600090555060010162000149565b5090565b6000604051905090565b600080fd5b600080fd5b600073ffffffffffffffffffffffffffffffffffffffff82169050919050565b6000620001a8826200017b565b9050919050565b620001ba816200019b565b8114620001c657600080fd5b50565b600081519050620001da81620001af565b92915050565b600080fd5b600080fd5b6000601f19601f8301169050919050565b7f4e487b7100000000000000000000000000000000000000000000000000000000600052604160045260246000fd5b6200023582620001ea565b810181811067ffffffffffffffff82111715620002575762000256620001fb565b5b80604052505050565b60006200026c62000167565b90506200027a82826200022a565b919050565b600067ffffffffffffffff8211156200029d576200029c620001fb565b5b620002a882620001ea565b9050602081019050919050565b60005b83811015620002d5578082015181840152602081019050620002b8565b83811115620002e5576000848401525b50505050565b600062000302620002fc846200027f565b62000260565b905082815260208101848484011115620003215762000320620001e5565b5b6200032e848285620002b5565b509392505050565b600082601f8301126200034e576200034d620001e0565b5b815162000360848260208601620002eb565b91505092915050565b60008060006060848603121562000385576200038462000171565b5b60006200039586828701620001c9565b935050602084015167ffffffffffffffff811115620003b957620003b862000176565b5b620003c78682870162000336565b925050604084015167ffffffffffffffff811115620003eb57620003ea62000176565b5b620003f98682870162000336565b9150509250925092565b7f4e487b7100000000000000000000000000000000000000000000000000000000600052602260045260246000fd5b600060028204905060018216806200044b57607f821691505b6020821081141562000462576200046162000403565b5b50919050565b612e3880620004786000396000f3fe608060405234801561001057600080fd5b50600436106101215760003560e01c8063374d9b15116100ad578063a9059cbb11610071578063a9059cbb14610342578063b6b55f2514610372578063c50e7b6e1461038e578063d48bfca7146103aa578063dd62ed3e146103c657610121565b8063374d9b1514610264578063395093511461029457806370a08231146102c457806395d89b41146102f4578063a457c2d71461031257610121565b806318160ddd116100f457806318160ddd146101c057806323b872dd146101de5780632e1a7d4d1461020e578063313ce5671461022a57806336c5d7241461024857610121565b806306fdde0314610126578063095ea7b3146101445780630b46d0c9146101745780631626ba7e14610190575b600080fd5b61012e6103f6565b60405161013b9190611ada565b60405180910390f35b61015e60048036038101906101599190611ba4565b610488565b60405161016b9190611bff565b60405180910390f35b61018e60048036038101906101899190611e20565b6104ab565b005b6101aa60048036038101906101a59190611edb565b610713565b6040516101b79190611bff565b60405180910390f35b6101c86107e1565b6040516101d59190611f46565b60405180910390f35b6101f860048036038101906101f39190611f61565b6107eb565b6040516102059190611bff565b60405180910390f35b61022860048036038101906102239190611fb4565b61081a565b005b6102326109e8565b60405161023f9190611ffd565b60405180910390f35b610262600480360381019061025d9190611fb4565b6109f1565b005b61027e60048036038101906102799190612018565b610bbf565b60405161028b9190612054565b60405180910390f35b6102ae60048036038101906102a99190611ba4565b610c86565b6040516102bb9190611bff565b60405180910390f35b6102de60048036038101906102d9919061206f565b610cbd565b6040516102eb9190611f46565b60405180910390f35b6102fc610d05565b6040516103099190611ada565b60405180910390f35b61032c60048036038101906103279190611ba4565b610d97565b6040516103399190611bff565b60405180910390f35b61035c60048036038101906103579190611ba4565b610e0e565b6040516103699190611bff565b60405180910390f35b61038c60048036038101906103879190611fb4565b610e31565b005b6103a860048036038101906103a39190612018565b611001565b005b6103c460048036038101906103bf919061206f565b6110be565b005b6103e060048036038101906103db919061209c565b6111b4565b6040516103ed9190611f46565b60405180910390f35b6060600380546104059061210b565b80601f01602080910402602001604051908101604052809291908181526020018280546104319061210b565b801561047e5780601f106104535761010080835404028352916020019161047e565b820191906000526020600020905b81548152906001019060200180831161046157829003601f168201915b5050505050905090565b60008061049361123b565b90506104a0818585611243565b600191505092915050565b60006104b685610bbf565b90506104c28185610713565b610501576040517f08c379a00000000000000000000000000000000000000000000000000000000081526004016104f890612189565b60405180910390fd5b60006007600083815260200190815260200160002054866060015161052691906121d8565b905082801561053457508084115b1561053d578093505b80841115610580576040517f08c379a00000000000000000000000000000000000000000000000000000000081526004016105779061227e565b60405180910390fd5b856020015173ffffffffffffffffffffffffffffffffffffffff1663a9059cbb33866040518363ffffffff1660e01b81526004016105bf9291906122ad565b6020604051808303816000875af11580156105de573d6000803e3d6000fd5b505050506040513d601f19601f8201168201806040525081019061060291906122eb565b50856040015173ffffffffffffffffffffffffffffffffffffffff166323b872dd33308960600151888b6080015161063a9190612318565b61064491906123a1565b6040518463ffffffff1660e01b8152600401610662939291906123d2565b6020604051808303816000875af1158015610681573d6000803e3d6000fd5b505050506040513d601f19601f820116820180604052508101906106a591906122eb565b507fcd3829a3813dc3cdd188fd3d01dcf3268c16be2fdd2dd21d0665418816e460623387602001518860400151878a60600151898c608001516106e89190612318565b6106f291906123a1565b604051610703959493929190612409565b60405180910390a1505050505050565b6000806000806020850151915060408501519050606085015160001a9250600060018785858560405160008152602001604052604051610756949392919061245c565b6020604051602081039080840390855afa158015610778573d6000803e3d6000fd5b505050602060405103519050600660009054906101000a900473ffffffffffffffffffffffffffffffffffffffff1673ffffffffffffffffffffffffffffffffffffffff168173ffffffffffffffffffffffffffffffffffffffff161494505050505092915050565b6000600254905090565b6000806107f661123b565b905061080385828561140e565b61080e85858561149a565b60019150509392505050565b60005b6005805490508110156109da576000600582815481106108405761083f6124a1565b5b9060005260206000200160009054906101000a900473ffffffffffffffffffffffffffffffffffffffff1673ffffffffffffffffffffffffffffffffffffffff166370a08231306040518263ffffffff1660e01b81526004016108a391906124d0565b602060405180830381865afa1580156108c0573d6000803e3d6000fd5b505050506040513d601f19601f820116820180604052508101906108e49190612500565b905060006108f06107e1565b84836108fc9190612318565b61090691906123a1565b90506005838154811061091c5761091b6124a1565b5b9060005260206000200160009054906101000a900473ffffffffffffffffffffffffffffffffffffffff1673ffffffffffffffffffffffffffffffffffffffff1663a9059cbb33836040518363ffffffff1660e01b81526004016109819291906122ad565b6020604051808303816000875af11580156109a0573d6000803e3d6000fd5b505050506040513d601f19601f820116820180604052508101906109c491906122eb565b50505080806109d29061252d565b91505061081d565b506109e53382611712565b50565b60006012905090565b600660009054906101000a900473ffffffffffffffffffffffffffffffffffffffff1673ffffffffffffffffffffffffffffffffffffffff163373ffffffffffffffffffffffffffffffffffffffff1614610a81576040517f08c379a0000000000000000000000000000000000000000000000000000000008152600401610a78906125c2565b60405180910390fd5b600060058281548110610a9757610a966124a1565b5b9060005260206000200160009054906101000a900473ffffffffffffffffffffffffffffffffffffffff1673ffffffffffffffffffffffffffffffffffffffff166370a08231306040518263ffffffff1660e01b8152600401610afa91906124d0565b602060405180830381865afa158015610b17573d6000803e3d6000fd5b505050506040513d601f19601f82011682018060405250810190610b3b9190612500565b14610b7b576040517f08c379a0000000000000000000000000000000000000000000000000000000008152600401610b729061262e565b60405180910390fd5b60058181548110610b8f57610b8e6124a1565b5b9060005260206000200160006101000a81549073ffffffffffffffffffffffffffffffffffffffff021916905550565b6000807f7c1c5ef5f9d688960eba9e2ee0515a90f03376e79d5e0fc5dfd7de2e8cc0785b60001b836000015184602001518560400151866060015187608001518860a00151604051602001610c1a979695949392919061264e565b6040516020818303038152906040528051906020012090507f0b77881b74293169ab609951890da059fe0dc57a910515b0e9fc90c65800a39f60001b81604051602001610c68929190612735565b60405160208183030381529060405280519060200120915050919050565b600080610c9161123b565b9050610cb2818585610ca385896111b4565b610cad919061276c565b611243565b600191505092915050565b60008060008373ffffffffffffffffffffffffffffffffffffffff1673ffffffffffffffffffffffffffffffffffffffff168152602001908152602001600020549050919050565b606060048054610d149061210b565b80601f0160208091040260200160405190810160405280929190818152602001828054610d409061210b565b8015610d8d5780601f10610d6257610100808354040283529160200191610d8d565b820191906000526020600020905b815481529060010190602001808311610d7057829003601f168201915b5050505050905090565b600080610da261123b565b90506000610db082866111b4565b905083811015610df5576040517f08c379a0000000000000000000000000000000000000000000000000000000008152600401610dec90612834565b60405180910390fd5b610e028286868403611243565b60019250505092915050565b600080610e1961123b565b9050610e2681858561149a565b600191505092915050565b60005b600580549050811015610ff357600060058281548110610e5757610e566124a1565b5b9060005260206000200160009054906101000a900473ffffffffffffffffffffffffffffffffffffffff1673ffffffffffffffffffffffffffffffffffffffff166370a08231306040518263ffffffff1660e01b8152600401610eba91906124d0565b602060405180830381865afa158015610ed7573d6000803e3d6000fd5b505050506040513d601f19601f82011682018060405250810190610efb9190612500565b90506000610f076107e1565b8483610f139190612318565b610f1d91906123a1565b905060058381548110610f3357610f326124a1565b5b9060005260206000200160009054906101000a900473ffffffffffffffffffffffffffffffffffffffff1673ffffffffffffffffffffffffffffffffffffffff166323b872dd3330846040518463ffffffff1660e01b8152600401610f9a939291906123d2565b6020604051808303816000875af1158015610fb9573d6000803e3d6000fd5b505050506040513d601f19601f82011682018060405250810190610fdd91906122eb565b5050508080610feb9061252d565b915050610e34565b50610ffe33826118e0565b50565b600660009054906101000a900473ffffffffffffffffffffffffffffffffffffffff1673ffffffffffffffffffffffffffffffffffffffff163373ffffffffffffffffffffffffffffffffffffffff1614611091576040517f08c379a0000000000000000000000000000000000000000000000000000000008152600401611088906128a0565b60405180910390fd5b600061109c82610bbf565b9050816060015160076000838152602001908152602001600020819055505050565b600660009054906101000a900473ffffffffffffffffffffffffffffffffffffffff1673ffffffffffffffffffffffffffffffffffffffff163373ffffffffffffffffffffffffffffffffffffffff161461114e576040517f08c379a00000000000000000000000000000000000000000000000000000000081526004016111459061290c565b60405180910390fd5b6005819080600181540180825580915050600190039060005260206000200160009091909190916101000a81548173ffffffffffffffffffffffffffffffffffffffff021916908373ffffffffffffffffffffffffffffffffffffffff16021790555050565b6000600160008473ffffffffffffffffffffffffffffffffffffffff1673ffffffffffffffffffffffffffffffffffffffff16815260200190815260200160002060008373ffffffffffffffffffffffffffffffffffffffff1673ffffffffffffffffffffffffffffffffffffffff16815260200190815260200160002054905092915050565b600033905090565b600073ffffffffffffffffffffffffffffffffffffffff168373ffffffffffffffffffffffffffffffffffffffff1614156112b3576040517f08c379a00000000000000000000000000000000000000000000000000000000081526004016112aa9061299e565b60405180910390fd5b600073ffffffffffffffffffffffffffffffffffffffff168273ffffffffffffffffffffffffffffffffffffffff161415611323576040517f08c379a000000000000000000000000000000000000000000000000000000000815260040161131a90612a30565b60405180910390fd5b80600160008573ffffffffffffffffffffffffffffffffffffffff1673ffffffffffffffffffffffffffffffffffffffff16815260200190815260200160002060008473ffffffffffffffffffffffffffffffffffffffff1673ffffffffffffffffffffffffffffffffffffffff168152602001908152602001600020819055508173ffffffffffffffffffffffffffffffffffffffff168373ffffffffffffffffffffffffffffffffffffffff167f8c5be1e5ebec7d5bd14f71427d1e84f3dd0314c0f7b2291e5b200ac8c7c3b925836040516114019190611f46565b60405180910390a3505050565b600061141a84846111b4565b90507fffffffffffffffffffffffffffffffffffffffffffffffffffffffffffffffff81146114945781811015611486576040517f08c379a000000000000000000000000000000000000000000000000000000000815260040161147d90612a9c565b60405180910390fd5b6114938484848403611243565b5b50505050565b600073ffffffffffffffffffffffffffffffffffffffff168373ffffffffffffffffffffffffffffffffffffffff16141561150a576040517f08c379a000000000000000000000000000000000000000000000000000000000815260040161150190612b2e565b60405180910390fd5b600073ffffffffffffffffffffffffffffffffffffffff168273ffffffffffffffffffffffffffffffffffffffff16141561157a576040517f08c379a000000000000000000000000000000000000000000000000000000000815260040161157190612bc0565b60405180910390fd5b611585838383611a37565b60008060008573ffffffffffffffffffffffffffffffffffffffff1673ffffffffffffffffffffffffffffffffffffffff1681526020019081526020016000205490508181101561160b576040517f08c379a000000000000000000000000000000000000000000000000000000000815260040161160290612c52565b60405180910390fd5b8181036000808673ffffffffffffffffffffffffffffffffffffffff1673ffffffffffffffffffffffffffffffffffffffff16815260200190815260200160002081905550816000808573ffffffffffffffffffffffffffffffffffffffff1673ffffffffffffffffffffffffffffffffffffffff168152602001908152602001600020600082825401925050819055508273ffffffffffffffffffffffffffffffffffffffff168473ffffffffffffffffffffffffffffffffffffffff167fddf252ad1be2c89b69c2b068fc378daa952ba7f163c4a11628f55a4df523b3ef846040516116f99190611f46565b60405180910390a361170c848484611a3c565b50505050565b600073ffffffffffffffffffffffffffffffffffffffff168273ffffffffffffffffffffffffffffffffffffffff161415611782576040517f08c379a000000000000000000000000000000000000000000000000000000000815260040161177990612ce4565b60405180910390fd5b61178e82600083611a37565b60008060008473ffffffffffffffffffffffffffffffffffffffff1673ffffffffffffffffffffffffffffffffffffffff16815260200190815260200160002054905081811015611814576040517f08c379a000000000000000000000000000000000000000000000000000000000815260040161180b90612d76565b60405180910390fd5b8181036000808573ffffffffffffffffffffffffffffffffffffffff1673ffffffffffffffffffffffffffffffffffffffff1681526020019081526020016000208190555081600260008282540392505081905550600073ffffffffffffffffffffffffffffffffffffffff168373ffffffffffffffffffffffffffffffffffffffff167fddf252ad1be2c89b69c2b068fc378daa952ba7f163c4a11628f55a4df523b3ef846040516118c79190611f46565b60405180910390a36118db83600084611a3c565b505050565b600073ffffffffffffffffffffffffffffffffffffffff168273ffffffffffffffffffffffffffffffffffffffff161415611950576040517f08c379a000000000000000000000000000000000000000000000000000000000815260040161194790612de2565b60405180910390fd5b61195c60008383611a37565b806002600082825461196e919061276c565b92505081905550806000808473ffffffffffffffffffffffffffffffffffffffff1673ffffffffffffffffffffffffffffffffffffffff168152602001908152602001600020600082825401925050819055508173ffffffffffffffffffffffffffffffffffffffff16600073ffffffffffffffffffffffffffffffffffffffff167fddf252ad1be2c89b69c2b068fc378daa952ba7f163c4a11628f55a4df523b3ef83604051611a1f9190611f46565b60405180910390a3611a3360008383611a3c565b5050565b505050565b505050565b600081519050919050565b600082825260208201905092915050565b60005b83811015611a7b578082015181840152602081019050611a60565b83811115611a8a576000848401525b50505050565b6000601f19601f8301169050919050565b6000611aac82611a41565b611ab68185611a4c565b9350611ac6818560208601611a5d565b611acf81611a90565b840191505092915050565b60006020820190508181036000830152611af48184611aa1565b905092915050565b6000604051905090565b600080fd5b600080fd5b600073ffffffffffffffffffffffffffffffffffffffff82169050919050565b6000611b3b82611b10565b9050919050565b611b4b81611b30565b8114611b5657600080fd5b50565b600081359050611b6881611b42565b92915050565b6000819050919050565b611b8181611b6e565b8114611b8c57600080fd5b50565b600081359050611b9e81611b78565b92915050565b60008060408385031215611bbb57611bba611b06565b5b6000611bc985828601611b59565b9250506020611bda85828601611b8f565b9150509250929050565b60008115159050919050565b611bf981611be4565b82525050565b6000602082019050611c146000830184611bf0565b92915050565b600080fd5b7f4e487b7100000000000000000000000000000000000000000000000000000000600052604160045260246000fd5b611c5782611a90565b810181811067ffffffffffffffff82111715611c7657611c75611c1f565b5b80604052505050565b6000611c89611afc565b9050611c958282611c4e565b919050565b600060c08284031215611cb057611caf611c1a565b5b611cba60c0611c7f565b90506000611cca84828501611b59565b6000830152506020611cde84828501611b59565b6020830152506040611cf284828501611b59565b6040830152506060611d0684828501611b8f565b6060830152506080611d1a84828501611b8f565b60808301525060a0611d2e84828501611b8f565b60a08301525092915050565b600080fd5b600080fd5b600067ffffffffffffffff821115611d5f57611d5e611c1f565b5b611d6882611a90565b9050602081019050919050565b82818337600083830152505050565b6000611d97611d9284611d44565b611c7f565b905082815260208101848484011115611db357611db2611d3f565b5b611dbe848285611d75565b509392505050565b600082601f830112611ddb57611dda611d3a565b5b8135611deb848260208601611d84565b91505092915050565b611dfd81611be4565b8114611e0857600080fd5b50565b600081359050611e1a81611df4565b92915050565b6000806000806101208587031215611e3b57611e3a611b06565b5b6000611e4987828801611c9a565b94505060c085013567ffffffffffffffff811115611e6a57611e69611b0b565b5b611e7687828801611dc6565b93505060e0611e8787828801611b8f565b925050610100611e9987828801611e0b565b91505092959194509250565b6000819050919050565b611eb881611ea5565b8114611ec357600080fd5b50565b600081359050611ed581611eaf565b92915050565b60008060408385031215611ef257611ef1611b06565b5b6000611f0085828601611ec6565b925050602083013567ffffffffffffffff811115611f2157611f20611b0b565b5b611f2d85828601611dc6565b9150509250929050565b611f4081611b6e565b82525050565b6000602082019050611f5b6000830184611f37565b92915050565b600080600060608486031215611f7a57611f79611b06565b5b6000611f8886828701611b59565b9350506020611f9986828701611b59565b9250506040611faa86828701611b8f565b9150509250925092565b600060208284031215611fca57611fc9611b06565b5b6000611fd884828501611b8f565b91505092915050565b600060ff82169050919050565b611ff781611fe1565b82525050565b60006020820190506120126000830184611fee565b92915050565b600060c0828403121561202e5761202d611b06565b5b600061203c84828501611c9a565b91505092915050565b61204e81611ea5565b82525050565b60006020820190506120696000830184612045565b92915050565b60006020828403121561208557612084611b06565b5b600061209384828501611b59565b91505092915050565b600080604083850312156120b3576120b2611b06565b5b60006120c185828601611b59565b92505060206120d285828601611b59565b9150509250929050565b7f4e487b7100000000000000000000000000000000000000000000000000000000600052602260045260246000fd5b6000600282049050600182168061212357607f821691505b60208210811415612137576121366120dc565b5b50919050565b7f6f72646572207369676e617475726520697320696e76616c6964000000000000600082015250565b6000612173601a83611a4c565b915061217e8261213d565b602082019050919050565b600060208201905081810360008301526121a281612166565b9050919050565b7f4e487b7100000000000000000000000000000000000000000000000000000000600052601160045260246000fd5b60006121e382611b6e565b91506121ee83611b6e565b925082821015612201576122006121a9565b5b828203905092915050565b7f66696c6c20616d6f756e74206578636565647320617661696c61626c6520736960008201527f7a65000000000000000000000000000000000000000000000000000000000000602082015250565b6000612268602283611a4c565b91506122738261220c565b604082019050919050565b600060208201905081810360008301526122978161225b565b9050919050565b6122a781611b30565b82525050565b60006040820190506122c2600083018561229e565b6122cf6020830184611f37565b9392505050565b6000815190506122e581611df4565b92915050565b60006020828403121561230157612300611b06565b5b600061230f848285016122d6565b91505092915050565b600061232382611b6e565b915061232e83611b6e565b9250817fffffffffffffffffffffffffffffffffffffffffffffffffffffffffffffffff0483118215151615612367576123666121a9565b5b828202905092915050565b7f4e487b7100000000000000000000000000000000000000000000000000000000600052601260045260246000fd5b60006123ac82611b6e565b91506123b783611b6e565b9250826123c7576123c6612372565b5b828204905092915050565b60006060820190506123e7600083018661229e565b6123f4602083018561229e565b6124016040830184611f37565b949350505050565b600060a08201905061241e600083018861229e565b61242b602083018761229e565b612438604083018661229e565b6124456060830185611f37565b6124526080830184611f37565b9695505050505050565b60006080820190506124716000830187612045565b61247e6020830186611fee565b61248b6040830185612045565b6124986060830184612045565b95945050505050565b7f4e487b7100000000000000000000000000000000000000000000000000000000600052603260045260246000fd5b60006020820190506124e5600083018461229e565b92915050565b6000815190506124fa81611b78565b92915050565b60006020828403121561251657612515611b06565b5b6000612524848285016124eb565b91505092915050565b600061253882611b6e565b91507fffffffffffffffffffffffffffffffffffffffffffffffffffffffffffffffff82141561256b5761256a6121a9565b5b600182019050919050565b7f6f6e6c79206d616e616765722063616e2072656d6f766520746f6b656e730000600082015250565b60006125ac601e83611a4c565b91506125b782612576565b602082019050919050565b600060208201905081810360008301526125db8161259f565b9050919050565b7f746f6b656e2068617320616e206f757374616e64696e672062616c616e636500600082015250565b6000612618601f83611a4c565b9150612623826125e2565b602082019050919050565b600060208201905081810360008301526126478161260b565b9050919050565b600060e082019050612663600083018a612045565b612670602083018961229e565b61267d604083018861229e565b61268a606083018761229e565b6126976080830186611f37565b6126a460a0830185611f37565b6126b160c0830184611f37565b98975050505050505050565b600081905092915050565b7f1901000000000000000000000000000000000000000000000000000000000000600082015250565b60006126fe6002836126bd565b9150612709826126c8565b600282019050919050565b6000819050919050565b61272f61272a82611ea5565b612714565b82525050565b6000612740826126f1565b915061274c828561271e565b60208201915061275c828461271e565b6020820191508190509392505050565b600061277782611b6e565b915061278283611b6e565b9250827fffffffffffffffffffffffffffffffffffffffffffffffffffffffffffffffff038211156127b7576127b66121a9565b5b828201905092915050565b7f45524332303a2064656372656173656420616c6c6f77616e63652062656c6f7760008201527f207a65726f000000000000000000000000000000000000000000000000000000602082015250565b600061281e602583611a4c565b9150612829826127c2565b604082019050919050565b6000602082019050818103600083015261284d81612811565b9050919050565b7f6f6e6c79206d616e616765722063616e2063616e63656c206f72646572730000600082015250565b600061288a601e83611a4c565b915061289582612854565b602082019050919050565b600060208201905081810360008301526128b98161287d565b9050919050565b7f6f6e6c79206d616e616765722063616e2061646420746f6b656e730000000000600082015250565b60006128f6601b83611a4c565b9150612901826128c0565b602082019050919050565b60006020820190508181036000830152612925816128e9565b9050919050565b7f45524332303a20617070726f76652066726f6d20746865207a65726f2061646460008201527f7265737300000000000000000000000000000000000000000000000000000000602082015250565b6000612988602483611a4c565b91506129938261292c565b604082019050919050565b600060208201905081810360008301526129b78161297b565b9050919050565b7f45524332303a20617070726f766520746f20746865207a65726f20616464726560008201527f7373000000000000000000000000000000000000000000000000000000000000602082015250565b6000612a1a602283611a4c565b9150612a25826129be565b604082019050919050565b60006020820190508181036000830152612a4981612a0d565b9050919050565b7f45524332303a20696e73756666696369656e7420616c6c6f77616e6365000000600082015250565b6000612a86601d83611a4c565b9150612a9182612a50565b602082019050919050565b60006020820190508181036000830152612ab581612a79565b9050919050565b7f45524332303a207472616e736665722066726f6d20746865207a65726f20616460008201527f6472657373000000000000000000000000000000000000000000000000000000602082015250565b6000612b18602583611a4c565b9150612b2382612abc565b604082019050919050565b60006020820190508181036000830152612b4781612b0b565b9050919050565b7f45524332303a207472616e7366657220746f20746865207a65726f206164647260008201527f6573730000000000000000000000000000000000000000000000000000000000602082015250565b6000612baa602383611a4c565b9150612bb582612b4e565b604082019050919050565b60006020820190508181036000830152612bd981612b9d565b9050919050565b7f45524332303a207472616e7366657220616d6f756e742065786365656473206260008201527f616c616e63650000000000000000000000000000000000000000000000000000602082015250565b6000612c3c602683611a4c565b9150612c4782612be0565b604082019050919050565b60006020820190508181036000830152612c6b81612c2f565b9050919050565b7f45524332303a206275726e2066726f6d20746865207a65726f2061646472657360008201527f7300000000000000000000000000000000000000000000000000000000000000602082015250565b6000612cce602183611a4c565b9150612cd982612c72565b604082019050919050565b60006020820190508181036000830152612cfd81612cc1565b9050919050565b7f45524332303a206275726e20616d6f756e7420657863656564732062616c616e60008201527f6365000000000000000000000000000000000000000000000000000000000000602082015250565b6000612d60602283611a4c565b9150612d6b82612d04565b604082019050919050565b60006020820190508181036000830152612d8f81612d53565b9050919050565b7f45524332303a206d696e7420746f20746865207a65726f206164647265737300600082015250565b6000612dcc601f83611a4c565b9150612dd782612d96565b602082019050919050565b60006020820190508181036000830152612dfb81612dbf565b905091905056fea26469706673582212209598471a59e215faadc8d85aa36621b1a80de4d192e78a1983a4eef232eb898564736f6c634300080a0033",
  "linkReferences": {},
  "deployedLinkReferences": {}
}