{
  "_format": "hh-sol-artifact-1",
  "contractName": "Exchange",
  "sourceName": "contracts/Exchange.sol",
  "abi": [
    {
      "inputs": [
        {
          "internalType": "string",
          "name": "name",
          "type": "string"
        },
        {
          "internalType": "string",
          "name": "version",
          "type": "string"
        },
        {
          "internalType": "address",
          "name": "fee_address",
          "type": "address"
        }
      ],
      "stateMutability": "nonpayable",
      "type": "constructor"
    },
    {
      "anonymous": false,
      "inputs": [
        {
          "indexed": false,
          "internalType": "address",
          "name": "maker",
          "type": "address"
        },
        {
          "indexed": false,
          "internalType": "address",
          "name": "taker",
          "type": "address"
        },
        {
          "indexed": false,
          "internalType": "address",
          "name": "makerSellToken",
          "type": "address"
        },
        {
          "indexed": false,
          "internalType": "address",
          "name": "takerSellToken",
          "type": "address"
        },
        {
          "indexed": false,
          "internalType": "uint256",
          "name": "makerSellAmount",
          "type": "uint256"
        },
        {
          "indexed": false,
          "internalType": "uint256",
          "name": "takerSellAmount",
          "type": "uint256"
        },
        {
          "indexed": false,
          "internalType": "uint256",
          "name": "gasFee",
          "type": "uint256"
        },
        {
          "indexed": false,
          "internalType": "uint256",
          "name": "makerVolumeFee",
          "type": "uint256"
        },
        {
          "indexed": false,
          "internalType": "uint256",
          "name": "takerVolumeFee",
          "type": "uint256"
        }
      ],
      "name": "Swap",
      "type": "event"
    },
    {
      "inputs": [
        {
          "components": [
            {
              "internalType": "address",
              "name": "user",
              "type": "address"
            },
            {
              "internalType": "address",
              "name": "sellToken",
              "type": "address"
            },
            {
              "internalType": "address",
              "name": "buyToken",
              "type": "address"
            },
            {
              "internalType": "address",
              "name": "relayerAddress",
              "type": "address"
            },
            {
              "internalType": "uint256",
              "name": "sellAmount",
              "type": "uint256"
            },
            {
              "internalType": "uint256",
              "name": "buyAmount",
              "type": "uint256"
            },
            {
              "internalType": "uint256",
              "name": "gasFee",
              "type": "uint256"
            },
            {
              "internalType": "uint256",
              "name": "expirationTimeSeconds",
              "type": "uint256"
            },
            {
              "internalType": "uint256",
              "name": "salt",
              "type": "uint256"
            }
          ],
          "internalType": "struct LibOrder.Order",
          "name": "order",
          "type": "tuple"
        }
      ],
      "name": "cancelOrder",
      "outputs": [],
      "stateMutability": "nonpayable",
      "type": "function"
    },
    {
      "inputs": [
        {
          "internalType": "bytes32",
          "name": "",
          "type": "bytes32"
        }
      ],
      "name": "cancelled",
      "outputs": [
        {
          "internalType": "bool",
          "name": "",
          "type": "bool"
        }
      ],
      "stateMutability": "view",
      "type": "function"
    },
    {
      "inputs": [
        {
          "internalType": "bytes32",
          "name": "",
          "type": "bytes32"
        }
      ],
      "name": "filled",
      "outputs": [
        {
          "internalType": "uint256",
          "name": "",
          "type": "uint256"
        }
      ],
      "stateMutability": "view",
      "type": "function"
    },
    {
      "inputs": [
        {
          "components": [
            {
              "internalType": "address",
              "name": "user",
              "type": "address"
            },
            {
              "internalType": "address",
              "name": "sellToken",
              "type": "address"
            },
            {
              "internalType": "address",
              "name": "buyToken",
              "type": "address"
            },
            {
              "internalType": "address",
              "name": "relayerAddress",
              "type": "address"
            },
            {
              "internalType": "uint256",
              "name": "sellAmount",
              "type": "uint256"
            },
            {
              "internalType": "uint256",
              "name": "buyAmount",
              "type": "uint256"
            },
            {
              "internalType": "uint256",
              "name": "gasFee",
              "type": "uint256"
            },
            {
              "internalType": "uint256",
              "name": "expirationTimeSeconds",
              "type": "uint256"
            },
            {
              "internalType": "uint256",
              "name": "salt",
              "type": "uint256"
            }
          ],
          "internalType": "struct LibOrder.Order",
          "name": "order",
          "type": "tuple"
        }
      ],
      "name": "getOrderInfo",
      "outputs": [
        {
          "components": [
            {
              "internalType": "enum LibOrder.OrderStatus",
              "name": "orderStatus",
              "type": "uint8"
            },
            {
              "internalType": "bytes32",
              "name": "orderHash",
              "type": "bytes32"
            },
            {
              "internalType": "uint256",
              "name": "orderBuyFilledAmount",
              "type": "uint256"
            }
          ],
          "internalType": "struct LibOrder.OrderInfo",
          "name": "orderInfo",
          "type": "tuple"
        }
      ],
      "stateMutability": "view",
      "type": "function"
    },
    {
      "inputs": [
        {
          "components": [
            {
              "internalType": "address",
              "name": "user",
              "type": "address"
            },
            {
              "internalType": "address",
              "name": "sellToken",
              "type": "address"
            },
            {
              "internalType": "address",
              "name": "buyToken",
              "type": "address"
            },
            {
              "internalType": "address",
              "name": "relayerAddress",
              "type": "address"
            },
            {
              "internalType": "uint256",
              "name": "sellAmount",
              "type": "uint256"
            },
            {
              "internalType": "uint256",
              "name": "buyAmount",
              "type": "uint256"
            },
            {
              "internalType": "uint256",
              "name": "gasFee",
              "type": "uint256"
            },
            {
              "internalType": "uint256",
              "name": "expirationTimeSeconds",
              "type": "uint256"
            },
            {
              "internalType": "uint256",
              "name": "salt",
              "type": "uint256"
            }
          ],
          "internalType": "struct LibOrder.Order",
          "name": "order",
          "type": "tuple"
        },
        {
          "internalType": "bytes",
          "name": "signature",
          "type": "bytes"
        }
      ],
      "name": "isValidSignature",
      "outputs": [
        {
          "internalType": "bool",
          "name": "",
          "type": "bool"
        }
      ],
      "stateMutability": "view",
      "type": "function"
    },
    {
      "inputs": [
        {
          "components": [
            {
              "internalType": "address",
              "name": "user",
              "type": "address"
            },
            {
              "internalType": "address",
              "name": "sellToken",
              "type": "address"
            },
            {
              "internalType": "address",
              "name": "buyToken",
              "type": "address"
            },
            {
              "internalType": "address",
              "name": "relayerAddress",
              "type": "address"
            },
            {
              "internalType": "uint256",
              "name": "sellAmount",
              "type": "uint256"
            },
            {
              "internalType": "uint256",
              "name": "buyAmount",
              "type": "uint256"
            },
            {
              "internalType": "uint256",
              "name": "gasFee",
              "type": "uint256"
            },
            {
              "internalType": "uint256",
              "name": "expirationTimeSeconds",
              "type": "uint256"
            },
            {
              "internalType": "uint256",
              "name": "salt",
              "type": "uint256"
            }
          ],
          "internalType": "struct LibOrder.Order",
          "name": "makerOrder",
          "type": "tuple"
        },
        {
          "components": [
            {
              "internalType": "address",
              "name": "user",
              "type": "address"
            },
            {
              "internalType": "address",
              "name": "sellToken",
              "type": "address"
            },
            {
              "internalType": "address",
              "name": "buyToken",
              "type": "address"
            },
            {
              "internalType": "address",
              "name": "relayerAddress",
              "type": "address"
            },
            {
              "internalType": "uint256",
              "name": "sellAmount",
              "type": "uint256"
            },
            {
              "internalType": "uint256",
              "name": "buyAmount",
              "type": "uint256"
            },
            {
              "internalType": "uint256",
              "name": "gasFee",
              "type": "uint256"
            },
            {
              "internalType": "uint256",
              "name": "expirationTimeSeconds",
              "type": "uint256"
            },
            {
              "internalType": "uint256",
              "name": "salt",
              "type": "uint256"
            }
          ],
          "internalType": "struct LibOrder.Order",
          "name": "takerOrder",
          "type": "tuple"
        },
        {
          "internalType": "bytes",
          "name": "makerSignature",
          "type": "bytes"
        },
        {
          "internalType": "bytes",
          "name": "takerSignature",
          "type": "bytes"
        }
      ],
      "name": "matchOrders",
      "outputs": [
        {
          "components": [
            {
              "internalType": "uint256",
              "name": "makerSellFilledAmount",
              "type": "uint256"
            },
            {
              "internalType": "uint256",
              "name": "takerSellFilledAmount",
              "type": "uint256"
            },
            {
              "internalType": "uint256",
              "name": "makerFeePaid",
              "type": "uint256"
            },
            {
              "internalType": "uint256",
              "name": "takerFeePaid",
              "type": "uint256"
            }
          ],
          "internalType": "struct LibFillResults.MatchedFillResults",
          "name": "matchedFillResults",
          "type": "tuple"
        }
      ],
      "stateMutability": "nonpayable",
      "type": "function"
    },
    {
      "inputs": [
        {
          "internalType": "uint256",
          "name": "_taker_fee_numerator",
          "type": "uint256"
        },
        {
          "internalType": "uint256",
          "name": "_taker_fee_denominator",
          "type": "uint256"
        },
        {
          "internalType": "uint256",
          "name": "_maker_fee_numerator",
          "type": "uint256"
        },
        {
          "internalType": "uint256",
          "name": "_maker_fee_denominator",
          "type": "uint256"
        }
      ],
      "name": "setFees",
      "outputs": [],
      "stateMutability": "nonpayable",
      "type": "function"
    }
  ],
  "bytecode": "0x610140604052600060035561271060045560006005556127106006553480156200002857600080fd5b50604051620034283803806200342883398181016040528101906200004e91906200038a565b828260008280519060200120905060008280519060200120905060007f8b73c3c69bb8fe3d512ecc4cf759cc79239f7b179b0ffacaa9a75d522b39400f90508260e081815250508161010081815250504660a08181525050620000b98184846200014c60201b60201c565b608081815250503073ffffffffffffffffffffffffffffffffffffffff1660c08173ffffffffffffffffffffffffffffffffffffffff1681525050806101208181525050505050505080600260006101000a81548173ffffffffffffffffffffffffffffffffffffffff021916908373ffffffffffffffffffffffffffffffffffffffff160217905550505050620004c8565b60008383834630604051602001620001699594939291906200046b565b6040516020818303038152906040528051906020012090509392505050565b6000604051905090565b600080fd5b600080fd5b600080fd5b600080fd5b6000601f19601f8301169050919050565b7f4e487b7100000000000000000000000000000000000000000000000000000000600052604160045260246000fd5b620001f182620001a6565b810181811067ffffffffffffffff82111715620002135762000212620001b7565b5b80604052505050565b60006200022862000188565b9050620002368282620001e6565b919050565b600067ffffffffffffffff821115620002595762000258620001b7565b5b6200026482620001a6565b9050602081019050919050565b60005b838110156200029157808201518184015260208101905062000274565b83811115620002a1576000848401525b50505050565b6000620002be620002b8846200023b565b6200021c565b905082815260208101848484011115620002dd57620002dc620001a1565b5b620002ea84828562000271565b509392505050565b600082601f8301126200030a57620003096200019c565b5b81516200031c848260208601620002a7565b91505092915050565b600073ffffffffffffffffffffffffffffffffffffffff82169050919050565b6000620003528262000325565b9050919050565b620003648162000345565b81146200037057600080fd5b50565b600081519050620003848162000359565b92915050565b600080600060608486031215620003a657620003a562000192565b5b600084015167ffffffffffffffff811115620003c757620003c662000197565b5b620003d586828701620002f2565b935050602084015167ffffffffffffffff811115620003f957620003f862000197565b5b6200040786828701620002f2565b92505060406200041a8682870162000373565b9150509250925092565b6000819050919050565b620004398162000424565b82525050565b6000819050919050565b62000454816200043f565b82525050565b620004658162000345565b82525050565b600060a0820190506200048260008301886200042e565b6200049160208301876200042e565b620004a060408301866200042e565b620004af606083018562000449565b620004be60808301846200045a565b9695505050505050565b60805160a05160c05160e0516101005161012051612f106200051860003960006115b1015260006115f3015260006115d2015260006115070152600061155d015260006115860152612f106000f3fe608060405234801561001057600080fd5b506004361061007d5760003560e01c80634c66c0631161005b5780634c66c063146101125780634c9c24411461012e5780636fcba3771461015e578063a60a7ed21461017a5761007d565b8063288cdc91146100825780632ac12622146100b2578063488b06dc146100e2575b600080fd5b61009c60048036038101906100979190611906565b6101aa565b6040516100a9919061194c565b60405180910390f35b6100cc60048036038101906100c79190611906565b6101c2565b6040516100d99190611982565b60405180910390f35b6100fc60048036038101906100f79190611c52565b6101e2565b6040516101099190611982565b60405180910390f35b61012c60048036038101906101279190611cb0565b610208565b005b61014860048036038101906101439190611cb0565b6102b6565b6040516101559190611db5565b60405180910390f35b61017860048036038101906101739190611dd0565b610493565b005b610194600480360381019061018f9190611e37565b610545565b6040516101a19190611f2f565b60405180910390f35b60006020528060005260406000206000915090505481565b60016020528060005260406000206000915054906101000a900460ff1681565b6000806101ee84610a5b565b90506101ff84600001518285610aea565b91505092915050565b806000015173ffffffffffffffffffffffffffffffffffffffff163373ffffffffffffffffffffffffffffffffffffffff161461027a576040517f08c379a000000000000000000000000000000000000000000000000000000000815260040161027190611fa7565b60405180910390fd5b600061028582610a5b565b9050600180600083815260200190815260200160002060006101000a81548160ff0219169083151502179055505050565b6102be61185e565b6102c782610b0d565b8260200183604001828152508281525050506000826080015111610320576040517f08c379a000000000000000000000000000000000000000000000000000000000815260040161031790612013565b60405180910390fd5b60008260a0015111610367576040517f08c379a000000000000000000000000000000000000000000000000000000000815260040161035e9061207f565b60405180910390fd5b8160a001518160400151106103b1576040517f08c379a00000000000000000000000000000000000000000000000000000000081526004016103a8906120eb565b60405180910390fd5b8160e001514211156103f8576040517f08c379a00000000000000000000000000000000000000000000000000000000081526004016103ef90612157565b60405180910390fd5b600160008260200151815260200190815260200160002060009054906101000a900460ff161561045d576040517f08c379a0000000000000000000000000000000000000000000000000000000008152600401610454906121c3565b60405180910390fd5b60038160000190600681111561047657610475611cde565b5b9081600681111561048a57610489611cde565b5b81525050919050565b600260009054906101000a900473ffffffffffffffffffffffffffffffffffffffff1673ffffffffffffffffffffffffffffffffffffffff163373ffffffffffffffffffffffffffffffffffffffff1614610523576040517f08c379a000000000000000000000000000000000000000000000000000000000815260040161051a9061222f565b60405180910390fd5b8360058190555082600681905550816003819055508060048190555050505050565b61054d611894565b846040015173ffffffffffffffffffffffffffffffffffffffff16846020015173ffffffffffffffffffffffffffffffffffffffff16146105c3576040517f08c379a00000000000000000000000000000000000000000000000000000000081526004016105ba9061229b565b60405180910390fd5b846020015173ffffffffffffffffffffffffffffffffffffffff16846040015173ffffffffffffffffffffffffffffffffffffffff1614610639576040517f08c379a00000000000000000000000000000000000000000000000000000000081526004016106309061229b565b60405180910390fd5b600073ffffffffffffffffffffffffffffffffffffffff16856060015173ffffffffffffffffffffffffffffffffffffffff1614806106a757503373ffffffffffffffffffffffffffffffffffffffff16856060015173ffffffffffffffffffffffffffffffffffffffff16145b6106e6576040517f08c379a00000000000000000000000000000000000000000000000000000000081526004016106dd90612307565b60405180910390fd5b600073ffffffffffffffffffffffffffffffffffffffff16846060015173ffffffffffffffffffffffffffffffffffffffff16148061075457503373ffffffffffffffffffffffffffffffffffffffff16846060015173ffffffffffffffffffffffffffffffffffffffff16145b610793576040517f08c379a000000000000000000000000000000000000000000000000000000000815260040161078a90612373565b60405180910390fd5b600061079e866102b6565b905060006107ab866102b6565b9050600360068111156107c1576107c0611cde565b5b816000015160068111156107d8576107d7611cde565b5b14610818576040517f08c379a000000000000000000000000000000000000000000000000000000000815260040161080f906123df565b60405180910390fd5b6003600681111561082c5761082b611cde565b5b8260000151600681111561084357610842611cde565b5b14610883576040517f08c379a000000000000000000000000000000000000000000000000000000000815260040161087a9061244b565b60405180910390fd5b856000015173ffffffffffffffffffffffffffffffffffffffff163373ffffffffffffffffffffffffffffffffffffffff161461090d576108cd8660000151826020015186610aea565b61090c576040517f08c379a0000000000000000000000000000000000000000000000000000000008152600401610903906124b7565b60405180910390fd5b5b866000015173ffffffffffffffffffffffffffffffffffffffff163373ffffffffffffffffffffffffffffffffffffffff1614610997576109578760000151836020015187610aea565b610996576040517f08c379a000000000000000000000000000000000000000000000000000000000815260040161098d90612523565b60405180910390fd5b5b8560a001518760a001516109ab9190612572565b866080015188608001516109bf9190612572565b1015610a00576040517f08c379a00000000000000000000000000000000000000000000000000000000081526004016109f790612618565b60405180910390fd5b610a20878784604001518460400151600354600454600554600654610b35565b9250610a3482602001518460200151610bf9565b610a4681602001518460000151610bf9565b610a51878785610c26565b5050949350505050565b6000807ffa32bf255b1c22edbfeb8277d85cc12f63ae6977de503f9ac76a2b65b5e4f19560001b836000015184602001518560400151866060015187608001518860a001518960c001518a60e001518b6101000151604051602001610ac99a99989796959493929190612656565b60405160208183030381529060405280519060200120905080915050919050565b600080610af68461125f565b9050610b03858285611279565b9150509392505050565b600080610b1983610a5b565b9150600080838152602001908152602001600020549050915091565b610b3d611894565b6000878a60a00151610b4f91906126f2565b90506000610b668b608001518c60a001518461143f565b90506000888b60a00151610b7a91906126f2565b90506000610b918c608001518d60a001518461143f565b9050610b9f8d8486846114ac565b945087898660000151610bb29190612572565b610bbc9190612755565b85604001818152505085878660200151610bd69190612572565b610be09190612755565b8560600181815250505050505098975050505050505050565b806000808481526020019081526020016000206000828254610c1b9190612786565b925050819055505050565b8060200151826020015173ffffffffffffffffffffffffffffffffffffffff166370a0823184600001516040518263ffffffff1660e01b8152600401610c6c91906127dc565b602060405180830381865afa158015610c89573d6000803e3d6000fd5b505050506040513d601f19601f82011682018060405250810190610cad919061280c565b1015610cee576040517f08c379a0000000000000000000000000000000000000000000000000000000008152600401610ce590612885565b60405180910390fd5b8060000151836020015173ffffffffffffffffffffffffffffffffffffffff166370a0823185600001516040518263ffffffff1660e01b8152600401610d3491906127dc565b602060405180830381865afa158015610d51573d6000803e3d6000fd5b505050506040513d601f19601f82011682018060405250810190610d75919061280c565b1015610db6576040517f08c379a0000000000000000000000000000000000000000000000000000000008152600401610dad906128f1565b60405180910390fd5b816020015173ffffffffffffffffffffffffffffffffffffffff166323b872dd8360000151856000015184602001516040518463ffffffff1660e01b8152600401610e0393929190612911565b6020604051808303816000875af1158015610e22573d6000803e3d6000fd5b505050506040513d601f19601f82011682018060405250810190610e469190612974565b50826020015173ffffffffffffffffffffffffffffffffffffffff166323b872dd8460000151846000015184600001516040518463ffffffff1660e01b8152600401610e9493929190612911565b6020604051808303816000875af1158015610eb3573d6000803e3d6000fd5b505050506040513d601f19601f82011682018060405250810190610ed79190612974565b5060008260c001518260600151610eee9190612786565b905060008111156110695780836020015173ffffffffffffffffffffffffffffffffffffffff166370a0823185600001516040518263ffffffff1660e01b8152600401610f3b91906127dc565b602060405180830381865afa158015610f58573d6000803e3d6000fd5b505050506040513d601f19601f82011682018060405250810190610f7c919061280c565b1015610fbd576040517f08c379a0000000000000000000000000000000000000000000000000000000008152600401610fb490612a13565b60405180910390fd5b826020015173ffffffffffffffffffffffffffffffffffffffff166323b872dd8460000151600260009054906101000a900473ffffffffffffffffffffffffffffffffffffffff16846040518463ffffffff1660e01b815260040161102493929190612911565b6020604051808303816000875af1158015611043573d6000803e3d6000fd5b505050506040513d601f19601f820116820180604052508101906110679190612974565b505b6000826040015111156111ee578160400151846020015173ffffffffffffffffffffffffffffffffffffffff166370a0823186600001516040518263ffffffff1660e01b81526004016110bc91906127dc565b602060405180830381865afa1580156110d9573d6000803e3d6000fd5b505050506040513d601f19601f820116820180604052508101906110fd919061280c565b101561113e576040517f08c379a000000000000000000000000000000000000000000000000000000000815260040161113590612aa5565b60405180910390fd5b836020015173ffffffffffffffffffffffffffffffffffffffff166323b872dd8560000151600260009054906101000a900473ffffffffffffffffffffffffffffffffffffffff1685604001516040518463ffffffff1660e01b81526004016111a993929190612911565b6020604051808303816000875af11580156111c8573d6000803e3d6000fd5b505050506040513d601f19601f820116820180604052508101906111ec9190612974565b505b7f40997d238e11ae20f00d25adab0cd2ed389f5c94ccea812f68ceff69d92d7ad98460000151846000015186602001518660200151866000015187602001518960c0015189604001518a6060015160405161125199989796959493929190612ac5565b60405180910390a150505050565b600061127261126c611503565b8361161d565b9050919050565b60008060006112888585611650565b91509150600060048111156112a05761129f611cde565b5b8160048111156112b3576112b2611cde565b5b1480156112eb57508573ffffffffffffffffffffffffffffffffffffffff168273ffffffffffffffffffffffffffffffffffffffff16145b156112fb57600192505050611438565b6000808773ffffffffffffffffffffffffffffffffffffffff16631626ba7e60e01b8888604051602401611330929190612bda565b604051602081830303815290604052907bffffffffffffffffffffffffffffffffffffffffffffffffffffffff19166020820180517bffffffffffffffffffffffffffffffffffffffffffffffffffffffff838183161783525050505060405161139a9190612c46565b600060405180830381855afa9150503d80600081146113d5576040519150601f19603f3d011682016040523d82523d6000602084013e6113da565b606091505b50915091508180156113ed575060208151145b80156114315750631626ba7e60e01b7bffffffffffffffffffffffffffffffffffffffffffffffffffffffff19168180602001905181019061142f9190612c72565b145b9450505050505b9392505050565b600061144c8484846116a2565b1561148c576040517f08c379a000000000000000000000000000000000000000000000000000000000815260040161148390612ceb565b60405180910390fd5b8282856114999190612572565b6114a39190612755565b90509392505050565b6114b4611894565b8183106114e6576114ce85608001518660a001518461143f565b816000018181525050818160200181815250506114fb565b83816000018181525050828160200181815250505b949350505050565b60007f000000000000000000000000000000000000000000000000000000000000000073ffffffffffffffffffffffffffffffffffffffff163073ffffffffffffffffffffffffffffffffffffffff1614801561157f57507f000000000000000000000000000000000000000000000000000000000000000046145b156115ac577f0000000000000000000000000000000000000000000000000000000000000000905061161a565b6116177f00000000000000000000000000000000000000000000000000000000000000007f00000000000000000000000000000000000000000000000000000000000000007f0000000000000000000000000000000000000000000000000000000000000000611741565b90505b90565b60008282604051602001611632929190612d83565b60405160208183030381529060405280519060200120905092915050565b6000806041835114156116925760008060006020860151925060408601519150606086015160001a90506116868782858561177b565b9450945050505061169b565b60006002915091505b9250929050565b6000808314156116e7576040517f08c379a00000000000000000000000000000000000000000000000000000000081526004016116de90612e06565b60405180910390fd5b60008214806116f65750600084145b15611704576000905061173a565b6000838061171557611714612726565b5b858409905082856117269190612572565b6103e8826117349190612572565b10159150505b9392505050565b6000838383463060405160200161175c959493929190612e26565b6040516020818303038152906040528051906020012090509392505050565b6000807f7fffffffffffffffffffffffffffffff5d576e7357a4501ddfe92f46681b20a08360001c11156117b6576000600391509150611855565b6000600187878787604051600081526020016040526040516117db9493929190612e95565b6020604051602081039080840390855afa1580156117fd573d6000803e3d6000fd5b505050602060405103519050600073ffffffffffffffffffffffffffffffffffffffff168173ffffffffffffffffffffffffffffffffffffffff16141561184c57600060019250925050611855565b80600092509250505b94509492505050565b60405180606001604052806000600681111561187d5761187c611cde565b5b815260200160008019168152602001600081525090565b6040518060800160405280600081526020016000815260200160008152602001600081525090565b6000604051905090565b600080fd5b600080fd5b6000819050919050565b6118e3816118d0565b81146118ee57600080fd5b50565b600081359050611900816118da565b92915050565b60006020828403121561191c5761191b6118c6565b5b600061192a848285016118f1565b91505092915050565b6000819050919050565b61194681611933565b82525050565b6000602082019050611961600083018461193d565b92915050565b60008115159050919050565b61197c81611967565b82525050565b60006020820190506119976000830184611973565b92915050565b600080fd5b6000601f19601f8301169050919050565b7f4e487b7100000000000000000000000000000000000000000000000000000000600052604160045260246000fd5b6119eb826119a2565b810181811067ffffffffffffffff82111715611a0a57611a096119b3565b5b80604052505050565b6000611a1d6118bc565b9050611a2982826119e2565b919050565b600073ffffffffffffffffffffffffffffffffffffffff82169050919050565b6000611a5982611a2e565b9050919050565b611a6981611a4e565b8114611a7457600080fd5b50565b600081359050611a8681611a60565b92915050565b611a9581611933565b8114611aa057600080fd5b50565b600081359050611ab281611a8c565b92915050565b60006101208284031215611acf57611ace61199d565b5b611ada610120611a13565b90506000611aea84828501611a77565b6000830152506020611afe84828501611a77565b6020830152506040611b1284828501611a77565b6040830152506060611b2684828501611a77565b6060830152506080611b3a84828501611aa3565b60808301525060a0611b4e84828501611aa3565b60a08301525060c0611b6284828501611aa3565b60c08301525060e0611b7684828501611aa3565b60e083015250610100611b8b84828501611aa3565b6101008301525092915050565b600080fd5b600080fd5b600067ffffffffffffffff821115611bbd57611bbc6119b3565b5b611bc6826119a2565b9050602081019050919050565b82818337600083830152505050565b6000611bf5611bf084611ba2565b611a13565b905082815260208101848484011115611c1157611c10611b9d565b5b611c1c848285611bd3565b509392505050565b600082601f830112611c3957611c38611b98565b5b8135611c49848260208601611be2565b91505092915050565b6000806101408385031215611c6a57611c696118c6565b5b6000611c7885828601611ab8565b92505061012083013567ffffffffffffffff811115611c9a57611c996118cb565b5b611ca685828601611c24565b9150509250929050565b60006101208284031215611cc757611cc66118c6565b5b6000611cd584828501611ab8565b91505092915050565b7f4e487b7100000000000000000000000000000000000000000000000000000000600052602160045260246000fd5b60078110611d1e57611d1d611cde565b5b50565b6000819050611d2f82611d0d565b919050565b6000611d3f82611d21565b9050919050565b611d4f81611d34565b82525050565b611d5e816118d0565b82525050565b611d6d81611933565b82525050565b606082016000820151611d896000850182611d46565b506020820151611d9c6020850182611d55565b506040820151611daf6040850182611d64565b50505050565b6000606082019050611dca6000830184611d73565b92915050565b60008060008060808587031215611dea57611de96118c6565b5b6000611df887828801611aa3565b9450506020611e0987828801611aa3565b9350506040611e1a87828801611aa3565b9250506060611e2b87828801611aa3565b91505092959194509250565b6000806000806102808587031215611e5257611e516118c6565b5b6000611e6087828801611ab8565b945050610120611e7287828801611ab8565b93505061024085013567ffffffffffffffff811115611e9457611e936118cb565b5b611ea087828801611c24565b92505061026085013567ffffffffffffffff811115611ec257611ec16118cb565b5b611ece87828801611c24565b91505092959194509250565b608082016000820151611ef06000850182611d64565b506020820151611f036020850182611d64565b506040820151611f166040850182611d64565b506060820151611f296060850182611d64565b50505050565b6000608082019050611f446000830184611eda565b92915050565b600082825260208201905092915050565b7f6f6e6c792075736572206d61792063616e63656c206f72646572000000000000600082015250565b6000611f91601a83611f4a565b9150611f9c82611f5b565b602082019050919050565b60006020820190508181036000830152611fc081611f84565b9050919050565b7f696e76616c6964206d616b657220617373657420616d6f756e74000000000000600082015250565b6000611ffd601a83611f4a565b915061200882611fc7565b602082019050919050565b6000602082019050818103600083015261202c81611ff0565b9050919050565b7f696e76616c69642074616b657220617373657420616d6f756e74000000000000600082015250565b6000612069601a83611f4a565b915061207482612033565b602082019050919050565b600060208201905081810360008301526120988161205c565b9050919050565b7f6f726465722069732066696c6c65640000000000000000000000000000000000600082015250565b60006120d5600f83611f4a565b91506120e08261209f565b602082019050919050565b60006020820190508181036000830152612104816120c8565b9050919050565b7f6f72646572206578706972656400000000000000000000000000000000000000600082015250565b6000612141600d83611f4a565b915061214c8261210b565b602082019050919050565b6000602082019050818103600083015261217081612134565b9050919050565b7f6f726465722063616e63656c6564000000000000000000000000000000000000600082015250565b60006121ad600e83611f4a565b91506121b882612177565b602082019050919050565b600060208201905081810360008301526121dc816121a0565b9050919050565b7f6f6e6c79206665652061646472657373206d6179207570646174652066656573600082015250565b6000612219602083611f4a565b9150612224826121e3565b602082019050919050565b600060208201905081810360008301526122488161220c565b9050919050565b7f6d69736d61746368656420746f6b656e73000000000000000000000000000000600082015250565b6000612285601183611f4a565b91506122908261224f565b602082019050919050565b600060208201905081810360008301526122b481612278565b9050919050565b7f6d616b65722072656c61796572206d69736d6174636800000000000000000000600082015250565b60006122f1601683611f4a565b91506122fc826122bb565b602082019050919050565b60006020820190508181036000830152612320816122e4565b9050919050565b7f74616b65722072656c61796572206d69736d6174636800000000000000000000600082015250565b600061235d601683611f4a565b915061236882612327565b602082019050919050565b6000602082019050818103600083015261238c81612350565b9050919050565b7f74616b6572206f7264657220737461747573206e6f742046696c6c61626c6500600082015250565b60006123c9601f83611f4a565b91506123d482612393565b602082019050919050565b600060208201905081810360008301526123f8816123bc565b9050919050565b7f6d616b6572206f7264657220737461747573206e6f742046696c6c61626c6500600082015250565b6000612435601f83611f4a565b9150612440826123ff565b602082019050919050565b6000602082019050818103600083015261246481612428565b9050919050565b7f696e76616c69642074616b6572207369676e6174757265000000000000000000600082015250565b60006124a1601783611f4a565b91506124ac8261246b565b602082019050919050565b600060208201905081810360008301526124d081612494565b9050919050565b7f696e76616c6964206d616b6572207369676e6174757265000000000000000000600082015250565b600061250d601783611f4a565b9150612518826124d7565b602082019050919050565b6000602082019050818103600083015261253c81612500565b9050919050565b7f4e487b7100000000000000000000000000000000000000000000000000000000600052601160045260246000fd5b600061257d82611933565b915061258883611933565b9250817fffffffffffffffffffffffffffffffffffffffffffffffffffffffffffffffff04831182151516156125c1576125c0612543565b5b828202905092915050565b7f6e6f742070726f66697461626c65207370726561640000000000000000000000600082015250565b6000612602601583611f4a565b915061260d826125cc565b602082019050919050565b60006020820190508181036000830152612631816125f5565b9050919050565b612641816118d0565b82525050565b61265081611a4e565b82525050565b60006101408201905061266c600083018d612638565b612679602083018c612647565b612686604083018b612647565b612693606083018a612647565b6126a06080830189612647565b6126ad60a083018861193d565b6126ba60c083018761193d565b6126c760e083018661193d565b6126d561010083018561193d565b6126e361012083018461193d565b9b9a5050505050505050505050565b60006126fd82611933565b915061270883611933565b92508282101561271b5761271a612543565b5b828203905092915050565b7f4e487b7100000000000000000000000000000000000000000000000000000000600052601260045260246000fd5b600061276082611933565b915061276b83611933565b92508261277b5761277a612726565b5b828204905092915050565b600061279182611933565b915061279c83611933565b9250827fffffffffffffffffffffffffffffffffffffffffffffffffffffffffffffffff038211156127d1576127d0612543565b5b828201905092915050565b60006020820190506127f16000830184612647565b92915050565b60008151905061280681611a8c565b92915050565b600060208284031215612822576128216118c6565b5b6000612830848285016127f7565b91505092915050565b7f74616b6572206f72646572206e6f7420656e6f7567682062616c616e63650000600082015250565b600061286f601e83611f4a565b915061287a82612839565b602082019050919050565b6000602082019050818103600083015261289e81612862565b9050919050565b7f6d616b6572206f72646572206e6f7420656e6f7567682062616c616e63650000600082015250565b60006128db601e83611f4a565b91506128e6826128a5565b602082019050919050565b6000602082019050818103600083015261290a816128ce565b9050919050565b60006060820190506129266000830186612647565b6129336020830185612647565b612940604083018461193d565b949350505050565b61295181611967565b811461295c57600080fd5b50565b60008151905061296e81612948565b92915050565b60006020828403121561298a576129896118c6565b5b60006129988482850161295f565b91505092915050565b7f74616b6572206f72646572206e6f7420656e6f7567682062616c616e6365206660008201527f6f72206665650000000000000000000000000000000000000000000000000000602082015250565b60006129fd602683611f4a565b9150612a08826129a1565b604082019050919050565b60006020820190508181036000830152612a2c816129f0565b9050919050565b7f6d616b6572206f72646572206e6f7420656e6f7567682062616c616e6365206660008201527f6f72206665650000000000000000000000000000000000000000000000000000602082015250565b6000612a8f602683611f4a565b9150612a9a82612a33565b604082019050919050565b60006020820190508181036000830152612abe81612a82565b9050919050565b600061012082019050612adb600083018c612647565b612ae8602083018b612647565b612af5604083018a612647565b612b026060830189612647565b612b0f608083018861193d565b612b1c60a083018761193d565b612b2960c083018661193d565b612b3660e083018561193d565b612b4461010083018461193d565b9a9950505050505050505050565b600081519050919050565b600082825260208201905092915050565b60005b83811015612b8c578082015181840152602081019050612b71565b83811115612b9b576000848401525b50505050565b6000612bac82612b52565b612bb68185612b5d565b9350612bc6818560208601612b6e565b612bcf816119a2565b840191505092915050565b6000604082019050612bef6000830185612638565b8181036020830152612c018184612ba1565b90509392505050565b600081905092915050565b6000612c2082612b52565b612c2a8185612c0a565b9350612c3a818560208601612b6e565b80840191505092915050565b6000612c528284612c15565b915081905092915050565b600081519050612c6c816118da565b92915050565b600060208284031215612c8857612c876118c6565b5b6000612c9684828501612c5d565b91505092915050565b7f666c6f6f7220726f756e64696e67206572726f72203e3d20302e312500000000600082015250565b6000612cd5601c83611f4a565b9150612ce082612c9f565b602082019050919050565b60006020820190508181036000830152612d0481612cc8565b9050919050565b600081905092915050565b7f1901000000000000000000000000000000000000000000000000000000000000600082015250565b6000612d4c600283612d0b565b9150612d5782612d16565b600282019050919050565b6000819050919050565b612d7d612d78826118d0565b612d62565b82525050565b6000612d8e82612d3f565b9150612d9a8285612d6c565b602082019150612daa8284612d6c565b6020820191508190509392505050565b7f6572726f722064656e6f6d696e61746f72206973207a65726f00000000000000600082015250565b6000612df0601983611f4a565b9150612dfb82612dba565b602082019050919050565b60006020820190508181036000830152612e1f81612de3565b9050919050565b600060a082019050612e3b6000830188612638565b612e486020830187612638565b612e556040830186612638565b612e62606083018561193d565b612e6f6080830184612647565b9695505050505050565b600060ff82169050919050565b612e8f81612e79565b82525050565b6000608082019050612eaa6000830187612638565b612eb76020830186612e86565b612ec46040830185612638565b612ed16060830184612638565b9594505050505056fea2646970667358221220e1f279fa10fc55a4af855e29507f0ed7cf9b775613e2b9c94eea6341d64c4f3364736f6c634300080a0033",
  "linkReferences": {},
  "deployedLinkReferences": {}
}