{
  "_format": "hh-sol-artifact-1",
  "contractName": "Exchange",
  "sourceName": "contracts/Exchange.sol",
  "abi": [
    {
      "inputs": [
        {
          "components": [
            {
              "internalType": "address",
              "name": "user",
              "type": "address"
            },
            {
              "internalType": "address",
              "name": "sellToken",
              "type": "address"
            },
            {
              "internalType": "address",
              "name": "buyToken",
              "type": "address"
            },
            {
              "internalType": "address",
              "name": "feeRecipientAddress",
              "type": "address"
            },
            {
              "internalType": "address",
              "name": "relayerAddress",
              "type": "address"
            },
            {
              "internalType": "uint256",
              "name": "sellAmount",
              "type": "uint256"
            },
            {
              "internalType": "uint256",
              "name": "buyAmount",
              "type": "uint256"
            },
            {
              "internalType": "uint256",
              "name": "makerVolumeFee",
              "type": "uint256"
            },
            {
              "internalType": "uint256",
              "name": "takerVolumeFee",
              "type": "uint256"
            },
            {
              "internalType": "uint256",
              "name": "gasFee",
              "type": "uint256"
            },
            {
              "internalType": "uint256",
              "name": "expirationTimeSeconds",
              "type": "uint256"
            },
            {
              "internalType": "uint256",
              "name": "salt",
              "type": "uint256"
            }
          ],
          "internalType": "struct LibOrder.Order",
          "name": "order",
          "type": "tuple"
        }
      ],
      "name": "cancelOrder",
      "outputs": [],
      "stateMutability": "nonpayable",
      "type": "function"
    },
    {
      "inputs": [
        {
          "internalType": "bytes32",
          "name": "",
          "type": "bytes32"
        }
      ],
      "name": "cancelled",
      "outputs": [
        {
          "internalType": "bool",
          "name": "",
          "type": "bool"
        }
      ],
      "stateMutability": "view",
      "type": "function"
    },
    {
      "inputs": [
        {
          "internalType": "bytes32",
          "name": "",
          "type": "bytes32"
        }
      ],
      "name": "filled",
      "outputs": [
        {
          "internalType": "uint256",
          "name": "",
          "type": "uint256"
        }
      ],
      "stateMutability": "view",
      "type": "function"
    },
    {
      "inputs": [
        {
          "components": [
            {
              "internalType": "address",
              "name": "user",
              "type": "address"
            },
            {
              "internalType": "address",
              "name": "sellToken",
              "type": "address"
            },
            {
              "internalType": "address",
              "name": "buyToken",
              "type": "address"
            },
            {
              "internalType": "address",
              "name": "feeRecipientAddress",
              "type": "address"
            },
            {
              "internalType": "address",
              "name": "relayerAddress",
              "type": "address"
            },
            {
              "internalType": "uint256",
              "name": "sellAmount",
              "type": "uint256"
            },
            {
              "internalType": "uint256",
              "name": "buyAmount",
              "type": "uint256"
            },
            {
              "internalType": "uint256",
              "name": "makerVolumeFee",
              "type": "uint256"
            },
            {
              "internalType": "uint256",
              "name": "takerVolumeFee",
              "type": "uint256"
            },
            {
              "internalType": "uint256",
              "name": "gasFee",
              "type": "uint256"
            },
            {
              "internalType": "uint256",
              "name": "expirationTimeSeconds",
              "type": "uint256"
            },
            {
              "internalType": "uint256",
              "name": "salt",
              "type": "uint256"
            }
          ],
          "internalType": "struct LibOrder.Order",
          "name": "order",
          "type": "tuple"
        }
      ],
      "name": "getOrderInfo",
      "outputs": [
        {
          "components": [
            {
              "internalType": "enum LibOrder.OrderStatus",
              "name": "orderStatus",
              "type": "uint8"
            },
            {
              "internalType": "bytes32",
              "name": "orderHash",
              "type": "bytes32"
            },
            {
              "internalType": "uint256",
              "name": "orderBuyFilledAmount",
              "type": "uint256"
            }
          ],
          "internalType": "struct LibOrder.OrderInfo",
          "name": "orderInfo",
          "type": "tuple"
        }
      ],
      "stateMutability": "view",
      "type": "function"
    },
    {
      "inputs": [
        {
          "components": [
            {
              "internalType": "address",
              "name": "user",
              "type": "address"
            },
            {
              "internalType": "address",
              "name": "sellToken",
              "type": "address"
            },
            {
              "internalType": "address",
              "name": "buyToken",
              "type": "address"
            },
            {
              "internalType": "address",
              "name": "feeRecipientAddress",
              "type": "address"
            },
            {
              "internalType": "address",
              "name": "relayerAddress",
              "type": "address"
            },
            {
              "internalType": "uint256",
              "name": "sellAmount",
              "type": "uint256"
            },
            {
              "internalType": "uint256",
              "name": "buyAmount",
              "type": "uint256"
            },
            {
              "internalType": "uint256",
              "name": "makerVolumeFee",
              "type": "uint256"
            },
            {
              "internalType": "uint256",
              "name": "takerVolumeFee",
              "type": "uint256"
            },
            {
              "internalType": "uint256",
              "name": "gasFee",
              "type": "uint256"
            },
            {
              "internalType": "uint256",
              "name": "expirationTimeSeconds",
              "type": "uint256"
            },
            {
              "internalType": "uint256",
              "name": "salt",
              "type": "uint256"
            }
          ],
          "internalType": "struct LibOrder.Order",
          "name": "order",
          "type": "tuple"
        },
        {
          "internalType": "bytes",
          "name": "signature",
          "type": "bytes"
        }
      ],
      "name": "isValidSignature",
      "outputs": [
        {
          "internalType": "bool",
          "name": "isValid",
          "type": "bool"
        }
      ],
      "stateMutability": "pure",
      "type": "function"
    },
    {
      "inputs": [
        {
          "components": [
            {
              "internalType": "address",
              "name": "user",
              "type": "address"
            },
            {
              "internalType": "address",
              "name": "sellToken",
              "type": "address"
            },
            {
              "internalType": "address",
              "name": "buyToken",
              "type": "address"
            },
            {
              "internalType": "address",
              "name": "feeRecipientAddress",
              "type": "address"
            },
            {
              "internalType": "address",
              "name": "relayerAddress",
              "type": "address"
            },
            {
              "internalType": "uint256",
              "name": "sellAmount",
              "type": "uint256"
            },
            {
              "internalType": "uint256",
              "name": "buyAmount",
              "type": "uint256"
            },
            {
              "internalType": "uint256",
              "name": "makerVolumeFee",
              "type": "uint256"
            },
            {
              "internalType": "uint256",
              "name": "takerVolumeFee",
              "type": "uint256"
            },
            {
              "internalType": "uint256",
              "name": "gasFee",
              "type": "uint256"
            },
            {
              "internalType": "uint256",
              "name": "expirationTimeSeconds",
              "type": "uint256"
            },
            {
              "internalType": "uint256",
              "name": "salt",
              "type": "uint256"
            }
          ],
          "internalType": "struct LibOrder.Order",
          "name": "makerOrder",
          "type": "tuple"
        },
        {
          "components": [
            {
              "internalType": "address",
              "name": "user",
              "type": "address"
            },
            {
              "internalType": "address",
              "name": "sellToken",
              "type": "address"
            },
            {
              "internalType": "address",
              "name": "buyToken",
              "type": "address"
            },
            {
              "internalType": "address",
              "name": "feeRecipientAddress",
              "type": "address"
            },
            {
              "internalType": "address",
              "name": "relayerAddress",
              "type": "address"
            },
            {
              "internalType": "uint256",
              "name": "sellAmount",
              "type": "uint256"
            },
            {
              "internalType": "uint256",
              "name": "buyAmount",
              "type": "uint256"
            },
            {
              "internalType": "uint256",
              "name": "makerVolumeFee",
              "type": "uint256"
            },
            {
              "internalType": "uint256",
              "name": "takerVolumeFee",
              "type": "uint256"
            },
            {
              "internalType": "uint256",
              "name": "gasFee",
              "type": "uint256"
            },
            {
              "internalType": "uint256",
              "name": "expirationTimeSeconds",
              "type": "uint256"
            },
            {
              "internalType": "uint256",
              "name": "salt",
              "type": "uint256"
            }
          ],
          "internalType": "struct LibOrder.Order",
          "name": "takerOrder",
          "type": "tuple"
        },
        {
          "internalType": "bytes",
          "name": "makerSignature",
          "type": "bytes"
        },
        {
          "internalType": "bytes",
          "name": "takerSignature",
          "type": "bytes"
        }
      ],
      "name": "matchOrders",
      "outputs": [
        {
          "components": [
            {
              "internalType": "uint256",
              "name": "makerSellFilledAmount",
              "type": "uint256"
            },
            {
              "internalType": "uint256",
              "name": "takerSellFilledAmount",
              "type": "uint256"
            },
            {
              "internalType": "uint256",
              "name": "makerFeePaid",
              "type": "uint256"
            },
            {
              "internalType": "uint256",
              "name": "takerFeePaid",
              "type": "uint256"
            }
          ],
          "internalType": "struct LibFillResults.MatchedFillResults",
          "name": "matchedFillResults",
          "type": "tuple"
        }
      ],
      "stateMutability": "nonpayable",
      "type": "function"
    }
  ],
  "bytecode": "0x608060405234801561001057600080fd5b50612816806100206000396000f3fe608060405234801561001057600080fd5b50600436106100625760003560e01c80630c0620441461006757806313d9699814610097578063288cdc91146100c75780632ac12622146100f7578063574f5a2a14610127578063c22ed87b14610157575b600080fd5b610081600480360381019061007c9190611844565b610173565b60405161008e919061194b565b60405180910390f35b6100b160048036038101906100ac9190611966565b610681565b6040516100be9190611a66565b60405180910390f35b6100e160048036038101906100dc9190611aad565b610848565b6040516100ee9190611ae9565b60405180910390f35b610111600480360381019061010c9190611aad565b610860565b60405161011e9190611b1f565b60405180910390f35b610141600480360381019061013c9190611b3a565b610880565b60405161014e9190611b1f565b60405180910390f35b610171600480360381019061016c9190611966565b61097d565b005b61017b6114d1565b846040015173ffffffffffffffffffffffffffffffffffffffff16846020015173ffffffffffffffffffffffffffffffffffffffff16146101f1576040517f08c379a00000000000000000000000000000000000000000000000000000000081526004016101e890611bf5565b60405180910390fd5b846020015173ffffffffffffffffffffffffffffffffffffffff16846040015173ffffffffffffffffffffffffffffffffffffffff1614610267576040517f08c379a000000000000000000000000000000000000000000000000000000000815260040161025e90611bf5565b60405180910390fd5b600073ffffffffffffffffffffffffffffffffffffffff16856080015173ffffffffffffffffffffffffffffffffffffffff1614806102d557503373ffffffffffffffffffffffffffffffffffffffff16856080015173ffffffffffffffffffffffffffffffffffffffff16145b610314576040517f08c379a000000000000000000000000000000000000000000000000000000000815260040161030b90611c61565b60405180910390fd5b600073ffffffffffffffffffffffffffffffffffffffff16846080015173ffffffffffffffffffffffffffffffffffffffff16148061038257503373ffffffffffffffffffffffffffffffffffffffff16846080015173ffffffffffffffffffffffffffffffffffffffff16145b6103c1576040517f08c379a00000000000000000000000000000000000000000000000000000000081526004016103b890611ccd565b60405180910390fd5b60006103cc86610681565b905060006103d986610681565b9050600360068111156103ef576103ee611994565b5b8160000151600681111561040657610405611994565b5b14610446576040517f08c379a000000000000000000000000000000000000000000000000000000000815260040161043d90611d39565b60405180910390fd5b6003600681111561045a57610459611994565b5b8260000151600681111561047157610470611994565b5b146104b1576040517f08c379a00000000000000000000000000000000000000000000000000000000081526004016104a890611da5565b60405180910390fd5b856000015173ffffffffffffffffffffffffffffffffffffffff163373ffffffffffffffffffffffffffffffffffffffff1614806104fe57506104fd8160200151858860000151610a2f565b5b61053d576040517f08c379a000000000000000000000000000000000000000000000000000000000815260040161053490611e11565b60405180910390fd5b866000015173ffffffffffffffffffffffffffffffffffffffff163373ffffffffffffffffffffffffffffffffffffffff16148061058a57506105898260200151868960000151610a2f565b5b6105c9576040517f08c379a00000000000000000000000000000000000000000000000000000000081526004016105c090611e7d565b60405180910390fd5b8560c001518760c001516105dd9190611ecc565b8660a001518860a001516105f19190611ecc565b1015610632576040517f08c379a000000000000000000000000000000000000000000000000000000000815260040161062990611f72565b60405180910390fd5b610646878784604001518460400151610b15565b925061065a82602001518460200151610bce565b61066c81602001518460000151610bce565b610677878785610bfb565b5050949350505050565b6106896114f9565b6106928261118e565b82602001836040018281525082815250505060008260a0015114156106e7576001816000019060068111156106ca576106c9611994565b5b908160068111156106de576106dd611994565b5b81525050610843565b60008260c00151141561072a5760028160000190600681111561070d5761070c611994565b5b9081600681111561072157610720611994565b5b81525050610843565b8160c0015181604001511061076f5760058160000190600681111561075257610751611994565b5b9081600681111561076657610765611994565b5b81525050610843565b81610140015142106107b15760048160000190600681111561079457610793611994565b5b908160068111156107a8576107a7611994565b5b81525050610843565b600160008260200151815260200190815260200160002060009054906101000a900460ff1615610811576006816000019060068111156107f4576107f3611994565b5b9081600681111561080857610807611994565b5b81525050610843565b60038160000190600681111561082a57610829611994565b5b9081600681111561083e5761083d611994565b5b815250505b919050565b60006020528060005260406000206000915090505481565b60016020528060005260406000206000915054906101000a900460ff1681565b60008061088c846111b6565b90506000846000015190506000846000815181106108ad576108ac611f92565b5b602001015160f81c60f81b60f81c905060006108d360018761124e90919063ffffffff16565b905060006108eb60218861124e90919063ffffffff16565b90506000600186858585604051600081526020016040526040516109129493929190611fec565b6020604051602081039080840390855afa158015610934573d6000803e3d6000fd5b5050506020604051035190508473ffffffffffffffffffffffffffffffffffffffff168173ffffffffffffffffffffffffffffffffffffffff1614965050505050505092915050565b806000015173ffffffffffffffffffffffffffffffffffffffff163373ffffffffffffffffffffffffffffffffffffffff16146109ef576040517f08c379a00000000000000000000000000000000000000000000000000000000081526004016109e69061207d565b60405180910390fd5b60006109fa82610681565b905060018060008360200151815260200190815260200160002060006101000a81548160ff0219169083151502179055505050565b60008083600081518110610a4657610a45611f92565b5b602001015160f81c60f81b60f81c90506000610a6c60018661124e90919063ffffffff16565b90506000610a8460218761124e90919063ffffffff16565b9050600060018885858560405160008152602001604052604051610aab9493929190611fec565b6020604051602081039080840390855afa158015610acd573d6000803e3d6000fd5b5050506020604051035190508573ffffffffffffffffffffffffffffffffffffffff168173ffffffffffffffffffffffffffffffffffffffff16149450505050509392505050565b610b1d6114d1565b6000838660c00151610b2f919061209d565b90506000610b468760a001518860c00151846112af565b90506000848760c00151610b5a919061209d565b90506000610b718860a001518960c00151846112af565b9050610b7f8984868461131c565b9450610b9885600001518a60a001518b60e001516112af565b856040018181525050610bb985602001518960a001518a61010001516112af565b85606001818152505050505050949350505050565b806000808481526020019081526020016000206000828254610bf091906120d1565b925050819055505050565b8060200151826020015173ffffffffffffffffffffffffffffffffffffffff166370a0823184600001516040518263ffffffff1660e01b8152600401610c419190612136565b602060405180830381865afa158015610c5e573d6000803e3d6000fd5b505050506040513d601f19601f82011682018060405250810190610c829190612166565b1015610cc3576040517f08c379a0000000000000000000000000000000000000000000000000000000008152600401610cba906121df565b60405180910390fd5b8060000151836020015173ffffffffffffffffffffffffffffffffffffffff166370a0823185600001516040518263ffffffff1660e01b8152600401610d099190612136565b602060405180830381865afa158015610d26573d6000803e3d6000fd5b505050506040513d601f19601f82011682018060405250810190610d4a9190612166565b1015610d8b576040517f08c379a0000000000000000000000000000000000000000000000000000000008152600401610d829061224b565b60405180910390fd5b816020015173ffffffffffffffffffffffffffffffffffffffff166323b872dd8360000151856000015184602001516040518463ffffffff1660e01b8152600401610dd89392919061226b565b6020604051808303816000875af1158015610df7573d6000803e3d6000fd5b505050506040513d601f19601f82011682018060405250810190610e1b91906122ce565b50826020015173ffffffffffffffffffffffffffffffffffffffff166323b872dd8460000151846000015184600001516040518463ffffffff1660e01b8152600401610e699392919061226b565b6020604051808303816000875af1158015610e88573d6000803e3d6000fd5b505050506040513d601f19601f82011682018060405250810190610eac91906122ce565b5060008261012001518260600151610ec491906120d1565b905060008111156110215780836020015173ffffffffffffffffffffffffffffffffffffffff166370a0823185600001516040518263ffffffff1660e01b8152600401610f119190612136565b602060405180830381865afa158015610f2e573d6000803e3d6000fd5b505050506040513d601f19601f82011682018060405250810190610f529190612166565b1015610f93576040517f08c379a0000000000000000000000000000000000000000000000000000000008152600401610f8a9061236d565b60405180910390fd5b826020015173ffffffffffffffffffffffffffffffffffffffff166323b872dd84600001518560600151846040518463ffffffff1660e01b8152600401610fdc9392919061226b565b6020604051808303816000875af1158015610ffb573d6000803e3d6000fd5b505050506040513d601f19601f8201168201806040525081019061101f91906122ce565b505b600082604001511115611188578160400151846020015173ffffffffffffffffffffffffffffffffffffffff166370a0823186600001516040518263ffffffff1660e01b81526004016110749190612136565b602060405180830381865afa158015611091573d6000803e3d6000fd5b505050506040513d601f19601f820116820180604052508101906110b59190612166565b10156110f6576040517f08c379a00000000000000000000000000000000000000000000000000000000081526004016110ed906123ff565b60405180910390fd5b836020015173ffffffffffffffffffffffffffffffffffffffff166323b872dd8560000151866060015185604001516040518463ffffffff1660e01b81526004016111439392919061226b565b6020604051808303816000875af1158015611162573d6000803e3d6000fd5b505050506040513d601f19601f8201168201806040525081019061118691906122ce565b505b50505050565b60008061119a836111b6565b9150600080838152602001908152602001600020549050915091565b6000806111c283611373565b6111cb846113dd565b6040516020016111dc929190612499565b60405160208183030381529060405290506000818051906020012090507fa076a88b3e9c52bec7bd0441613055c9487552e6e9bc376730af6e90ac980e2d60001b8160405160200161122f929190612535565b6040516020818303038152906040528051906020012092505050919050565b60008183511015611294576040517f08c379a000000000000000000000000000000000000000000000000000000000815260040161128b906125b8565b60405180910390fd5b6020826112a191906120d1565b915081830151905092915050565b60006112bc848484611432565b156112fc576040517f08c379a00000000000000000000000000000000000000000000000000000000081526004016112f390612624565b60405180910390fd5b8282856113099190611ecc565b6113139190612673565b90509392505050565b6113246114d1565b8183106113565761133e8560a001518660c00151846112af565b8160000181815250508181602001818152505061136b565b83816000018181525050828160200181815250505b949350505050565b60607f0b86e5560a722da94769313c9690e24ca4925d085b3cdbd5a1240ba1bcc92a9560001b826000015183602001518460400151856060015186608001516040516020016113c7969594939291906126a4565b6040516020818303038152906040529050919050565b60608160a001518260c001518360e0015184610100015185610120015186610140015187610160015160405160200161141c9796959493929190612705565b6040516020818303038152906040529050919050565b600080831415611477576040517f08c379a000000000000000000000000000000000000000000000000000000000815260040161146e906127c0565b60405180910390fd5b60008214806114865750600084145b1561149457600090506114ca565b600083806114a5576114a4612644565b5b858409905082856114b69190611ecc565b6103e8826114c49190611ecc565b10159150505b9392505050565b6040518060800160405280600081526020016000815260200160008152602001600081525090565b60405180606001604052806000600681111561151857611517611994565b5b815260200160008019168152602001600081525090565b6000604051905090565b600080fd5b600080fd5b600080fd5b6000601f19601f8301169050919050565b7f4e487b7100000000000000000000000000000000000000000000000000000000600052604160045260246000fd5b61159182611548565b810181811067ffffffffffffffff821117156115b0576115af611559565b5b80604052505050565b60006115c361152f565b90506115cf8282611588565b919050565b600073ffffffffffffffffffffffffffffffffffffffff82169050919050565b60006115ff826115d4565b9050919050565b61160f816115f4565b811461161a57600080fd5b50565b60008135905061162c81611606565b92915050565b6000819050919050565b61164581611632565b811461165057600080fd5b50565b6000813590506116628161163c565b92915050565b6000610180828403121561167f5761167e611543565b5b61168a6101806115b9565b9050600061169a8482850161161d565b60008301525060206116ae8482850161161d565b60208301525060406116c28482850161161d565b60408301525060606116d68482850161161d565b60608301525060806116ea8482850161161d565b60808301525060a06116fe84828501611653565b60a08301525060c061171284828501611653565b60c08301525060e061172684828501611653565b60e08301525061010061173b84828501611653565b6101008301525061012061175184828501611653565b6101208301525061014061176784828501611653565b6101408301525061016061177d84828501611653565b6101608301525092915050565b600080fd5b600080fd5b600067ffffffffffffffff8211156117af576117ae611559565b5b6117b882611548565b9050602081019050919050565b82818337600083830152505050565b60006117e76117e284611794565b6115b9565b9050828152602081018484840111156118035761180261178f565b5b61180e8482856117c5565b509392505050565b600082601f83011261182b5761182a61178a565b5b813561183b8482602086016117d4565b91505092915050565b600080600080610340858703121561185f5761185e611539565b5b600061186d87828801611668565b94505061018061187f87828801611668565b93505061030085013567ffffffffffffffff8111156118a1576118a061153e565b5b6118ad87828801611816565b92505061032085013567ffffffffffffffff8111156118cf576118ce61153e565b5b6118db87828801611816565b91505092959194509250565b6118f081611632565b82525050565b60808201600082015161190c60008501826118e7565b50602082015161191f60208501826118e7565b50604082015161193260408501826118e7565b50606082015161194560608501826118e7565b50505050565b600060808201905061196060008301846118f6565b92915050565b6000610180828403121561197d5761197c611539565b5b600061198b84828501611668565b91505092915050565b7f4e487b7100000000000000000000000000000000000000000000000000000000600052602160045260246000fd5b600781106119d4576119d3611994565b5b50565b60008190506119e5826119c3565b919050565b60006119f5826119d7565b9050919050565b611a05816119ea565b82525050565b6000819050919050565b611a1e81611a0b565b82525050565b606082016000820151611a3a60008501826119fc565b506020820151611a4d6020850182611a15565b506040820151611a6060408501826118e7565b50505050565b6000606082019050611a7b6000830184611a24565b92915050565b611a8a81611a0b565b8114611a9557600080fd5b50565b600081359050611aa781611a81565b92915050565b600060208284031215611ac357611ac2611539565b5b6000611ad184828501611a98565b91505092915050565b611ae381611632565b82525050565b6000602082019050611afe6000830184611ada565b92915050565b60008115159050919050565b611b1981611b04565b82525050565b6000602082019050611b346000830184611b10565b92915050565b6000806101a08385031215611b5257611b51611539565b5b6000611b6085828601611668565b92505061018083013567ffffffffffffffff811115611b8257611b8161153e565b5b611b8e85828601611816565b9150509250929050565b600082825260208201905092915050565b7f6d69736d61746368656420746f6b656e73000000000000000000000000000000600082015250565b6000611bdf601183611b98565b9150611bea82611ba9565b602082019050919050565b60006020820190508181036000830152611c0e81611bd2565b9050919050565b7f6d616b65722072656c61796572206d69736d6174636800000000000000000000600082015250565b6000611c4b601683611b98565b9150611c5682611c15565b602082019050919050565b60006020820190508181036000830152611c7a81611c3e565b9050919050565b7f74616b65722072656c61796572206d69736d6174636800000000000000000000600082015250565b6000611cb7601683611b98565b9150611cc282611c81565b602082019050919050565b60006020820190508181036000830152611ce681611caa565b9050919050565b7f74616b6572206f7264657220737461747573206e6f742046696c6c61626c6500600082015250565b6000611d23601f83611b98565b9150611d2e82611ced565b602082019050919050565b60006020820190508181036000830152611d5281611d16565b9050919050565b7f6d616b6572206f7264657220737461747573206e6f742046696c6c61626c6500600082015250565b6000611d8f601f83611b98565b9150611d9a82611d59565b602082019050919050565b60006020820190508181036000830152611dbe81611d82565b9050919050565b7f696e76616c69642074616b6572207369676e6174757265000000000000000000600082015250565b6000611dfb601783611b98565b9150611e0682611dc5565b602082019050919050565b60006020820190508181036000830152611e2a81611dee565b9050919050565b7f696e76616c6964206d616b6572207369676e6174757265000000000000000000600082015250565b6000611e67601783611b98565b9150611e7282611e31565b602082019050919050565b60006020820190508181036000830152611e9681611e5a565b9050919050565b7f4e487b7100000000000000000000000000000000000000000000000000000000600052601160045260246000fd5b6000611ed782611632565b9150611ee283611632565b9250817fffffffffffffffffffffffffffffffffffffffffffffffffffffffffffffffff0483118215151615611f1b57611f1a611e9d565b5b828202905092915050565b7f6e6f742070726f66697461626c65207370726561640000000000000000000000600082015250565b6000611f5c601583611b98565b9150611f6782611f26565b602082019050919050565b60006020820190508181036000830152611f8b81611f4f565b9050919050565b7f4e487b7100000000000000000000000000000000000000000000000000000000600052603260045260246000fd5b611fca81611a0b565b82525050565b600060ff82169050919050565b611fe681611fd0565b82525050565b60006080820190506120016000830187611fc1565b61200e6020830186611fdd565b61201b6040830185611fc1565b6120286060830184611fc1565b95945050505050565b7f6f6e6c792075736572206d61792063616e63656c206f72646572000000000000600082015250565b6000612067601a83611b98565b915061207282612031565b602082019050919050565b600060208201905081810360008301526120968161205a565b9050919050565b60006120a882611632565b91506120b383611632565b9250828210156120c6576120c5611e9d565b5b828203905092915050565b60006120dc82611632565b91506120e783611632565b9250827fffffffffffffffffffffffffffffffffffffffffffffffffffffffffffffffff0382111561211c5761211b611e9d565b5b828201905092915050565b612130816115f4565b82525050565b600060208201905061214b6000830184612127565b92915050565b6000815190506121608161163c565b92915050565b60006020828403121561217c5761217b611539565b5b600061218a84828501612151565b91505092915050565b7f74616b6572206f72646572206e6f7420656e6f7567682062616c616e63650000600082015250565b60006121c9601e83611b98565b91506121d482612193565b602082019050919050565b600060208201905081810360008301526121f8816121bc565b9050919050565b7f6d616b6572206f72646572206e6f7420656e6f7567682062616c616e63650000600082015250565b6000612235601e83611b98565b9150612240826121ff565b602082019050919050565b6000602082019050818103600083015261226481612228565b9050919050565b60006060820190506122806000830186612127565b61228d6020830185612127565b61229a6040830184611ada565b949350505050565b6122ab81611b04565b81146122b657600080fd5b50565b6000815190506122c8816122a2565b92915050565b6000602082840312156122e4576122e3611539565b5b60006122f2848285016122b9565b91505092915050565b7f74616b6572206f72646572206e6f7420656e6f7567682062616c616e6365206660008201527f6f72206665650000000000000000000000000000000000000000000000000000602082015250565b6000612357602683611b98565b9150612362826122fb565b604082019050919050565b600060208201905081810360008301526123868161234a565b9050919050565b7f6d616b6572206f72646572206e6f7420656e6f7567682062616c616e6365206660008201527f6f72206665650000000000000000000000000000000000000000000000000000602082015250565b60006123e9602683611b98565b91506123f48261238d565b604082019050919050565b60006020820190508181036000830152612418816123dc565b9050919050565b600081519050919050565b600081905092915050565b60005b83811015612453578082015181840152602081019050612438565b83811115612462576000848401525b50505050565b60006124738261241f565b61247d818561242a565b935061248d818560208601612435565b80840191505092915050565b60006124a58285612468565b91506124b18284612468565b91508190509392505050565b600081905092915050565b7f1901000000000000000000000000000000000000000000000000000000000000600082015250565b60006124fe6002836124bd565b9150612509826124c8565b600282019050919050565b6000819050919050565b61252f61252a82611a0b565b612514565b82525050565b6000612540826124f1565b915061254c828561251e565b60208201915061255c828461251e565b6020820191508190509392505050565b7f42797465734c69623a206c656e67746800000000000000000000000000000000600082015250565b60006125a2601083611b98565b91506125ad8261256c565b602082019050919050565b600060208201905081810360008301526125d181612595565b9050919050565b7f666c6f6f7220726f756e64696e67206572726f72203e3d20302e312500000000600082015250565b600061260e601c83611b98565b9150612619826125d8565b602082019050919050565b6000602082019050818103600083015261263d81612601565b9050919050565b7f4e487b7100000000000000000000000000000000000000000000000000000000600052601260045260246000fd5b600061267e82611632565b915061268983611632565b92508261269957612698612644565b5b828204905092915050565b600060c0820190506126b96000830189611fc1565b6126c66020830188612127565b6126d36040830187612127565b6126e06060830186612127565b6126ed6080830185612127565b6126fa60a0830184612127565b979650505050505050565b600060e08201905061271a600083018a611ada565b6127276020830189611ada565b6127346040830188611ada565b6127416060830187611ada565b61274e6080830186611ada565b61275b60a0830185611ada565b61276860c0830184611ada565b98975050505050505050565b7f6572726f722064656e6f6d696e61746f72206973207a65726f00000000000000600082015250565b60006127aa601983611b98565b91506127b582612774565b602082019050919050565b600060208201905081810360008301526127d98161279d565b905091905056fea264697066735822122046f6742b3953e79a6112c56e782dd439bb2f1244432e852e1d7190e7f845d08b64736f6c634300080a0033",
  "linkReferences": {},
  "deployedLinkReferences": {}
}