{
  "_format": "hh-sol-artifact-1",
  "contractName": "Exchange",
  "sourceName": "contracts/Exchange.sol",
  "abi": [
    {
      "inputs": [
        {
          "components": [
            {
              "internalType": "address",
              "name": "makerAddress",
              "type": "address"
            },
            {
              "internalType": "address",
              "name": "makerToken",
              "type": "address"
            },
            {
              "internalType": "address",
              "name": "takerToken",
              "type": "address"
            },
            {
              "internalType": "address",
              "name": "feeRecipientAddress",
              "type": "address"
            },
            {
              "internalType": "uint256",
              "name": "makerAssetAmount",
              "type": "uint256"
            },
            {
              "internalType": "uint256",
              "name": "takerAssetAmount",
              "type": "uint256"
            },
            {
              "internalType": "uint256",
              "name": "makerVolumeFee",
              "type": "uint256"
            },
            {
              "internalType": "uint256",
              "name": "takerVolumeFee",
              "type": "uint256"
            },
            {
              "internalType": "uint256",
              "name": "gasFee",
              "type": "uint256"
            },
            {
              "internalType": "uint256",
              "name": "expirationTimeSeconds",
              "type": "uint256"
            },
            {
              "internalType": "uint256",
              "name": "salt",
              "type": "uint256"
            }
          ],
          "internalType": "struct LibOrder.Order",
          "name": "order",
          "type": "tuple"
        }
      ],
      "name": "cancelOrder",
      "outputs": [],
      "stateMutability": "nonpayable",
      "type": "function"
    },
    {
      "inputs": [
        {
          "internalType": "bytes32",
          "name": "",
          "type": "bytes32"
        }
      ],
      "name": "cancelled",
      "outputs": [
        {
          "internalType": "bool",
          "name": "",
          "type": "bool"
        }
      ],
      "stateMutability": "view",
      "type": "function"
    },
    {
      "inputs": [
        {
          "internalType": "bytes32",
          "name": "",
          "type": "bytes32"
        }
      ],
      "name": "filled",
      "outputs": [
        {
          "internalType": "uint256",
          "name": "",
          "type": "uint256"
        }
      ],
      "stateMutability": "view",
      "type": "function"
    },
    {
      "inputs": [
        {
          "components": [
            {
              "internalType": "address",
              "name": "makerAddress",
              "type": "address"
            },
            {
              "internalType": "address",
              "name": "makerToken",
              "type": "address"
            },
            {
              "internalType": "address",
              "name": "takerToken",
              "type": "address"
            },
            {
              "internalType": "address",
              "name": "feeRecipientAddress",
              "type": "address"
            },
            {
              "internalType": "uint256",
              "name": "makerAssetAmount",
              "type": "uint256"
            },
            {
              "internalType": "uint256",
              "name": "takerAssetAmount",
              "type": "uint256"
            },
            {
              "internalType": "uint256",
              "name": "makerVolumeFee",
              "type": "uint256"
            },
            {
              "internalType": "uint256",
              "name": "takerVolumeFee",
              "type": "uint256"
            },
            {
              "internalType": "uint256",
              "name": "gasFee",
              "type": "uint256"
            },
            {
              "internalType": "uint256",
              "name": "expirationTimeSeconds",
              "type": "uint256"
            },
            {
              "internalType": "uint256",
              "name": "salt",
              "type": "uint256"
            }
          ],
          "internalType": "struct LibOrder.Order",
          "name": "order",
          "type": "tuple"
        }
      ],
      "name": "getOrderInfo",
      "outputs": [
        {
          "components": [
            {
              "internalType": "enum LibOrder.OrderStatus",
              "name": "orderStatus",
              "type": "uint8"
            },
            {
              "internalType": "bytes32",
              "name": "orderHash",
              "type": "bytes32"
            },
            {
              "internalType": "uint256",
              "name": "orderTakerAssetFilledAmount",
              "type": "uint256"
            }
          ],
          "internalType": "struct LibOrder.OrderInfo",
          "name": "orderInfo",
          "type": "tuple"
        }
      ],
      "stateMutability": "view",
      "type": "function"
    },
    {
      "inputs": [
        {
          "components": [
            {
              "internalType": "address",
              "name": "makerAddress",
              "type": "address"
            },
            {
              "internalType": "address",
              "name": "makerToken",
              "type": "address"
            },
            {
              "internalType": "address",
              "name": "takerToken",
              "type": "address"
            },
            {
              "internalType": "address",
              "name": "feeRecipientAddress",
              "type": "address"
            },
            {
              "internalType": "uint256",
              "name": "makerAssetAmount",
              "type": "uint256"
            },
            {
              "internalType": "uint256",
              "name": "takerAssetAmount",
              "type": "uint256"
            },
            {
              "internalType": "uint256",
              "name": "makerVolumeFee",
              "type": "uint256"
            },
            {
              "internalType": "uint256",
              "name": "takerVolumeFee",
              "type": "uint256"
            },
            {
              "internalType": "uint256",
              "name": "gasFee",
              "type": "uint256"
            },
            {
              "internalType": "uint256",
              "name": "expirationTimeSeconds",
              "type": "uint256"
            },
            {
              "internalType": "uint256",
              "name": "salt",
              "type": "uint256"
            }
          ],
          "internalType": "struct LibOrder.Order",
          "name": "order",
          "type": "tuple"
        },
        {
          "internalType": "bytes",
          "name": "signature",
          "type": "bytes"
        }
      ],
      "name": "isValidSignature",
      "outputs": [
        {
          "internalType": "bool",
          "name": "isValid",
          "type": "bool"
        }
      ],
      "stateMutability": "pure",
      "type": "function"
    },
    {
      "inputs": [
        {
          "components": [
            {
              "internalType": "address",
              "name": "makerAddress",
              "type": "address"
            },
            {
              "internalType": "address",
              "name": "makerToken",
              "type": "address"
            },
            {
              "internalType": "address",
              "name": "takerToken",
              "type": "address"
            },
            {
              "internalType": "address",
              "name": "feeRecipientAddress",
              "type": "address"
            },
            {
              "internalType": "uint256",
              "name": "makerAssetAmount",
              "type": "uint256"
            },
            {
              "internalType": "uint256",
              "name": "takerAssetAmount",
              "type": "uint256"
            },
            {
              "internalType": "uint256",
              "name": "makerVolumeFee",
              "type": "uint256"
            },
            {
              "internalType": "uint256",
              "name": "takerVolumeFee",
              "type": "uint256"
            },
            {
              "internalType": "uint256",
              "name": "gasFee",
              "type": "uint256"
            },
            {
              "internalType": "uint256",
              "name": "expirationTimeSeconds",
              "type": "uint256"
            },
            {
              "internalType": "uint256",
              "name": "salt",
              "type": "uint256"
            }
          ],
          "internalType": "struct LibOrder.Order",
          "name": "leftOrder",
          "type": "tuple"
        },
        {
          "components": [
            {
              "internalType": "address",
              "name": "makerAddress",
              "type": "address"
            },
            {
              "internalType": "address",
              "name": "makerToken",
              "type": "address"
            },
            {
              "internalType": "address",
              "name": "takerToken",
              "type": "address"
            },
            {
              "internalType": "address",
              "name": "feeRecipientAddress",
              "type": "address"
            },
            {
              "internalType": "uint256",
              "name": "makerAssetAmount",
              "type": "uint256"
            },
            {
              "internalType": "uint256",
              "name": "takerAssetAmount",
              "type": "uint256"
            },
            {
              "internalType": "uint256",
              "name": "makerVolumeFee",
              "type": "uint256"
            },
            {
              "internalType": "uint256",
              "name": "takerVolumeFee",
              "type": "uint256"
            },
            {
              "internalType": "uint256",
              "name": "gasFee",
              "type": "uint256"
            },
            {
              "internalType": "uint256",
              "name": "expirationTimeSeconds",
              "type": "uint256"
            },
            {
              "internalType": "uint256",
              "name": "salt",
              "type": "uint256"
            }
          ],
          "internalType": "struct LibOrder.Order",
          "name": "rightOrder",
          "type": "tuple"
        },
        {
          "internalType": "bytes",
          "name": "leftSignature",
          "type": "bytes"
        },
        {
          "internalType": "bytes",
          "name": "rightSignature",
          "type": "bytes"
        },
        {
          "internalType": "bool",
          "name": "shouldMaximallyFillOrders",
          "type": "bool"
        }
      ],
      "name": "matchOrders",
      "outputs": [
        {
          "components": [
            {
              "components": [
                {
                  "internalType": "uint256",
                  "name": "makerAssetFilledAmount",
                  "type": "uint256"
                },
                {
                  "internalType": "uint256",
                  "name": "takerAssetFilledAmount",
                  "type": "uint256"
                },
                {
                  "internalType": "uint256",
                  "name": "makerFeePaid",
                  "type": "uint256"
                },
                {
                  "internalType": "uint256",
                  "name": "takerFeePaid",
                  "type": "uint256"
                }
              ],
              "internalType": "struct LibFillResults.FillResults",
              "name": "left",
              "type": "tuple"
            },
            {
              "components": [
                {
                  "internalType": "uint256",
                  "name": "makerAssetFilledAmount",
                  "type": "uint256"
                },
                {
                  "internalType": "uint256",
                  "name": "takerAssetFilledAmount",
                  "type": "uint256"
                },
                {
                  "internalType": "uint256",
                  "name": "makerFeePaid",
                  "type": "uint256"
                },
                {
                  "internalType": "uint256",
                  "name": "takerFeePaid",
                  "type": "uint256"
                }
              ],
              "internalType": "struct LibFillResults.FillResults",
              "name": "right",
              "type": "tuple"
            },
            {
              "internalType": "uint256",
              "name": "profitInLeftMakerAsset",
              "type": "uint256"
            },
            {
              "internalType": "uint256",
              "name": "profitInRightMakerAsset",
              "type": "uint256"
            }
          ],
          "internalType": "struct LibFillResults.MatchedFillResults",
          "name": "matchedFillResults",
          "type": "tuple"
        }
      ],
      "stateMutability": "nonpayable",
      "type": "function"
    }
  ],
  "bytecode": "0x608060405234801561001057600080fd5b506122b4806100206000396000f3fe608060405234801561001057600080fd5b50600436106100625760003560e01c8063288cdc91146100675780632ac126221461009757806356ab98a2146100c757806375abfba5146100e3578063963b1e3414610113578063da7ed80414610143575b600080fd5b610081600480360381019061007c919061140d565b610173565b60405161008e9190611453565b60405180910390f35b6100b160048036038101906100ac919061140d565b61018b565b6040516100be9190611489565b60405180910390f35b6100e160048036038101906100dc91906116cb565b6101ab565b005b6100fd60048036038101906100f891906117b3565b61025d565b60405161010a9190611489565b60405180910390f35b61012d600480360381019061012891906116cb565b61035a565b60405161013a91906118e8565b60405180910390f35b61015d6004803603810190610158919061192f565b610521565b60405161016a9190611a94565b60405180910390f35b60006020528060005260406000206000915090505481565b60016020528060005260406000206000915054906101000a900460ff1681565b806000015173ffffffffffffffffffffffffffffffffffffffff163373ffffffffffffffffffffffffffffffffffffffff161461021d576040517f08c379a000000000000000000000000000000000000000000000000000000000815260040161021490611b0d565b60405180910390fd5b60006102288261035a565b905060018060008360200151815260200190815260200160002060006101000a81548160ff0219169083151502179055505050565b600080610269846107fe565b905060008460000151905060008460008151811061028a57610289611b2d565b5b602001015160f81c60f81b60f81c905060006102b06001876108a990919063ffffffff16565b905060006102c86021886108a990919063ffffffff16565b90506000600186858585604051600081526020016040526040516102ef9493929190611b87565b6020604051602081039080840390855afa158015610311573d6000803e3d6000fd5b5050506020604051035190508473ffffffffffffffffffffffffffffffffffffffff168173ffffffffffffffffffffffffffffffffffffffff1614965050505050505092915050565b610362611331565b61036b8261090a565b8260200183604001828152508281525050506000826080015114156103c0576001816000019060068111156103a3576103a2611811565b5b908160068111156103b7576103b6611811565b5b8152505061051c565b60008260a001511415610403576002816000019060068111156103e6576103e5611811565b5b908160068111156103fa576103f9611811565b5b8152505061051c565b8160a001518160400151106104485760058160000190600681111561042b5761042a611811565b5b9081600681111561043f5761043e611811565b5b8152505061051c565b816101200151421061048a5760048160000190600681111561046d5761046c611811565b5b9081600681111561048157610480611811565b5b8152505061051c565b600160008260200151815260200190815260200160002060009054906101000a900460ff16156104ea576006816000019060068111156104cd576104cc611811565b5b908160068111156104e1576104e0611811565b5b8152505061051c565b60038160000190600681111561050357610502611811565b5b9081600681111561051757610516611811565b5b815250505b919050565b610529611367565b8560400151856020019073ffffffffffffffffffffffffffffffffffffffff16908173ffffffffffffffffffffffffffffffffffffffff16815250508560200151856040019073ffffffffffffffffffffffffffffffffffffffff16908173ffffffffffffffffffffffffffffffffffffffff168152505060006105ac8761035a565b905060006105b98761035a565b9050600360068111156105cf576105ce611811565b5b816000015160068111156105e6576105e5611811565b5b14610626576040517f08c379a000000000000000000000000000000000000000000000000000000000815260040161061d90611c18565b60405180910390fd5b6003600681111561063a57610639611811565b5b8260000151600681111561065157610650611811565b5b14610691576040517f08c379a000000000000000000000000000000000000000000000000000000000815260040161068890611c84565b60405180910390fd5b6106a48160200151868960000151610932565b6106e3576040517f08c379a00000000000000000000000000000000000000000000000000000000081526004016106da90611cf0565b60405180910390fd5b6106f68260200151878a60000151610932565b610735576040517f08c379a000000000000000000000000000000000000000000000000000000000815260040161072c90611d5c565b60405180910390fd5b60003390508760a001518960a0015161074e9190611dab565b88608001518a608001516107629190611dab565b10156107a3576040517f08c379a000000000000000000000000000000000000000000000000000000000815260040161079a90611e51565b60405180910390fd5b6107b889898560400151856040015189610a18565b93506107d08360200151856000015160200151610b4f565b6107e68260200151856020015160200151610b4f565b6107f289898387610b7c565b50505095945050505050565b6000807f59455b9c66ec2b7a460dc0794aef21e45f7590b2a870e30ab4cf5e579763f2d960001b836000015184602001518560400151866060015187608001518860a001518960c001518a60e001518b61010001518c61012001518d610140015160405160200161087a9c9b9a99989796959493929190611e80565b604051602081830303815290604052805190602001209050600061089d82610e08565b90508092505050919050565b600081835110156108ef576040517f08c379a00000000000000000000000000000000000000000000000000000000081526004016108e690611f86565b60405180910390fd5b6020826108fc9190611fa6565b915081830151905092915050565b600080610916836107fe565b9150600080838152602001908152602001600020549050915091565b6000808360008151811061094957610948611b2d565b5b602001015160f81c60f81b60f81c9050600061096f6001866108a990919063ffffffff16565b905060006109876021876108a990919063ffffffff16565b90506000600188858585604051600081526020016040526040516109ae9493929190611b87565b6020604051602081039080840390855afa1580156109d0573d6000803e3d6000fd5b5050506020604051035190508573ffffffffffffffffffffffffffffffffffffffff168173ffffffffffffffffffffffffffffffffffffffff16149450505050509392505050565b610a20611367565b6000848760a00151610a329190611ffc565b90506000610a4988608001518960a0015184610e68565b90506000858860a00151610a5d9190611ffc565b90506000610a7489608001518a60a0015184610e68565b90508515610a9157610a8a8a8a85878587610ed5565b9450610aa2565b610a9f8a8a85878587611037565b94505b610abd8560000151600001518b608001518c60c00151610e68565b85600001516040018181525050610ae58560000151602001518b60a001518c60e00151610e68565b85600001516060018181525050610b0d8560200151600001518a608001518b60c00151610e68565b85602001516040018181525050610b358560200151602001518a60a001518b60e00151610e68565b856020015160600181815250505050505095945050505050565b806000808481526020019081526020016000206000828254610b719190611fa6565b925050819055505050565b826020015173ffffffffffffffffffffffffffffffffffffffff166323b872dd846000015186600001518460000151602001516040518463ffffffff1660e01b8152600401610bcd93929190612030565b6020604051808303816000875af1158015610bec573d6000803e3d6000fd5b505050506040513d601f19601f82011682018060405250810190610c10919061207c565b50836020015173ffffffffffffffffffffffffffffffffffffffff166323b872dd856000015185600001518460200151602001516040518463ffffffff1660e01b8152600401610c6293929190612030565b6020604051808303816000875af1158015610c81573d6000803e3d6000fd5b505050506040513d601f19601f82011682018060405250810190610ca5919061207c565b5060008160200151604001511115610d4d57826020015173ffffffffffffffffffffffffffffffffffffffff166323b872dd846000015185606001518460200151604001516040518463ffffffff1660e01b8152600401610d0893929190612030565b6020604051808303816000875af1158015610d27573d6000803e3d6000fd5b505050506040513d601f19601f82011682018060405250810190610d4b919061207c565b505b6000846101000151826000015160400151610d689190611fa6565b90506000811115610e0157846020015173ffffffffffffffffffffffffffffffffffffffff166323b872dd86600001518760600151846040518463ffffffff1660e01b8152600401610dbc93929190612030565b6020604051808303816000875af1158015610ddb573d6000803e3d6000fd5b505050506040513d601f19601f82011682018060405250810190610dff919061207c565b505b5050505050565b60006040517f190100000000000000000000000000000000000000000000000000000000000081527f20407f43327df678a73f8463a49aff53c8c56eeaa9fb7981e849bec183285248600282015282602282015260428120915050919050565b6000610e75848484611156565b15610eb5576040517f08c379a0000000000000000000000000000000000000000000000000000000008152600401610eac906120f5565b60405180910390fd5b828285610ec29190611dab565b610ecc9190612144565b90509392505050565b610edd611367565b600082861190506000858511905084861115610f4257848360200151600001818152505083836020015160200181815250508483600001516020018181525050610f3089608001518a60a0015187610e68565b83600001516000018181525050610fd3565b86841115610f995786836000015160000181815250508583600001516020018181525050610f7988608001518960a00151896111f5565b836020015160000181815250508683602001516020018181525050610fd2565b86836000015160000181815250508583600001516020018181525050848360200151600001818152505083836020015160200181815250505b5b8115610fff57826020015160200151836000015160000151610ff59190611ffc565b8360400181815250505b801561102b578260000151602001518360200151600001516110219190611ffc565b8360600181815250505b50509695505050505050565b61103f611367565b828411156110965782816020015160000181815250508181602001516020018181525050828160000151602001818152505061108487608001518860a0015185610e68565b81600001516000018181525050611127565b828410156110ed578481600001516000018181525050838160000151602001818152505083816020015160000181815250506110db8660a001518760800151866111f5565b81602001516020018181525050611126565b84816000015160000181815250508381600001516020018181525050828160200151600001818152505081816020015160200181815250505b5b8060200151602001518160000151600001516111439190611ffc565b8160400181815250509695505050505050565b60008083141561119b576040517f08c379a0000000000000000000000000000000000000000000000000000000008152600401611192906121c1565b60405180910390fd5b60008214806111aa5750600084145b156111b857600090506111ee565b600083806111c9576111c8612115565b5b858409905082856111da9190611dab565b6103e8826111e89190611dab565b10159150505b9392505050565b6000611202848484611279565b15611242576040517f08c379a00000000000000000000000000000000000000000000000000000000081526004016112399061222d565b60405180910390fd5b826001846112509190611ffc565b8361125b9190611fa6565b856112669190611dab565b6112709190612144565b90509392505050565b6000808314156112be576040517f08c379a00000000000000000000000000000000000000000000000000000000081526004016112b5906121c1565b60405180910390fd5b60008214806112cd5750600084145b156112db576000905061132a565b600083806112ec576112eb612115565b5b85840990508381856112fe9190611ffc565b611308919061224d565b905082856113169190611dab565b6103e8826113249190611dab565b10159150505b9392505050565b6040518060600160405280600060068111156113505761134f611811565b5b815260200160008019168152602001600081525090565b604051806080016040528061137a61139b565b815260200161138761139b565b815260200160008152602001600081525090565b6040518060800160405280600081526020016000815260200160008152602001600081525090565b6000604051905090565b600080fd5b600080fd5b6000819050919050565b6113ea816113d7565b81146113f557600080fd5b50565b600081359050611407816113e1565b92915050565b600060208284031215611423576114226113cd565b5b6000611431848285016113f8565b91505092915050565b6000819050919050565b61144d8161143a565b82525050565b60006020820190506114686000830184611444565b92915050565b60008115159050919050565b6114838161146e565b82525050565b600060208201905061149e600083018461147a565b92915050565b600080fd5b6000601f19601f8301169050919050565b7f4e487b7100000000000000000000000000000000000000000000000000000000600052604160045260246000fd5b6114f2826114a9565b810181811067ffffffffffffffff82111715611511576115106114ba565b5b80604052505050565b60006115246113c3565b905061153082826114e9565b919050565b600073ffffffffffffffffffffffffffffffffffffffff82169050919050565b600061156082611535565b9050919050565b61157081611555565b811461157b57600080fd5b50565b60008135905061158d81611567565b92915050565b61159c8161143a565b81146115a757600080fd5b50565b6000813590506115b981611593565b92915050565b600061016082840312156115d6576115d56114a4565b5b6115e161016061151a565b905060006115f18482850161157e565b60008301525060206116058482850161157e565b60208301525060406116198482850161157e565b604083015250606061162d8482850161157e565b6060830152506080611641848285016115aa565b60808301525060a0611655848285016115aa565b60a08301525060c0611669848285016115aa565b60c08301525060e061167d848285016115aa565b60e083015250610100611692848285016115aa565b610100830152506101206116a8848285016115aa565b610120830152506101406116be848285016115aa565b6101408301525092915050565b600061016082840312156116e2576116e16113cd565b5b60006116f0848285016115bf565b91505092915050565b600080fd5b600080fd5b600067ffffffffffffffff82111561171e5761171d6114ba565b5b611727826114a9565b9050602081019050919050565b82818337600083830152505050565b600061175661175184611703565b61151a565b905082815260208101848484011115611772576117716116fe565b5b61177d848285611734565b509392505050565b600082601f83011261179a576117996116f9565b5b81356117aa848260208601611743565b91505092915050565b60008061018083850312156117cb576117ca6113cd565b5b60006117d9858286016115bf565b92505061016083013567ffffffffffffffff8111156117fb576117fa6113d2565b5b61180785828601611785565b9150509250929050565b7f4e487b7100000000000000000000000000000000000000000000000000000000600052602160045260246000fd5b6007811061185157611850611811565b5b50565b600081905061186282611840565b919050565b600061187282611854565b9050919050565b61188281611867565b82525050565b611891816113d7565b82525050565b6118a08161143a565b82525050565b6060820160008201516118bc6000850182611879565b5060208201516118cf6020850182611888565b5060408201516118e26040850182611897565b50505050565b60006060820190506118fd60008301846118a6565b92915050565b61190c8161146e565b811461191757600080fd5b50565b60008135905061192981611903565b92915050565b6000806000806000610320868803121561194c5761194b6113cd565b5b600061195a888289016115bf565b95505061016061196c888289016115bf565b9450506102c086013567ffffffffffffffff81111561198e5761198d6113d2565b5b61199a88828901611785565b9350506102e086013567ffffffffffffffff8111156119bc576119bb6113d2565b5b6119c888828901611785565b9250506103006119da8882890161191a565b9150509295509295909350565b6080820160008201516119fd6000850182611897565b506020820151611a106020850182611897565b506040820151611a236040850182611897565b506060820151611a366060850182611897565b50505050565b61014082016000820151611a5360008501826119e7565b506020820151611a6660808501826119e7565b506040820151611a7a610100850182611897565b506060820151611a8e610120850182611897565b50505050565b600061014082019050611aaa6000830184611a3c565b92915050565b600082825260208201905092915050565b7f6f6e6c79206d616b6572206d61792063616e63656c206f726465720000000000600082015250565b6000611af7601b83611ab0565b9150611b0282611ac1565b602082019050919050565b60006020820190508181036000830152611b2681611aea565b9050919050565b7f4e487b7100000000000000000000000000000000000000000000000000000000600052603260045260246000fd5b611b65816113d7565b82525050565b600060ff82169050919050565b611b8181611b6b565b82525050565b6000608082019050611b9c6000830187611b5c565b611ba96020830186611b78565b611bb66040830185611b5c565b611bc36060830184611b5c565b95945050505050565b7f7269676874206f7264657220737461747573206e6f742046696c6c61626c6500600082015250565b6000611c02601f83611ab0565b9150611c0d82611bcc565b602082019050919050565b60006020820190508181036000830152611c3181611bf5565b9050919050565b7f6c656674206f7264657220737461747573206e6f742046696c6c61626c650000600082015250565b6000611c6e601e83611ab0565b9150611c7982611c38565b602082019050919050565b60006020820190508181036000830152611c9d81611c61565b9050919050565b7f696e76616c6964207269676874207369676e6174757265000000000000000000600082015250565b6000611cda601783611ab0565b9150611ce582611ca4565b602082019050919050565b60006020820190508181036000830152611d0981611ccd565b9050919050565b7f696e76616c6964206c656674207369676e617475726500000000000000000000600082015250565b6000611d46601683611ab0565b9150611d5182611d10565b602082019050919050565b60006020820190508181036000830152611d7581611d39565b9050919050565b7f4e487b7100000000000000000000000000000000000000000000000000000000600052601160045260246000fd5b6000611db68261143a565b9150611dc18361143a565b9250817fffffffffffffffffffffffffffffffffffffffffffffffffffffffffffffffff0483118215151615611dfa57611df9611d7c565b5b828202905092915050565b7f6e6f742070726f66697461626c65207370726561640000000000000000000000600082015250565b6000611e3b601583611ab0565b9150611e4682611e05565b602082019050919050565b60006020820190508181036000830152611e6a81611e2e565b9050919050565b611e7a81611555565b82525050565b600061018082019050611e96600083018f611b5c565b611ea3602083018e611e71565b611eb0604083018d611e71565b611ebd606083018c611e71565b611eca608083018b611e71565b611ed760a083018a611444565b611ee460c0830189611444565b611ef160e0830188611444565b611eff610100830187611444565b611f0d610120830186611444565b611f1b610140830185611444565b611f29610160830184611444565b9d9c50505050505050505050505050565b7f42797465734c69623a206c656e67746800000000000000000000000000000000600082015250565b6000611f70601083611ab0565b9150611f7b82611f3a565b602082019050919050565b60006020820190508181036000830152611f9f81611f63565b9050919050565b6000611fb18261143a565b9150611fbc8361143a565b9250827fffffffffffffffffffffffffffffffffffffffffffffffffffffffffffffffff03821115611ff157611ff0611d7c565b5b828201905092915050565b60006120078261143a565b91506120128361143a565b92508282101561202557612024611d7c565b5b828203905092915050565b60006060820190506120456000830186611e71565b6120526020830185611e71565b61205f6040830184611444565b949350505050565b60008151905061207681611903565b92915050565b600060208284031215612092576120916113cd565b5b60006120a084828501612067565b91505092915050565b7f666c6f6f7220726f756e64696e67206572726f72203e3d20302e312500000000600082015250565b60006120df601c83611ab0565b91506120ea826120a9565b602082019050919050565b6000602082019050818103600083015261210e816120d2565b9050919050565b7f4e487b7100000000000000000000000000000000000000000000000000000000600052601260045260246000fd5b600061214f8261143a565b915061215a8361143a565b92508261216a57612169612115565b5b828204905092915050565b7f6572726f722064656e6f6d696e61746f72206973207a65726f00000000000000600082015250565b60006121ab601983611ab0565b91506121b682612175565b602082019050919050565b600060208201905081810360008301526121da8161219e565b9050919050565b7f6365696c20726f756e64696e67206572726f72203e3d20302e31250000000000600082015250565b6000612217601b83611ab0565b9150612222826121e1565b602082019050919050565b600060208201905081810360008301526122468161220a565b9050919050565b60006122588261143a565b91506122638361143a565b92508261227357612272612115565b5b82820690509291505056fea2646970667358221220449ac07d3fd3db73a4ad0b5aaaef0f33c83beae0038dc72142566e780df71beb64736f6c634300080a0033",
  "linkReferences": {},
  "deployedLinkReferences": {}
}