{
  "_format": "hh-sol-artifact-1",
  "contractName": "Exchange",
  "sourceName": "contracts/Exchange.sol",
  "abi": [
    {
      "inputs": [
        {
          "components": [
            {
              "internalType": "address",
              "name": "makerAddress",
              "type": "address"
            },
            {
              "internalType": "address",
              "name": "makerToken",
              "type": "address"
            },
            {
              "internalType": "address",
              "name": "takerToken",
              "type": "address"
            },
            {
              "internalType": "address",
              "name": "feeRecipientAddress",
              "type": "address"
            },
            {
              "internalType": "uint256",
              "name": "makerAssetAmount",
              "type": "uint256"
            },
            {
              "internalType": "uint256",
              "name": "takerAssetAmount",
              "type": "uint256"
            },
            {
              "internalType": "uint256",
              "name": "makerFee",
              "type": "uint256"
            },
            {
              "internalType": "uint256",
              "name": "takerFee",
              "type": "uint256"
            }
          ],
          "internalType": "struct LibOrder.Order",
          "name": "order",
          "type": "tuple"
        }
      ],
      "name": "cancelOrder",
      "outputs": [],
      "stateMutability": "nonpayable",
      "type": "function"
    },
    {
      "inputs": [
        {
          "internalType": "bytes32",
          "name": "",
          "type": "bytes32"
        }
      ],
      "name": "cancelled",
      "outputs": [
        {
          "internalType": "bool",
          "name": "",
          "type": "bool"
        }
      ],
      "stateMutability": "view",
      "type": "function"
    },
    {
      "inputs": [
        {
          "internalType": "bytes32",
          "name": "",
          "type": "bytes32"
        }
      ],
      "name": "filled",
      "outputs": [
        {
          "internalType": "uint256",
          "name": "",
          "type": "uint256"
        }
      ],
      "stateMutability": "view",
      "type": "function"
    },
    {
      "inputs": [
        {
          "components": [
            {
              "internalType": "address",
              "name": "makerAddress",
              "type": "address"
            },
            {
              "internalType": "address",
              "name": "makerToken",
              "type": "address"
            },
            {
              "internalType": "address",
              "name": "takerToken",
              "type": "address"
            },
            {
              "internalType": "address",
              "name": "feeRecipientAddress",
              "type": "address"
            },
            {
              "internalType": "uint256",
              "name": "makerAssetAmount",
              "type": "uint256"
            },
            {
              "internalType": "uint256",
              "name": "takerAssetAmount",
              "type": "uint256"
            },
            {
              "internalType": "uint256",
              "name": "makerFee",
              "type": "uint256"
            },
            {
              "internalType": "uint256",
              "name": "takerFee",
              "type": "uint256"
            }
          ],
          "internalType": "struct LibOrder.Order",
          "name": "order",
          "type": "tuple"
        }
      ],
      "name": "getOrderInfo",
      "outputs": [
        {
          "components": [
            {
              "internalType": "enum LibOrder.OrderStatus",
              "name": "orderStatus",
              "type": "uint8"
            },
            {
              "internalType": "bytes32",
              "name": "orderHash",
              "type": "bytes32"
            },
            {
              "internalType": "uint256",
              "name": "orderTakerAssetFilledAmount",
              "type": "uint256"
            }
          ],
          "internalType": "struct LibOrder.OrderInfo",
          "name": "orderInfo",
          "type": "tuple"
        }
      ],
      "stateMutability": "view",
      "type": "function"
    },
    {
      "inputs": [
        {
          "components": [
            {
              "internalType": "address",
              "name": "makerAddress",
              "type": "address"
            },
            {
              "internalType": "address",
              "name": "makerToken",
              "type": "address"
            },
            {
              "internalType": "address",
              "name": "takerToken",
              "type": "address"
            },
            {
              "internalType": "address",
              "name": "feeRecipientAddress",
              "type": "address"
            },
            {
              "internalType": "uint256",
              "name": "makerAssetAmount",
              "type": "uint256"
            },
            {
              "internalType": "uint256",
              "name": "takerAssetAmount",
              "type": "uint256"
            },
            {
              "internalType": "uint256",
              "name": "makerFee",
              "type": "uint256"
            },
            {
              "internalType": "uint256",
              "name": "takerFee",
              "type": "uint256"
            }
          ],
          "internalType": "struct LibOrder.Order",
          "name": "order",
          "type": "tuple"
        },
        {
          "internalType": "bytes",
          "name": "signature",
          "type": "bytes"
        }
      ],
      "name": "isValidSignature",
      "outputs": [
        {
          "internalType": "bool",
          "name": "isValid",
          "type": "bool"
        }
      ],
      "stateMutability": "pure",
      "type": "function"
    },
    {
      "inputs": [
        {
          "components": [
            {
              "internalType": "address",
              "name": "makerAddress",
              "type": "address"
            },
            {
              "internalType": "address",
              "name": "makerToken",
              "type": "address"
            },
            {
              "internalType": "address",
              "name": "takerToken",
              "type": "address"
            },
            {
              "internalType": "address",
              "name": "feeRecipientAddress",
              "type": "address"
            },
            {
              "internalType": "uint256",
              "name": "makerAssetAmount",
              "type": "uint256"
            },
            {
              "internalType": "uint256",
              "name": "takerAssetAmount",
              "type": "uint256"
            },
            {
              "internalType": "uint256",
              "name": "makerFee",
              "type": "uint256"
            },
            {
              "internalType": "uint256",
              "name": "takerFee",
              "type": "uint256"
            }
          ],
          "internalType": "struct LibOrder.Order",
          "name": "leftOrder",
          "type": "tuple"
        },
        {
          "components": [
            {
              "internalType": "address",
              "name": "makerAddress",
              "type": "address"
            },
            {
              "internalType": "address",
              "name": "makerToken",
              "type": "address"
            },
            {
              "internalType": "address",
              "name": "takerToken",
              "type": "address"
            },
            {
              "internalType": "address",
              "name": "feeRecipientAddress",
              "type": "address"
            },
            {
              "internalType": "uint256",
              "name": "makerAssetAmount",
              "type": "uint256"
            },
            {
              "internalType": "uint256",
              "name": "takerAssetAmount",
              "type": "uint256"
            },
            {
              "internalType": "uint256",
              "name": "makerFee",
              "type": "uint256"
            },
            {
              "internalType": "uint256",
              "name": "takerFee",
              "type": "uint256"
            }
          ],
          "internalType": "struct LibOrder.Order",
          "name": "rightOrder",
          "type": "tuple"
        },
        {
          "internalType": "bytes",
          "name": "leftSignature",
          "type": "bytes"
        },
        {
          "internalType": "bytes",
          "name": "rightSignature",
          "type": "bytes"
        },
        {
          "internalType": "bool",
          "name": "shouldMaximallyFillOrders",
          "type": "bool"
        }
      ],
      "name": "matchOrders",
      "outputs": [
        {
          "components": [
            {
              "components": [
                {
                  "internalType": "uint256",
                  "name": "makerAssetFilledAmount",
                  "type": "uint256"
                },
                {
                  "internalType": "uint256",
                  "name": "takerAssetFilledAmount",
                  "type": "uint256"
                },
                {
                  "internalType": "uint256",
                  "name": "makerFeePaid",
                  "type": "uint256"
                },
                {
                  "internalType": "uint256",
                  "name": "takerFeePaid",
                  "type": "uint256"
                }
              ],
              "internalType": "struct LibFillResults.FillResults",
              "name": "left",
              "type": "tuple"
            },
            {
              "components": [
                {
                  "internalType": "uint256",
                  "name": "makerAssetFilledAmount",
                  "type": "uint256"
                },
                {
                  "internalType": "uint256",
                  "name": "takerAssetFilledAmount",
                  "type": "uint256"
                },
                {
                  "internalType": "uint256",
                  "name": "makerFeePaid",
                  "type": "uint256"
                },
                {
                  "internalType": "uint256",
                  "name": "takerFeePaid",
                  "type": "uint256"
                }
              ],
              "internalType": "struct LibFillResults.FillResults",
              "name": "right",
              "type": "tuple"
            },
            {
              "internalType": "uint256",
              "name": "profitInLeftMakerAsset",
              "type": "uint256"
            },
            {
              "internalType": "uint256",
              "name": "profitInRightMakerAsset",
              "type": "uint256"
            }
          ],
          "internalType": "struct LibFillResults.MatchedFillResults",
          "name": "matchedFillResults",
          "type": "tuple"
        }
      ],
      "stateMutability": "nonpayable",
      "type": "function"
    }
  ],
  "bytecode": "0x608060405234801561001057600080fd5b506122d6806100206000396000f3fe608060405234801561001057600080fd5b50600436106100625760003560e01c8063288cdc91146100675780632ac126221461009757806362dc5cd4146100c7578063a47479cf146100f7578063e15b27c414610127578063e1f9ceab14610143575b600080fd5b610081600480360381019061007c919061149e565b610173565b60405161008e91906114e4565b60405180910390f35b6100b160048036038101906100ac919061149e565b61018b565b6040516100be919061151a565b60405180910390f35b6100e160048036038101906100dc91906117d4565b6101ab565b6040516100ee919061151a565b60405180910390f35b610111600480360381019061010c919061185e565b6102a8565b60405161011e91906119d2565b60405180910390f35b610141600480360381019061013c91906119ee565b610585565b005b61015d600480360381019061015891906119ee565b610637565b60405161016a9190611ae4565b60405180910390f35b60006020528060005260406000206000915090505481565b60016020528060005260406000206000915054906101000a900460ff1681565b6000806101b7846107bc565b90506000846000015190506000846000815181106101d8576101d7611aff565b5b602001015160f81c60f81b60f81c905060006101fe60018761085290919063ffffffff16565b9050600061021660218861085290919063ffffffff16565b905060006001868585856040516000815260200160405260405161023d9493929190611b59565b6020604051602081039080840390855afa15801561025f573d6000803e3d6000fd5b5050506020604051035190508473ffffffffffffffffffffffffffffffffffffffff168173ffffffffffffffffffffffffffffffffffffffff1614965050505050505092915050565b6102b06113c2565b8560400151856020019073ffffffffffffffffffffffffffffffffffffffff16908173ffffffffffffffffffffffffffffffffffffffff16815250508560200151856040019073ffffffffffffffffffffffffffffffffffffffff16908173ffffffffffffffffffffffffffffffffffffffff1681525050600061033387610637565b9050600061034087610637565b90506003600681111561035657610355611a1c565b5b8160000151600681111561036d5761036c611a1c565b5b146103ad576040517f08c379a00000000000000000000000000000000000000000000000000000000081526004016103a490611bfb565b60405180910390fd5b600360068111156103c1576103c0611a1c565b5b826000015160068111156103d8576103d7611a1c565b5b14610418576040517f08c379a000000000000000000000000000000000000000000000000000000000815260040161040f90611c67565b60405180910390fd5b61042b81602001518689600001516108b3565b61046a576040517f08c379a000000000000000000000000000000000000000000000000000000000815260040161046190611cd3565b60405180910390fd5b61047d8260200151878a600001516108b3565b6104bc576040517f08c379a00000000000000000000000000000000000000000000000000000000081526004016104b390611d3f565b60405180910390fd5b60003390508760a001518960a001516104d59190611d8e565b88608001518a608001516104e99190611d8e565b101561052a576040517f08c379a000000000000000000000000000000000000000000000000000000000815260040161052190611e34565b60405180910390fd5b61053f89898560400151856040015189610999565b93506105578360200151856000015160200151610ad0565b61056d8260200151856020015160200151610ad0565b61057989898387610afd565b50505095945050505050565b806000015173ffffffffffffffffffffffffffffffffffffffff163373ffffffffffffffffffffffffffffffffffffffff16146105f7576040517f08c379a00000000000000000000000000000000000000000000000000000000081526004016105ee90611ea0565b60405180910390fd5b600061060282610637565b905060018060008360200151815260200190815260200160002060006101000a81548160ff0219169083151502179055505050565b61063f6113f6565b61064882610e71565b82602001836040018281525082815250505060008260800151141561069d576001816000019060068111156106805761067f611a1c565b5b9081600681111561069457610693611a1c565b5b815250506107b7565b60008260a0015114156106e0576002816000019060068111156106c3576106c2611a1c565b5b908160068111156106d7576106d6611a1c565b5b815250506107b7565b8160a001518160400151106107255760058160000190600681111561070857610707611a1c565b5b9081600681111561071c5761071b611a1c565b5b815250506107b7565b600160008260200151815260200190815260200160002060009054906101000a900460ff16156107855760068160000190600681111561076857610767611a1c565b5b9081600681111561077c5761077b611a1c565b5b815250506107b7565b60038160000190600681111561079e5761079d611a1c565b5b908160068111156107b2576107b1611a1c565b5b815250505b919050565b6000807ffcbd3b8a64f35ab7eb14551d9fecf45fdf57bdae0192b52b1ed580076c7a8a0f60001b836000015184602001518560400151866060015187608001518860a001518960c001518a60e0015160405160200161082399989796959493929190611ecf565b604051602081830303815290604052805190602001209050600061084682610e99565b90508092505050919050565b60008183511015610898576040517f08c379a000000000000000000000000000000000000000000000000000000000815260040161088f90611fa8565b60405180910390fd5b6020826108a59190611fc8565b915081830151905092915050565b600080836000815181106108ca576108c9611aff565b5b602001015160f81c60f81b60f81c905060006108f060018661085290919063ffffffff16565b9050600061090860218761085290919063ffffffff16565b905060006001888585856040516000815260200160405260405161092f9493929190611b59565b6020604051602081039080840390855afa158015610951573d6000803e3d6000fd5b5050506020604051035190508573ffffffffffffffffffffffffffffffffffffffff168173ffffffffffffffffffffffffffffffffffffffff16149450505050509392505050565b6109a16113c2565b6000848760a001516109b3919061201e565b905060006109ca88608001518960a0015184610ef9565b90506000858860a001516109de919061201e565b905060006109f589608001518a60a0015184610ef9565b90508515610a1257610a0b8a8a85878587610f66565b9450610a23565b610a208a8a858785876110c8565b94505b610a3e8560000151600001518b608001518c60c00151610ef9565b85600001516040018181525050610a668560000151602001518b60a001518c60e00151610ef9565b85600001516060018181525050610a8e8560200151600001518a608001518b60c00151610ef9565b85602001516040018181525050610ab68560200151602001518a60a001518b60e00151610ef9565b856020015160600181815250505050505095945050505050565b806000808481526020019081526020016000206000828254610af29190611fc8565b925050819055505050565b826020015173ffffffffffffffffffffffffffffffffffffffff166323b872dd846000015186600001518460000151602001516040518463ffffffff1660e01b8152600401610b4e93929190612052565b6020604051808303816000875af1158015610b6d573d6000803e3d6000fd5b505050506040513d601f19601f82011682018060405250810190610b91919061209e565b50836020015173ffffffffffffffffffffffffffffffffffffffff166323b872dd856000015185600001518460200151602001516040518463ffffffff1660e01b8152600401610be393929190612052565b6020604051808303816000875af1158015610c02573d6000803e3d6000fd5b505050506040513d601f19601f82011682018060405250810190610c26919061209e565b50826020015173ffffffffffffffffffffffffffffffffffffffff166323b872dd846000015185606001518460200151604001516040518463ffffffff1660e01b8152600401610c7893929190612052565b6020604051808303816000875af1158015610c97573d6000803e3d6000fd5b505050506040513d601f19601f82011682018060405250810190610cbb919061209e565b50836020015173ffffffffffffffffffffffffffffffffffffffff166323b872dd856000015186606001518460000151604001516040518463ffffffff1660e01b8152600401610d0d93929190612052565b6020604051808303816000875af1158015610d2c573d6000803e3d6000fd5b505050506040513d601f19601f82011682018060405250810190610d50919061209e565b50826020015173ffffffffffffffffffffffffffffffffffffffff166323b872dd84600001518484606001516040518463ffffffff1660e01b8152600401610d9a93929190612052565b6020604051808303816000875af1158015610db9573d6000803e3d6000fd5b505050506040513d601f19601f82011682018060405250810190610ddd919061209e565b50836020015173ffffffffffffffffffffffffffffffffffffffff166323b872dd85600001518484604001516040518463ffffffff1660e01b8152600401610e2793929190612052565b6020604051808303816000875af1158015610e46573d6000803e3d6000fd5b505050506040513d601f19601f82011682018060405250810190610e6a919061209e565b5050505050565b600080610e7d836107bc565b9150600080838152602001908152602001600020549050915091565b60006040517f190100000000000000000000000000000000000000000000000000000000000081527f07072ef27221c12667016d82f01b570740d597075408abc64d1e6d899a8e5de9600282015282602282015260428120915050919050565b6000610f068484846111e7565b15610f46576040517f08c379a0000000000000000000000000000000000000000000000000000000008152600401610f3d90612117565b60405180910390fd5b828285610f539190611d8e565b610f5d9190612166565b90509392505050565b610f6e6113c2565b600082861190506000858511905084861115610fd357848360200151600001818152505083836020015160200181815250508483600001516020018181525050610fc189608001518a60a0015187610ef9565b83600001516000018181525050611064565b8684111561102a578683600001516000018181525050858360000151602001818152505061100a88608001518960a0015189611286565b836020015160000181815250508683602001516020018181525050611063565b86836000015160000181815250508583600001516020018181525050848360200151600001818152505083836020015160200181815250505b5b811561109057826020015160200151836000015160000151611086919061201e565b8360400181815250505b80156110bc578260000151602001518360200151600001516110b2919061201e565b8360600181815250505b50509695505050505050565b6110d06113c2565b828411156111275782816020015160000181815250508181602001516020018181525050828160000151602001818152505061111587608001518860a0015185610ef9565b816000015160000181815250506111b8565b8284101561117e5784816000015160000181815250508381600001516020018181525050838160200151600001818152505061116c8660a00151876080015186611286565b816020015160200181815250506111b7565b84816000015160000181815250508381600001516020018181525050828160200151600001818152505081816020015160200181815250505b5b8060200151602001518160000151600001516111d4919061201e565b8160400181815250509695505050505050565b60008083141561122c576040517f08c379a0000000000000000000000000000000000000000000000000000000008152600401611223906121e3565b60405180910390fd5b600082148061123b5750600084145b15611249576000905061127f565b6000838061125a57611259612137565b5b8584099050828561126b9190611d8e565b6103e8826112799190611d8e565b10159150505b9392505050565b600061129384848461130a565b156112d3576040517f08c379a00000000000000000000000000000000000000000000000000000000081526004016112ca9061224f565b60405180910390fd5b826001846112e1919061201e565b836112ec9190611fc8565b856112f79190611d8e565b6113019190612166565b90509392505050565b60008083141561134f576040517f08c379a0000000000000000000000000000000000000000000000000000000008152600401611346906121e3565b60405180910390fd5b600082148061135e5750600084145b1561136c57600090506113bb565b6000838061137d5761137c612137565b5b858409905083818561138f919061201e565b611399919061226f565b905082856113a79190611d8e565b6103e8826113b59190611d8e565b10159150505b9392505050565b60405180608001604052806113d561142c565b81526020016113e261142c565b815260200160008152602001600081525090565b60405180606001604052806000600681111561141557611414611a1c565b5b815260200160008019168152602001600081525090565b6040518060800160405280600081526020016000815260200160008152602001600081525090565b6000604051905090565b600080fd5b600080fd5b6000819050919050565b61147b81611468565b811461148657600080fd5b50565b60008135905061149881611472565b92915050565b6000602082840312156114b4576114b361145e565b5b60006114c284828501611489565b91505092915050565b6000819050919050565b6114de816114cb565b82525050565b60006020820190506114f960008301846114d5565b92915050565b60008115159050919050565b611514816114ff565b82525050565b600060208201905061152f600083018461150b565b92915050565b600080fd5b6000601f19601f8301169050919050565b7f4e487b7100000000000000000000000000000000000000000000000000000000600052604160045260246000fd5b6115838261153a565b810181811067ffffffffffffffff821117156115a2576115a161154b565b5b80604052505050565b60006115b5611454565b90506115c1828261157a565b919050565b600073ffffffffffffffffffffffffffffffffffffffff82169050919050565b60006115f1826115c6565b9050919050565b611601816115e6565b811461160c57600080fd5b50565b60008135905061161e816115f8565b92915050565b61162d816114cb565b811461163857600080fd5b50565b60008135905061164a81611624565b92915050565b6000610100828403121561166757611666611535565b5b6116726101006115ab565b905060006116828482850161160f565b60008301525060206116968482850161160f565b60208301525060406116aa8482850161160f565b60408301525060606116be8482850161160f565b60608301525060806116d28482850161163b565b60808301525060a06116e68482850161163b565b60a08301525060c06116fa8482850161163b565b60c08301525060e061170e8482850161163b565b60e08301525092915050565b600080fd5b600080fd5b600067ffffffffffffffff82111561173f5761173e61154b565b5b6117488261153a565b9050602081019050919050565b82818337600083830152505050565b600061177761177284611724565b6115ab565b9050828152602081018484840111156117935761179261171f565b5b61179e848285611755565b509392505050565b600082601f8301126117bb576117ba61171a565b5b81356117cb848260208601611764565b91505092915050565b60008061012083850312156117ec576117eb61145e565b5b60006117fa85828601611650565b92505061010083013567ffffffffffffffff81111561181c5761181b611463565b5b611828858286016117a6565b9150509250929050565b61183b816114ff565b811461184657600080fd5b50565b60008135905061185881611832565b92915050565b6000806000806000610260868803121561187b5761187a61145e565b5b600061188988828901611650565b95505061010061189b88828901611650565b94505061020086013567ffffffffffffffff8111156118bd576118bc611463565b5b6118c9888289016117a6565b93505061022086013567ffffffffffffffff8111156118eb576118ea611463565b5b6118f7888289016117a6565b92505061024061190988828901611849565b9150509295509295909350565b61191f816114cb565b82525050565b60808201600082015161193b6000850182611916565b50602082015161194e6020850182611916565b5060408201516119616040850182611916565b5060608201516119746060850182611916565b50505050565b610140820160008201516119916000850182611925565b5060208201516119a46080850182611925565b5060408201516119b8610100850182611916565b5060608201516119cc610120850182611916565b50505050565b6000610140820190506119e8600083018461197a565b92915050565b60006101008284031215611a0557611a0461145e565b5b6000611a1384828501611650565b91505092915050565b7f4e487b7100000000000000000000000000000000000000000000000000000000600052602160045260246000fd5b60078110611a5c57611a5b611a1c565b5b50565b6000819050611a6d82611a4b565b919050565b6000611a7d82611a5f565b9050919050565b611a8d81611a72565b82525050565b611a9c81611468565b82525050565b606082016000820151611ab86000850182611a84565b506020820151611acb6020850182611a93565b506040820151611ade6040850182611916565b50505050565b6000606082019050611af96000830184611aa2565b92915050565b7f4e487b7100000000000000000000000000000000000000000000000000000000600052603260045260246000fd5b611b3781611468565b82525050565b600060ff82169050919050565b611b5381611b3d565b82525050565b6000608082019050611b6e6000830187611b2e565b611b7b6020830186611b4a565b611b886040830185611b2e565b611b956060830184611b2e565b95945050505050565b600082825260208201905092915050565b7f7269676874206f7264657220737461747573206e6f742046696c6c61626c6500600082015250565b6000611be5601f83611b9e565b9150611bf082611baf565b602082019050919050565b60006020820190508181036000830152611c1481611bd8565b9050919050565b7f6c656674206f7264657220737461747573206e6f742046696c6c61626c650000600082015250565b6000611c51601e83611b9e565b9150611c5c82611c1b565b602082019050919050565b60006020820190508181036000830152611c8081611c44565b9050919050565b7f696e76616c6964207269676874207369676e6174757265000000000000000000600082015250565b6000611cbd601783611b9e565b9150611cc882611c87565b602082019050919050565b60006020820190508181036000830152611cec81611cb0565b9050919050565b7f696e76616c6964206c656674207369676e617475726500000000000000000000600082015250565b6000611d29601683611b9e565b9150611d3482611cf3565b602082019050919050565b60006020820190508181036000830152611d5881611d1c565b9050919050565b7f4e487b7100000000000000000000000000000000000000000000000000000000600052601160045260246000fd5b6000611d99826114cb565b9150611da4836114cb565b9250817fffffffffffffffffffffffffffffffffffffffffffffffffffffffffffffffff0483118215151615611ddd57611ddc611d5f565b5b828202905092915050565b7f6e6f742070726f66697461626c65207370726561640000000000000000000000600082015250565b6000611e1e601583611b9e565b9150611e2982611de8565b602082019050919050565b60006020820190508181036000830152611e4d81611e11565b9050919050565b7f6f6e6c79206d616b6572206d61792063616e63656c206f726465720000000000600082015250565b6000611e8a601b83611b9e565b9150611e9582611e54565b602082019050919050565b60006020820190508181036000830152611eb981611e7d565b9050919050565b611ec9816115e6565b82525050565b600061012082019050611ee5600083018c611b2e565b611ef2602083018b611ec0565b611eff604083018a611ec0565b611f0c6060830189611ec0565b611f196080830188611ec0565b611f2660a08301876114d5565b611f3360c08301866114d5565b611f4060e08301856114d5565b611f4e6101008301846114d5565b9a9950505050505050505050565b7f42797465734c69623a206c656e67746800000000000000000000000000000000600082015250565b6000611f92601083611b9e565b9150611f9d82611f5c565b602082019050919050565b60006020820190508181036000830152611fc181611f85565b9050919050565b6000611fd3826114cb565b9150611fde836114cb565b9250827fffffffffffffffffffffffffffffffffffffffffffffffffffffffffffffffff0382111561201357612012611d5f565b5b828201905092915050565b6000612029826114cb565b9150612034836114cb565b92508282101561204757612046611d5f565b5b828203905092915050565b60006060820190506120676000830186611ec0565b6120746020830185611ec0565b61208160408301846114d5565b949350505050565b60008151905061209881611832565b92915050565b6000602082840312156120b4576120b361145e565b5b60006120c284828501612089565b91505092915050565b7f666c6f6f7220726f756e64696e67206572726f72203e3d20302e312500000000600082015250565b6000612101601c83611b9e565b915061210c826120cb565b602082019050919050565b60006020820190508181036000830152612130816120f4565b9050919050565b7f4e487b7100000000000000000000000000000000000000000000000000000000600052601260045260246000fd5b6000612171826114cb565b915061217c836114cb565b92508261218c5761218b612137565b5b828204905092915050565b7f6572726f722064656e6f6d696e61746f72206973207a65726f00000000000000600082015250565b60006121cd601983611b9e565b91506121d882612197565b602082019050919050565b600060208201905081810360008301526121fc816121c0565b9050919050565b7f6365696c20726f756e64696e67206572726f72203e3d20302e31250000000000600082015250565b6000612239601b83611b9e565b915061224482612203565b602082019050919050565b600060208201905081810360008301526122688161222c565b9050919050565b600061227a826114cb565b9150612285836114cb565b92508261229557612294612137565b5b82820690509291505056fea26469706673582212203aa052225dc35ea84cc26114a96337b93ce4c35cd528a2bf21502765d78ba69d64736f6c634300080a0033",
  "linkReferences": {},
  "deployedLinkReferences": {}
}