{
  "_format": "hh-sol-artifact-1",
  "contractName": "Exchange",
  "sourceName": "contracts/Exchange.sol",
  "abi": [
    {
      "inputs": [
        {
          "components": [
            {
              "internalType": "address",
              "name": "makerAddress",
              "type": "address"
            },
            {
              "internalType": "address",
              "name": "makerToken",
              "type": "address"
            },
            {
              "internalType": "address",
              "name": "takerToken",
              "type": "address"
            },
            {
              "internalType": "address",
              "name": "feeRecipientAddress",
              "type": "address"
            },
            {
              "internalType": "uint256",
              "name": "makerAssetAmount",
              "type": "uint256"
            },
            {
              "internalType": "uint256",
              "name": "takerAssetAmount",
              "type": "uint256"
            },
            {
              "internalType": "uint256",
              "name": "makerVolumeFee",
              "type": "uint256"
            },
            {
              "internalType": "uint256",
              "name": "takerVolumeFee",
              "type": "uint256"
            },
            {
              "internalType": "uint256",
              "name": "gasFee",
              "type": "uint256"
            },
            {
              "internalType": "uint256",
              "name": "expirationTimeSeconds",
              "type": "uint256"
            },
            {
              "internalType": "uint256",
              "name": "salt",
              "type": "uint256"
            }
          ],
          "internalType": "struct LibOrder.Order",
          "name": "order",
          "type": "tuple"
        }
      ],
      "name": "cancelOrder",
      "outputs": [],
      "stateMutability": "nonpayable",
      "type": "function"
    },
    {
      "inputs": [
        {
          "internalType": "bytes32",
          "name": "",
          "type": "bytes32"
        }
      ],
      "name": "cancelled",
      "outputs": [
        {
          "internalType": "bool",
          "name": "",
          "type": "bool"
        }
      ],
      "stateMutability": "view",
      "type": "function"
    },
    {
      "inputs": [
        {
          "internalType": "bytes32",
          "name": "",
          "type": "bytes32"
        }
      ],
      "name": "filled",
      "outputs": [
        {
          "internalType": "uint256",
          "name": "",
          "type": "uint256"
        }
      ],
      "stateMutability": "view",
      "type": "function"
    },
    {
      "inputs": [
        {
          "components": [
            {
              "internalType": "address",
              "name": "makerAddress",
              "type": "address"
            },
            {
              "internalType": "address",
              "name": "makerToken",
              "type": "address"
            },
            {
              "internalType": "address",
              "name": "takerToken",
              "type": "address"
            },
            {
              "internalType": "address",
              "name": "feeRecipientAddress",
              "type": "address"
            },
            {
              "internalType": "uint256",
              "name": "makerAssetAmount",
              "type": "uint256"
            },
            {
              "internalType": "uint256",
              "name": "takerAssetAmount",
              "type": "uint256"
            },
            {
              "internalType": "uint256",
              "name": "makerVolumeFee",
              "type": "uint256"
            },
            {
              "internalType": "uint256",
              "name": "takerVolumeFee",
              "type": "uint256"
            },
            {
              "internalType": "uint256",
              "name": "gasFee",
              "type": "uint256"
            },
            {
              "internalType": "uint256",
              "name": "expirationTimeSeconds",
              "type": "uint256"
            },
            {
              "internalType": "uint256",
              "name": "salt",
              "type": "uint256"
            }
          ],
          "internalType": "struct LibOrder.Order",
          "name": "order",
          "type": "tuple"
        }
      ],
      "name": "getOrderInfo",
      "outputs": [
        {
          "components": [
            {
              "internalType": "enum LibOrder.OrderStatus",
              "name": "orderStatus",
              "type": "uint8"
            },
            {
              "internalType": "bytes32",
              "name": "orderHash",
              "type": "bytes32"
            },
            {
              "internalType": "uint256",
              "name": "orderTakerAssetFilledAmount",
              "type": "uint256"
            }
          ],
          "internalType": "struct LibOrder.OrderInfo",
          "name": "orderInfo",
          "type": "tuple"
        }
      ],
      "stateMutability": "view",
      "type": "function"
    },
    {
      "inputs": [
        {
          "components": [
            {
              "internalType": "address",
              "name": "makerAddress",
              "type": "address"
            },
            {
              "internalType": "address",
              "name": "makerToken",
              "type": "address"
            },
            {
              "internalType": "address",
              "name": "takerToken",
              "type": "address"
            },
            {
              "internalType": "address",
              "name": "feeRecipientAddress",
              "type": "address"
            },
            {
              "internalType": "uint256",
              "name": "makerAssetAmount",
              "type": "uint256"
            },
            {
              "internalType": "uint256",
              "name": "takerAssetAmount",
              "type": "uint256"
            },
            {
              "internalType": "uint256",
              "name": "makerVolumeFee",
              "type": "uint256"
            },
            {
              "internalType": "uint256",
              "name": "takerVolumeFee",
              "type": "uint256"
            },
            {
              "internalType": "uint256",
              "name": "gasFee",
              "type": "uint256"
            },
            {
              "internalType": "uint256",
              "name": "expirationTimeSeconds",
              "type": "uint256"
            },
            {
              "internalType": "uint256",
              "name": "salt",
              "type": "uint256"
            }
          ],
          "internalType": "struct LibOrder.Order",
          "name": "order",
          "type": "tuple"
        },
        {
          "internalType": "bytes",
          "name": "signature",
          "type": "bytes"
        }
      ],
      "name": "isValidSignature",
      "outputs": [
        {
          "internalType": "bool",
          "name": "isValid",
          "type": "bool"
        }
      ],
      "stateMutability": "pure",
      "type": "function"
    },
    {
      "inputs": [
        {
          "components": [
            {
              "internalType": "address",
              "name": "makerAddress",
              "type": "address"
            },
            {
              "internalType": "address",
              "name": "makerToken",
              "type": "address"
            },
            {
              "internalType": "address",
              "name": "takerToken",
              "type": "address"
            },
            {
              "internalType": "address",
              "name": "feeRecipientAddress",
              "type": "address"
            },
            {
              "internalType": "uint256",
              "name": "makerAssetAmount",
              "type": "uint256"
            },
            {
              "internalType": "uint256",
              "name": "takerAssetAmount",
              "type": "uint256"
            },
            {
              "internalType": "uint256",
              "name": "makerVolumeFee",
              "type": "uint256"
            },
            {
              "internalType": "uint256",
              "name": "takerVolumeFee",
              "type": "uint256"
            },
            {
              "internalType": "uint256",
              "name": "gasFee",
              "type": "uint256"
            },
            {
              "internalType": "uint256",
              "name": "expirationTimeSeconds",
              "type": "uint256"
            },
            {
              "internalType": "uint256",
              "name": "salt",
              "type": "uint256"
            }
          ],
          "internalType": "struct LibOrder.Order",
          "name": "leftOrder",
          "type": "tuple"
        },
        {
          "components": [
            {
              "internalType": "address",
              "name": "makerAddress",
              "type": "address"
            },
            {
              "internalType": "address",
              "name": "makerToken",
              "type": "address"
            },
            {
              "internalType": "address",
              "name": "takerToken",
              "type": "address"
            },
            {
              "internalType": "address",
              "name": "feeRecipientAddress",
              "type": "address"
            },
            {
              "internalType": "uint256",
              "name": "makerAssetAmount",
              "type": "uint256"
            },
            {
              "internalType": "uint256",
              "name": "takerAssetAmount",
              "type": "uint256"
            },
            {
              "internalType": "uint256",
              "name": "makerVolumeFee",
              "type": "uint256"
            },
            {
              "internalType": "uint256",
              "name": "takerVolumeFee",
              "type": "uint256"
            },
            {
              "internalType": "uint256",
              "name": "gasFee",
              "type": "uint256"
            },
            {
              "internalType": "uint256",
              "name": "expirationTimeSeconds",
              "type": "uint256"
            },
            {
              "internalType": "uint256",
              "name": "salt",
              "type": "uint256"
            }
          ],
          "internalType": "struct LibOrder.Order",
          "name": "rightOrder",
          "type": "tuple"
        },
        {
          "internalType": "bytes",
          "name": "leftSignature",
          "type": "bytes"
        },
        {
          "internalType": "bytes",
          "name": "rightSignature",
          "type": "bytes"
        }
      ],
      "name": "matchOrders",
      "outputs": [
        {
          "components": [
            {
              "components": [
                {
                  "internalType": "uint256",
                  "name": "makerAssetFilledAmount",
                  "type": "uint256"
                },
                {
                  "internalType": "uint256",
                  "name": "takerAssetFilledAmount",
                  "type": "uint256"
                },
                {
                  "internalType": "uint256",
                  "name": "makerFeePaid",
                  "type": "uint256"
                },
                {
                  "internalType": "uint256",
                  "name": "takerFeePaid",
                  "type": "uint256"
                }
              ],
              "internalType": "struct LibFillResults.FillResults",
              "name": "left",
              "type": "tuple"
            },
            {
              "components": [
                {
                  "internalType": "uint256",
                  "name": "makerAssetFilledAmount",
                  "type": "uint256"
                },
                {
                  "internalType": "uint256",
                  "name": "takerAssetFilledAmount",
                  "type": "uint256"
                },
                {
                  "internalType": "uint256",
                  "name": "makerFeePaid",
                  "type": "uint256"
                },
                {
                  "internalType": "uint256",
                  "name": "takerFeePaid",
                  "type": "uint256"
                }
              ],
              "internalType": "struct LibFillResults.FillResults",
              "name": "right",
              "type": "tuple"
            },
            {
              "internalType": "uint256",
              "name": "profitInLeftMakerAsset",
              "type": "uint256"
            },
            {
              "internalType": "uint256",
              "name": "profitInRightMakerAsset",
              "type": "uint256"
            }
          ],
          "internalType": "struct LibFillResults.MatchedFillResults",
          "name": "matchedFillResults",
          "type": "tuple"
        }
      ],
      "stateMutability": "nonpayable",
      "type": "function"
    }
  ],
  "bytecode": "0x608060405234801561001057600080fd5b506120d0806100206000396000f3fe608060405234801561001057600080fd5b50600436106100625760003560e01c8063288cdc91146100675780632ac126221461009757806356ab98a2146100c757806375abfba5146100e3578063963b1e3414610113578063ce2c5f8014610143575b600080fd5b610081600480360381019061007c9190611253565b610173565b60405161008e9190611299565b60405180910390f35b6100b160048036038101906100ac9190611253565b61018b565b6040516100be91906112cf565b60405180910390f35b6100e160048036038101906100dc9190611511565b6101ab565b005b6100fd60048036038101906100f891906115f9565b61025d565b60405161010a91906112cf565b60405180910390f35b61012d60048036038101906101289190611511565b61035a565b60405161013a919061172e565b60405180910390f35b61015d60048036038101906101589190611749565b610521565b60405161016a9190611899565b60405180910390f35b60006020528060005260406000206000915090505481565b60016020528060005260406000206000915054906101000a900460ff1681565b806000015173ffffffffffffffffffffffffffffffffffffffff163373ffffffffffffffffffffffffffffffffffffffff161461021d576040517f08c379a000000000000000000000000000000000000000000000000000000000815260040161021490611912565b60405180910390fd5b60006102288261035a565b905060018060008360200151815260200190815260200160002060006101000a81548160ff0219169083151502179055505050565b600080610269846107f5565b905060008460000151905060008460008151811061028a57610289611932565b5b602001015160f81c60f81b60f81c905060006102b06001876108a090919063ffffffff16565b905060006102c86021886108a090919063ffffffff16565b90506000600186858585604051600081526020016040526040516102ef949392919061198c565b6020604051602081039080840390855afa158015610311573d6000803e3d6000fd5b5050506020604051035190508473ffffffffffffffffffffffffffffffffffffffff168173ffffffffffffffffffffffffffffffffffffffff1614965050505050505092915050565b610362611177565b61036b82610901565b8260200183604001828152508281525050506000826080015114156103c0576001816000019060068111156103a3576103a2611657565b5b908160068111156103b7576103b6611657565b5b8152505061051c565b60008260a001511415610403576002816000019060068111156103e6576103e5611657565b5b908160068111156103fa576103f9611657565b5b8152505061051c565b8160a001518160400151106104485760058160000190600681111561042b5761042a611657565b5b9081600681111561043f5761043e611657565b5b8152505061051c565b816101200151421061048a5760048160000190600681111561046d5761046c611657565b5b9081600681111561048157610480611657565b5b8152505061051c565b600160008260200151815260200190815260200160002060009054906101000a900460ff16156104ea576006816000019060068111156104cd576104cc611657565b5b908160068111156104e1576104e0611657565b5b8152505061051c565b60038160000190600681111561050357610502611657565b5b9081600681111561051757610516611657565b5b815250505b919050565b6105296111ad565b8460400151846020019073ffffffffffffffffffffffffffffffffffffffff16908173ffffffffffffffffffffffffffffffffffffffff16815250508460200151846040019073ffffffffffffffffffffffffffffffffffffffff16908173ffffffffffffffffffffffffffffffffffffffff168152505060006105ac8661035a565b905060006105b98661035a565b9050600360068111156105cf576105ce611657565b5b816000015160068111156105e6576105e5611657565b5b14610626576040517f08c379a000000000000000000000000000000000000000000000000000000000815260040161061d90611a1d565b60405180910390fd5b6003600681111561063a57610639611657565b5b8260000151600681111561065157610650611657565b5b14610691576040517f08c379a000000000000000000000000000000000000000000000000000000000815260040161068890611a89565b60405180910390fd5b6106a48160200151858860000151610929565b6106e3576040517f08c379a00000000000000000000000000000000000000000000000000000000081526004016106da90611af5565b60405180910390fd5b6106f68260200151868960000151610929565b610735576040517f08c379a000000000000000000000000000000000000000000000000000000000815260040161072c90611b61565b60405180910390fd5b8560a001518760a001516107499190611bb0565b8660800151886080015161075d9190611bb0565b101561079e576040517f08c379a000000000000000000000000000000000000000000000000000000000815260040161079590611c56565b60405180910390fd5b6107b2878784604001518460400151610a0f565b92506107ca8260200151846000015160200151610aad565b6107e08160200151846020015160200151610aad565b6107eb878785610ada565b5050949350505050565b6000807f59455b9c66ec2b7a460dc0794aef21e45f7590b2a870e30ab4cf5e579763f2d960001b836000015184602001518560400151866060015187608001518860a001518960c001518a60e001518b61010001518c61012001518d61014001516040516020016108719c9b9a99989796959493929190611c85565b604051602081830303815290604052805190602001209050600061089482610d6d565b90508092505050919050565b600081835110156108e6576040517f08c379a00000000000000000000000000000000000000000000000000000000081526004016108dd90611d8b565b60405180910390fd5b6020826108f39190611dab565b915081830151905092915050565b60008061090d836107f5565b9150600080838152602001908152602001600020549050915091565b600080836000815181106109405761093f611932565b5b602001015160f81c60f81b60f81c905060006109666001866108a090919063ffffffff16565b9050600061097e6021876108a090919063ffffffff16565b90506000600188858585604051600081526020016040526040516109a5949392919061198c565b6020604051602081039080840390855afa1580156109c7573d6000803e3d6000fd5b5050506020604051035190508573ffffffffffffffffffffffffffffffffffffffff168173ffffffffffffffffffffffffffffffffffffffff16149450505050509392505050565b610a176111ad565b6000838660a00151610a299190611e01565b90506000610a4087608001518860a0015184610dcd565b90506000848760a00151610a549190611e01565b90506000610a6b88608001518960a0015184610dcd565b9050610a7b898985878587610e3a565b94508860c00151856000015160400181815250508760e001518560200151606001818152505050505050949350505050565b806000808481526020019081526020016000206000828254610acf9190611dab565b925050819055505050565b816020015173ffffffffffffffffffffffffffffffffffffffff166323b872dd836000015185600001518460000151602001516040518463ffffffff1660e01b8152600401610b2b93929190611e35565b6020604051808303816000875af1158015610b4a573d6000803e3d6000fd5b505050506040513d601f19601f82011682018060405250810190610b6e9190611e98565b50826020015173ffffffffffffffffffffffffffffffffffffffff166323b872dd846000015184600001518460200151602001516040518463ffffffff1660e01b8152600401610bc093929190611e35565b6020604051808303816000875af1158015610bdf573d6000803e3d6000fd5b505050506040513d601f19601f82011682018060405250810190610c039190611e98565b506000826101000151826020015160600151610c1f9190611dab565b90506000811115610cc057826020015173ffffffffffffffffffffffffffffffffffffffff166323b872dd846000015185606001518560200151606001516040518463ffffffff1660e01b8152600401610c7b93929190611e35565b6020604051808303816000875af1158015610c9a573d6000803e3d6000fd5b505050506040513d601f19601f82011682018060405250810190610cbe9190611e98565b505b60008260000151604001511115610d6757836020015173ffffffffffffffffffffffffffffffffffffffff166323b872dd856000015186606001518560000151604001516040518463ffffffff1660e01b8152600401610d2293929190611e35565b6020604051808303816000875af1158015610d41573d6000803e3d6000fd5b505050506040513d601f19601f82011682018060405250810190610d659190611e98565b505b50505050565b60006040517f190100000000000000000000000000000000000000000000000000000000000081527f66ca85c73263b5f0115572f82c47128c8611f8c66c1235ea367b67876bc11817600282015282602282015260428120915050919050565b6000610dda848484610f9c565b15610e1a576040517f08c379a0000000000000000000000000000000000000000000000000000000008152600401610e1190611f11565b60405180910390fd5b828285610e279190611bb0565b610e319190611f60565b90509392505050565b610e426111ad565b600082861190506000858511905084861115610ea757848360200151600001818152505083836020015160200181815250508483600001516020018181525050610e9589608001518a60a0015187610dcd565b83600001516000018181525050610f38565b86841115610efe5786836000015160000181815250508583600001516020018181525050610ede88608001518960a001518961103b565b836020015160000181815250508683602001516020018181525050610f37565b86836000015160000181815250508583600001516020018181525050848360200151600001818152505083836020015160200181815250505b5b8115610f6457826020015160200151836000015160000151610f5a9190611e01565b8360400181815250505b8015610f9057826000015160200151836020015160000151610f869190611e01565b8360600181815250505b50509695505050505050565b600080831415610fe1576040517f08c379a0000000000000000000000000000000000000000000000000000000008152600401610fd890611fdd565b60405180910390fd5b6000821480610ff05750600084145b15610ffe5760009050611034565b6000838061100f5761100e611f31565b5b858409905082856110209190611bb0565b6103e88261102e9190611bb0565b10159150505b9392505050565b60006110488484846110bf565b15611088576040517f08c379a000000000000000000000000000000000000000000000000000000000815260040161107f90612049565b60405180910390fd5b826001846110969190611e01565b836110a19190611dab565b856110ac9190611bb0565b6110b69190611f60565b90509392505050565b600080831415611104576040517f08c379a00000000000000000000000000000000000000000000000000000000081526004016110fb90611fdd565b60405180910390fd5b60008214806111135750600084145b156111215760009050611170565b6000838061113257611131611f31565b5b85840990508381856111449190611e01565b61114e9190612069565b9050828561115c9190611bb0565b6103e88261116a9190611bb0565b10159150505b9392505050565b60405180606001604052806000600681111561119657611195611657565b5b815260200160008019168152602001600081525090565b60405180608001604052806111c06111e1565b81526020016111cd6111e1565b815260200160008152602001600081525090565b6040518060800160405280600081526020016000815260200160008152602001600081525090565b6000604051905090565b600080fd5b600080fd5b6000819050919050565b6112308161121d565b811461123b57600080fd5b50565b60008135905061124d81611227565b92915050565b60006020828403121561126957611268611213565b5b60006112778482850161123e565b91505092915050565b6000819050919050565b61129381611280565b82525050565b60006020820190506112ae600083018461128a565b92915050565b60008115159050919050565b6112c9816112b4565b82525050565b60006020820190506112e460008301846112c0565b92915050565b600080fd5b6000601f19601f8301169050919050565b7f4e487b7100000000000000000000000000000000000000000000000000000000600052604160045260246000fd5b611338826112ef565b810181811067ffffffffffffffff8211171561135757611356611300565b5b80604052505050565b600061136a611209565b9050611376828261132f565b919050565b600073ffffffffffffffffffffffffffffffffffffffff82169050919050565b60006113a68261137b565b9050919050565b6113b68161139b565b81146113c157600080fd5b50565b6000813590506113d3816113ad565b92915050565b6113e281611280565b81146113ed57600080fd5b50565b6000813590506113ff816113d9565b92915050565b6000610160828403121561141c5761141b6112ea565b5b611427610160611360565b90506000611437848285016113c4565b600083015250602061144b848285016113c4565b602083015250604061145f848285016113c4565b6040830152506060611473848285016113c4565b6060830152506080611487848285016113f0565b60808301525060a061149b848285016113f0565b60a08301525060c06114af848285016113f0565b60c08301525060e06114c3848285016113f0565b60e0830152506101006114d8848285016113f0565b610100830152506101206114ee848285016113f0565b61012083015250610140611504848285016113f0565b6101408301525092915050565b6000610160828403121561152857611527611213565b5b600061153684828501611405565b91505092915050565b600080fd5b600080fd5b600067ffffffffffffffff82111561156457611563611300565b5b61156d826112ef565b9050602081019050919050565b82818337600083830152505050565b600061159c61159784611549565b611360565b9050828152602081018484840111156115b8576115b7611544565b5b6115c384828561157a565b509392505050565b600082601f8301126115e0576115df61153f565b5b81356115f0848260208601611589565b91505092915050565b600080610180838503121561161157611610611213565b5b600061161f85828601611405565b92505061016083013567ffffffffffffffff81111561164157611640611218565b5b61164d858286016115cb565b9150509250929050565b7f4e487b7100000000000000000000000000000000000000000000000000000000600052602160045260246000fd5b6007811061169757611696611657565b5b50565b60008190506116a882611686565b919050565b60006116b88261169a565b9050919050565b6116c8816116ad565b82525050565b6116d78161121d565b82525050565b6116e681611280565b82525050565b60608201600082015161170260008501826116bf565b50602082015161171560208501826116ce565b50604082015161172860408501826116dd565b50505050565b600060608201905061174360008301846116ec565b92915050565b600080600080610300858703121561176457611763611213565b5b600061177287828801611405565b94505061016061178487828801611405565b9350506102c085013567ffffffffffffffff8111156117a6576117a5611218565b5b6117b2878288016115cb565b9250506102e085013567ffffffffffffffff8111156117d4576117d3611218565b5b6117e0878288016115cb565b91505092959194509250565b60808201600082015161180260008501826116dd565b50602082015161181560208501826116dd565b50604082015161182860408501826116dd565b50606082015161183b60608501826116dd565b50505050565b6101408201600082015161185860008501826117ec565b50602082015161186b60808501826117ec565b50604082015161187f6101008501826116dd565b5060608201516118936101208501826116dd565b50505050565b6000610140820190506118af6000830184611841565b92915050565b600082825260208201905092915050565b7f6f6e6c79206d616b6572206d61792063616e63656c206f726465720000000000600082015250565b60006118fc601b836118b5565b9150611907826118c6565b602082019050919050565b6000602082019050818103600083015261192b816118ef565b9050919050565b7f4e487b7100000000000000000000000000000000000000000000000000000000600052603260045260246000fd5b61196a8161121d565b82525050565b600060ff82169050919050565b61198681611970565b82525050565b60006080820190506119a16000830187611961565b6119ae602083018661197d565b6119bb6040830185611961565b6119c86060830184611961565b95945050505050565b7f7269676874206f7264657220737461747573206e6f742046696c6c61626c6500600082015250565b6000611a07601f836118b5565b9150611a12826119d1565b602082019050919050565b60006020820190508181036000830152611a36816119fa565b9050919050565b7f6c656674206f7264657220737461747573206e6f742046696c6c61626c650000600082015250565b6000611a73601e836118b5565b9150611a7e82611a3d565b602082019050919050565b60006020820190508181036000830152611aa281611a66565b9050919050565b7f696e76616c6964207269676874207369676e6174757265000000000000000000600082015250565b6000611adf6017836118b5565b9150611aea82611aa9565b602082019050919050565b60006020820190508181036000830152611b0e81611ad2565b9050919050565b7f696e76616c6964206c656674207369676e617475726500000000000000000000600082015250565b6000611b4b6016836118b5565b9150611b5682611b15565b602082019050919050565b60006020820190508181036000830152611b7a81611b3e565b9050919050565b7f4e487b7100000000000000000000000000000000000000000000000000000000600052601160045260246000fd5b6000611bbb82611280565b9150611bc683611280565b9250817fffffffffffffffffffffffffffffffffffffffffffffffffffffffffffffffff0483118215151615611bff57611bfe611b81565b5b828202905092915050565b7f6e6f742070726f66697461626c65207370726561640000000000000000000000600082015250565b6000611c406015836118b5565b9150611c4b82611c0a565b602082019050919050565b60006020820190508181036000830152611c6f81611c33565b9050919050565b611c7f8161139b565b82525050565b600061018082019050611c9b600083018f611961565b611ca8602083018e611c76565b611cb5604083018d611c76565b611cc2606083018c611c76565b611ccf608083018b611c76565b611cdc60a083018a61128a565b611ce960c083018961128a565b611cf660e083018861128a565b611d0461010083018761128a565b611d1261012083018661128a565b611d2061014083018561128a565b611d2e61016083018461128a565b9d9c50505050505050505050505050565b7f42797465734c69623a206c656e67746800000000000000000000000000000000600082015250565b6000611d756010836118b5565b9150611d8082611d3f565b602082019050919050565b60006020820190508181036000830152611da481611d68565b9050919050565b6000611db682611280565b9150611dc183611280565b9250827fffffffffffffffffffffffffffffffffffffffffffffffffffffffffffffffff03821115611df657611df5611b81565b5b828201905092915050565b6000611e0c82611280565b9150611e1783611280565b925082821015611e2a57611e29611b81565b5b828203905092915050565b6000606082019050611e4a6000830186611c76565b611e576020830185611c76565b611e64604083018461128a565b949350505050565b611e75816112b4565b8114611e8057600080fd5b50565b600081519050611e9281611e6c565b92915050565b600060208284031215611eae57611ead611213565b5b6000611ebc84828501611e83565b91505092915050565b7f666c6f6f7220726f756e64696e67206572726f72203e3d20302e312500000000600082015250565b6000611efb601c836118b5565b9150611f0682611ec5565b602082019050919050565b60006020820190508181036000830152611f2a81611eee565b9050919050565b7f4e487b7100000000000000000000000000000000000000000000000000000000600052601260045260246000fd5b6000611f6b82611280565b9150611f7683611280565b925082611f8657611f85611f31565b5b828204905092915050565b7f6572726f722064656e6f6d696e61746f72206973207a65726f00000000000000600082015250565b6000611fc76019836118b5565b9150611fd282611f91565b602082019050919050565b60006020820190508181036000830152611ff681611fba565b9050919050565b7f6365696c20726f756e64696e67206572726f72203e3d20302e31250000000000600082015250565b6000612033601b836118b5565b915061203e82611ffd565b602082019050919050565b6000602082019050818103600083015261206281612026565b9050919050565b600061207482611280565b915061207f83611280565b92508261208f5761208e611f31565b5b82820690509291505056fea2646970667358221220a401763eff206d864b31a1ddc8e70e8df1cd105ec932ded69ce2522a30c2c1d164736f6c634300080a0033",
  "linkReferences": {},
  "deployedLinkReferences": {}
}