{
  "_format": "hh-sol-artifact-1",
  "contractName": "SignatureValidator",
  "sourceName": "contracts/SignatureValidator.sol",
  "abi": [
    {
      "inputs": [
        {
          "components": [
            {
              "internalType": "address",
              "name": "user",
              "type": "address"
            },
            {
              "internalType": "address",
              "name": "sellToken",
              "type": "address"
            },
            {
              "internalType": "address",
              "name": "buyToken",
              "type": "address"
            },
            {
              "internalType": "address",
              "name": "feeRecipientAddress",
              "type": "address"
            },
            {
              "internalType": "address",
              "name": "relayerAddress",
              "type": "address"
            },
            {
              "internalType": "uint256",
              "name": "sellAmount",
              "type": "uint256"
            },
            {
              "internalType": "uint256",
              "name": "buyAmount",
              "type": "uint256"
            },
            {
              "internalType": "uint256",
              "name": "makerVolumeFee",
              "type": "uint256"
            },
            {
              "internalType": "uint256",
              "name": "takerVolumeFee",
              "type": "uint256"
            },
            {
              "internalType": "uint256",
              "name": "gasFee",
              "type": "uint256"
            },
            {
              "internalType": "uint256",
              "name": "expirationTimeSeconds",
              "type": "uint256"
            },
            {
              "internalType": "uint256",
              "name": "salt",
              "type": "uint256"
            }
          ],
          "internalType": "struct LibOrder.Order",
          "name": "order",
          "type": "tuple"
        },
        {
          "internalType": "bytes",
          "name": "signature",
          "type": "bytes"
        }
      ],
      "name": "isValidSignature",
      "outputs": [
        {
          "internalType": "bool",
          "name": "isValid",
          "type": "bool"
        }
      ],
      "stateMutability": "pure",
      "type": "function"
    }
  ],
  "bytecode": "0x608060405234801561001057600080fd5b50610ada806100206000396000f3fe608060405234801561001057600080fd5b506004361061002b5760003560e01c8063574f5a2a14610030575b600080fd5b61004a6004803603810190610045919061062a565b610060565b60405161005791906106a3565b60405180910390f35b60008061006c8461015d565b905060008460000151905060008460008151811061008d5761008c6106be565b5b602001015160f81c60f81b60f81c905060006100b36001876101f590919063ffffffff16565b905060006100cb6021886101f590919063ffffffff16565b90506000600186858585604051600081526020016040526040516100f29493929190610722565b6020604051602081039080840390855afa158015610114573d6000803e3d6000fd5b5050506020604051035190508473ffffffffffffffffffffffffffffffffffffffff168173ffffffffffffffffffffffffffffffffffffffff1614965050505050505092915050565b60008061016983610256565b610172846102c0565b6040516020016101839291906107e1565b60405160208183030381529060405290506000818051906020012090507fa076a88b3e9c52bec7bd0441613055c9487552e6e9bc376730af6e90ac980e2d60001b816040516020016101d692919061087d565b6040516020818303038152906040528051906020012092505050919050565b6000818351101561023b576040517f08c379a000000000000000000000000000000000000000000000000000000000815260040161023290610911565b60405180910390fd5b6020826102489190610960565b915081830151905092915050565b60607f0b86e5560a722da94769313c9690e24ca4925d085b3cdbd5a1240ba1bcc92a9560001b826000015183602001518460400151856060015186608001516040516020016102aa969594939291906109c5565b6040516020818303038152906040529050919050565b60608160a001518260c001518360e001518461010001518561012001518661014001518761016001516040516020016102ff9796959493929190610a35565b6040516020818303038152906040529050919050565b6000604051905090565b600080fd5b600080fd5b600080fd5b6000601f19601f8301169050919050565b7f4e487b7100000000000000000000000000000000000000000000000000000000600052604160045260246000fd5b6103778261032e565b810181811067ffffffffffffffff821117156103965761039561033f565b5b80604052505050565b60006103a9610315565b90506103b5828261036e565b919050565b600073ffffffffffffffffffffffffffffffffffffffff82169050919050565b60006103e5826103ba565b9050919050565b6103f5816103da565b811461040057600080fd5b50565b600081359050610412816103ec565b92915050565b6000819050919050565b61042b81610418565b811461043657600080fd5b50565b60008135905061044881610422565b92915050565b6000610180828403121561046557610464610329565b5b61047061018061039f565b9050600061048084828501610403565b600083015250602061049484828501610403565b60208301525060406104a884828501610403565b60408301525060606104bc84828501610403565b60608301525060806104d084828501610403565b60808301525060a06104e484828501610439565b60a08301525060c06104f884828501610439565b60c08301525060e061050c84828501610439565b60e08301525061010061052184828501610439565b6101008301525061012061053784828501610439565b6101208301525061014061054d84828501610439565b6101408301525061016061056384828501610439565b6101608301525092915050565b600080fd5b600080fd5b600067ffffffffffffffff8211156105955761059461033f565b5b61059e8261032e565b9050602081019050919050565b82818337600083830152505050565b60006105cd6105c88461057a565b61039f565b9050828152602081018484840111156105e9576105e8610575565b5b6105f48482856105ab565b509392505050565b600082601f83011261061157610610610570565b5b81356106218482602086016105ba565b91505092915050565b6000806101a083850312156106425761064161031f565b5b60006106508582860161044e565b92505061018083013567ffffffffffffffff81111561067257610671610324565b5b61067e858286016105fc565b9150509250929050565b60008115159050919050565b61069d81610688565b82525050565b60006020820190506106b86000830184610694565b92915050565b7f4e487b7100000000000000000000000000000000000000000000000000000000600052603260045260246000fd5b6000819050919050565b610700816106ed565b82525050565b600060ff82169050919050565b61071c81610706565b82525050565b600060808201905061073760008301876106f7565b6107446020830186610713565b61075160408301856106f7565b61075e60608301846106f7565b95945050505050565b600081519050919050565b600081905092915050565b60005b8381101561079b578082015181840152602081019050610780565b838111156107aa576000848401525b50505050565b60006107bb82610767565b6107c58185610772565b93506107d581856020860161077d565b80840191505092915050565b60006107ed82856107b0565b91506107f982846107b0565b91508190509392505050565b600081905092915050565b7f1901000000000000000000000000000000000000000000000000000000000000600082015250565b6000610846600283610805565b915061085182610810565b600282019050919050565b6000819050919050565b610877610872826106ed565b61085c565b82525050565b600061088882610839565b91506108948285610866565b6020820191506108a48284610866565b6020820191508190509392505050565b600082825260208201905092915050565b7f42797465734c69623a206c656e67746800000000000000000000000000000000600082015250565b60006108fb6010836108b4565b9150610906826108c5565b602082019050919050565b6000602082019050818103600083015261092a816108ee565b9050919050565b7f4e487b7100000000000000000000000000000000000000000000000000000000600052601160045260246000fd5b600061096b82610418565b915061097683610418565b9250827fffffffffffffffffffffffffffffffffffffffffffffffffffffffffffffffff038211156109ab576109aa610931565b5b828201905092915050565b6109bf816103da565b82525050565b600060c0820190506109da60008301896106f7565b6109e760208301886109b6565b6109f460408301876109b6565b610a0160608301866109b6565b610a0e60808301856109b6565b610a1b60a08301846109b6565b979650505050505050565b610a2f81610418565b82525050565b600060e082019050610a4a600083018a610a26565b610a576020830189610a26565b610a646040830188610a26565b610a716060830187610a26565b610a7e6080830186610a26565b610a8b60a0830185610a26565b610a9860c0830184610a26565b9897505050505050505056fea26469706673582212207bb31476f5094bc8aeae0202dafd29423354ff9c17916bde353180dd4787c40264736f6c634300080a0033",
  "linkReferences": {},
  "deployedLinkReferences": {}
}