{
  "_format": "hh-sol-artifact-1",
  "contractName": "SignatureValidator",
  "sourceName": "contracts/SignatureValidator.sol",
  "abi": [
    {
      "inputs": [
        {
          "components": [
            {
              "internalType": "address",
              "name": "user",
              "type": "address"
            },
            {
              "internalType": "address",
              "name": "sellToken",
              "type": "address"
            },
            {
              "internalType": "address",
              "name": "buyToken",
              "type": "address"
            },
            {
              "internalType": "address",
              "name": "feeRecipientAddress",
              "type": "address"
            },
            {
              "internalType": "address",
              "name": "relayerAddress",
              "type": "address"
            },
            {
              "internalType": "uint256",
              "name": "sellAmount",
              "type": "uint256"
            },
            {
              "internalType": "uint256",
              "name": "buyAmount",
              "type": "uint256"
            },
            {
              "internalType": "uint256",
              "name": "gasFee",
              "type": "uint256"
            },
            {
              "internalType": "uint256",
              "name": "expirationTimeSeconds",
              "type": "uint256"
            },
            {
              "internalType": "uint256",
              "name": "salt",
              "type": "uint256"
            }
          ],
          "internalType": "struct LibOrder.Order",
          "name": "order",
          "type": "tuple"
        },
        {
          "internalType": "bytes",
          "name": "signature",
          "type": "bytes"
        }
      ],
      "name": "isValidSignature",
      "outputs": [
        {
          "internalType": "bool",
          "name": "isValid",
          "type": "bool"
        }
      ],
      "stateMutability": "pure",
      "type": "function"
    }
  ],
  "bytecode": "0x608060405234801561001057600080fd5b50610975806100206000396000f3fe608060405234801561001057600080fd5b506004361061002b5760003560e01c806305e75cbd14610030575b600080fd5b61004a60048036038101906100459190610588565b610060565b6040516100579190610601565b60405180910390f35b60008061006c8461015d565b905060008460000151905060008460008151811061008d5761008c61061c565b5b602001015160f81c60f81b60f81c905060006100b360018761023e90919063ffffffff16565b905060006100cb60218861023e90919063ffffffff16565b90506000600186858585604051600081526020016040526040516100f29493929190610680565b6020604051602081039080840390855afa158015610114573d6000803e3d6000fd5b5050506020604051035190508473ffffffffffffffffffffffffffffffffffffffff168173ffffffffffffffffffffffffffffffffffffffff1614965050505050505092915050565b6000807f573d82b18a677641f8b46e5280c268852c77c040affcce708d5575f2be6f92b060001b836000015184602001518560400151866060015187608001518860a001518960c001518a60e001518b61010001518c61012001516040516020016101d29b9a999897969594939291906106e3565b6040516020818303038152906040528051906020012090507fa076a88b3e9c52bec7bd0441613055c9487552e6e9bc376730af6e90ac980e2d60001b81604051602001610220929190610806565b60405160208183030381529060405280519060200120915050919050565b60008183511015610284576040517f08c379a000000000000000000000000000000000000000000000000000000000815260040161027b9061089a565b60405180910390fd5b60208261029191906108e9565b915081830151905092915050565b6000604051905090565b600080fd5b600080fd5b600080fd5b6000601f19601f8301169050919050565b7f4e487b7100000000000000000000000000000000000000000000000000000000600052604160045260246000fd5b610301826102b8565b810181811067ffffffffffffffff821117156103205761031f6102c9565b5b80604052505050565b600061033361029f565b905061033f82826102f8565b919050565b600073ffffffffffffffffffffffffffffffffffffffff82169050919050565b600061036f82610344565b9050919050565b61037f81610364565b811461038a57600080fd5b50565b60008135905061039c81610376565b92915050565b6000819050919050565b6103b5816103a2565b81146103c057600080fd5b50565b6000813590506103d2816103ac565b92915050565b600061014082840312156103ef576103ee6102b3565b5b6103fa610140610329565b9050600061040a8482850161038d565b600083015250602061041e8482850161038d565b60208301525060406104328482850161038d565b60408301525060606104468482850161038d565b606083015250608061045a8482850161038d565b60808301525060a061046e848285016103c3565b60a08301525060c0610482848285016103c3565b60c08301525060e0610496848285016103c3565b60e0830152506101006104ab848285016103c3565b610100830152506101206104c1848285016103c3565b6101208301525092915050565b600080fd5b600080fd5b600067ffffffffffffffff8211156104f3576104f26102c9565b5b6104fc826102b8565b9050602081019050919050565b82818337600083830152505050565b600061052b610526846104d8565b610329565b905082815260208101848484011115610547576105466104d3565b5b610552848285610509565b509392505050565b600082601f83011261056f5761056e6104ce565b5b813561057f848260208601610518565b91505092915050565b60008061016083850312156105a05761059f6102a9565b5b60006105ae858286016103d8565b92505061014083013567ffffffffffffffff8111156105d0576105cf6102ae565b5b6105dc8582860161055a565b9150509250929050565b60008115159050919050565b6105fb816105e6565b82525050565b600060208201905061061660008301846105f2565b92915050565b7f4e487b7100000000000000000000000000000000000000000000000000000000600052603260045260246000fd5b6000819050919050565b61065e8161064b565b82525050565b600060ff82169050919050565b61067a81610664565b82525050565b60006080820190506106956000830187610655565b6106a26020830186610671565b6106af6040830185610655565b6106bc6060830184610655565b95945050505050565b6106ce81610364565b82525050565b6106dd816103a2565b82525050565b6000610160820190506106f9600083018e610655565b610706602083018d6106c5565b610713604083018c6106c5565b610720606083018b6106c5565b61072d608083018a6106c5565b61073a60a08301896106c5565b61074760c08301886106d4565b61075460e08301876106d4565b6107626101008301866106d4565b6107706101208301856106d4565b61077e6101408301846106d4565b9c9b505050505050505050505050565b600081905092915050565b7f1901000000000000000000000000000000000000000000000000000000000000600082015250565b60006107cf60028361078e565b91506107da82610799565b600282019050919050565b6000819050919050565b6108006107fb8261064b565b6107e5565b82525050565b6000610811826107c2565b915061081d82856107ef565b60208201915061082d82846107ef565b6020820191508190509392505050565b600082825260208201905092915050565b7f42797465734c69623a206c656e67746800000000000000000000000000000000600082015250565b600061088460108361083d565b915061088f8261084e565b602082019050919050565b600060208201905081810360008301526108b381610877565b9050919050565b7f4e487b7100000000000000000000000000000000000000000000000000000000600052601160045260246000fd5b60006108f4826103a2565b91506108ff836103a2565b9250827fffffffffffffffffffffffffffffffffffffffffffffffffffffffffffffffff03821115610934576109336108ba565b5b82820190509291505056fea2646970667358221220dd758980e420bb305385317e9b12a09a192d196aa5ec30ac7a3a508b4731192d64736f6c634300080a0033",
  "linkReferences": {},
  "deployedLinkReferences": {}
}