{
  "_format": "hh-sol-artifact-1",
  "contractName": "ZigZagExchange",
  "sourceName": "contracts/ZigZagExchange.sol",
  "abi": [
    {
      "inputs": [
        {
          "internalType": "string",
          "name": "name",
          "type": "string"
        },
        {
          "internalType": "string",
          "name": "version",
          "type": "string"
        },
        {
          "internalType": "address",
          "name": "fee_address",
          "type": "address"
        }
      ],
      "stateMutability": "nonpayable",
      "type": "constructor"
    },
    {
      "anonymous": false,
      "inputs": [
        {
          "indexed": false,
          "internalType": "address",
          "name": "maker",
          "type": "address"
        },
        {
          "indexed": false,
          "internalType": "address",
          "name": "taker",
          "type": "address"
        },
        {
          "indexed": false,
          "internalType": "address",
          "name": "makerSellToken",
          "type": "address"
        },
        {
          "indexed": false,
          "internalType": "address",
          "name": "takerSellToken",
          "type": "address"
        },
        {
          "indexed": false,
          "internalType": "uint256",
          "name": "makerSellAmount",
          "type": "uint256"
        },
        {
          "indexed": false,
          "internalType": "uint256",
          "name": "takerSellAmount",
          "type": "uint256"
        },
        {
          "indexed": false,
          "internalType": "uint256",
          "name": "makerVolumeFee",
          "type": "uint256"
        },
        {
          "indexed": false,
          "internalType": "uint256",
          "name": "takerVolumeFee",
          "type": "uint256"
        }
      ],
      "name": "Swap",
      "type": "event"
    },
    {
      "inputs": [
        {
          "components": [
            {
              "internalType": "address",
              "name": "user",
              "type": "address"
            },
            {
              "internalType": "address",
              "name": "sellToken",
              "type": "address"
            },
            {
              "internalType": "address",
              "name": "buyToken",
              "type": "address"
            },
            {
              "internalType": "uint256",
              "name": "sellAmount",
              "type": "uint256"
            },
            {
              "internalType": "uint256",
              "name": "buyAmount",
              "type": "uint256"
            },
            {
              "internalType": "uint256",
              "name": "expirationTimeSeconds",
              "type": "uint256"
            }
          ],
          "internalType": "struct LibOrder.Order",
          "name": "order",
          "type": "tuple"
        }
      ],
      "name": "cancelOrder",
      "outputs": [],
      "stateMutability": "nonpayable",
      "type": "function"
    },
    {
      "inputs": [
        {
          "internalType": "bytes32",
          "name": "",
          "type": "bytes32"
        }
      ],
      "name": "cancelled",
      "outputs": [
        {
          "internalType": "bool",
          "name": "",
          "type": "bool"
        }
      ],
      "stateMutability": "view",
      "type": "function"
    },
    {
      "inputs": [
        {
          "internalType": "bytes32",
          "name": "",
          "type": "bytes32"
        }
      ],
      "name": "filled",
      "outputs": [
        {
          "internalType": "uint256",
          "name": "",
          "type": "uint256"
        }
      ],
      "stateMutability": "view",
      "type": "function"
    },
    {
      "inputs": [
        {
          "components": [
            {
              "internalType": "address",
              "name": "user",
              "type": "address"
            },
            {
              "internalType": "address",
              "name": "sellToken",
              "type": "address"
            },
            {
              "internalType": "address",
              "name": "buyToken",
              "type": "address"
            },
            {
              "internalType": "uint256",
              "name": "sellAmount",
              "type": "uint256"
            },
            {
              "internalType": "uint256",
              "name": "buyAmount",
              "type": "uint256"
            },
            {
              "internalType": "uint256",
              "name": "expirationTimeSeconds",
              "type": "uint256"
            }
          ],
          "internalType": "struct LibOrder.Order",
          "name": "order",
          "type": "tuple"
        }
      ],
      "name": "getOrderInfo",
      "outputs": [
        {
          "components": [
            {
              "internalType": "enum LibOrder.OrderStatus",
              "name": "orderStatus",
              "type": "uint8"
            },
            {
              "internalType": "bytes32",
              "name": "orderHash",
              "type": "bytes32"
            },
            {
              "internalType": "uint256",
              "name": "orderBuyFilledAmount",
              "type": "uint256"
            }
          ],
          "internalType": "struct LibOrder.OrderInfo",
          "name": "orderInfo",
          "type": "tuple"
        }
      ],
      "stateMutability": "view",
      "type": "function"
    },
    {
      "inputs": [
        {
          "components": [
            {
              "internalType": "address",
              "name": "user",
              "type": "address"
            },
            {
              "internalType": "address",
              "name": "sellToken",
              "type": "address"
            },
            {
              "internalType": "address",
              "name": "buyToken",
              "type": "address"
            },
            {
              "internalType": "uint256",
              "name": "sellAmount",
              "type": "uint256"
            },
            {
              "internalType": "uint256",
              "name": "buyAmount",
              "type": "uint256"
            },
            {
              "internalType": "uint256",
              "name": "expirationTimeSeconds",
              "type": "uint256"
            }
          ],
          "internalType": "struct LibOrder.Order",
          "name": "order",
          "type": "tuple"
        },
        {
          "internalType": "bytes",
          "name": "signature",
          "type": "bytes"
        }
      ],
      "name": "isValidSignature",
      "outputs": [
        {
          "internalType": "bool",
          "name": "",
          "type": "bool"
        }
      ],
      "stateMutability": "view",
      "type": "function"
    },
    {
      "inputs": [
        {
          "components": [
            {
              "internalType": "address",
              "name": "user",
              "type": "address"
            },
            {
              "internalType": "address",
              "name": "sellToken",
              "type": "address"
            },
            {
              "internalType": "address",
              "name": "buyToken",
              "type": "address"
            },
            {
              "internalType": "uint256",
              "name": "sellAmount",
              "type": "uint256"
            },
            {
              "internalType": "uint256",
              "name": "buyAmount",
              "type": "uint256"
            },
            {
              "internalType": "uint256",
              "name": "expirationTimeSeconds",
              "type": "uint256"
            }
          ],
          "internalType": "struct LibOrder.Order",
          "name": "makerOrder",
          "type": "tuple"
        },
        {
          "components": [
            {
              "internalType": "address",
              "name": "user",
              "type": "address"
            },
            {
              "internalType": "address",
              "name": "sellToken",
              "type": "address"
            },
            {
              "internalType": "address",
              "name": "buyToken",
              "type": "address"
            },
            {
              "internalType": "uint256",
              "name": "sellAmount",
              "type": "uint256"
            },
            {
              "internalType": "uint256",
              "name": "buyAmount",
              "type": "uint256"
            },
            {
              "internalType": "uint256",
              "name": "expirationTimeSeconds",
              "type": "uint256"
            }
          ],
          "internalType": "struct LibOrder.Order",
          "name": "takerOrder",
          "type": "tuple"
        },
        {
          "internalType": "bytes",
          "name": "makerSignature",
          "type": "bytes"
        },
        {
          "internalType": "bytes",
          "name": "takerSignature",
          "type": "bytes"
        }
      ],
      "name": "matchOrders",
      "outputs": [
        {
          "components": [
            {
              "internalType": "uint256",
              "name": "makerSellFilledAmount",
              "type": "uint256"
            },
            {
              "internalType": "uint256",
              "name": "takerSellFilledAmount",
              "type": "uint256"
            },
            {
              "internalType": "uint256",
              "name": "makerFeePaid",
              "type": "uint256"
            },
            {
              "internalType": "uint256",
              "name": "takerFeePaid",
              "type": "uint256"
            }
          ],
          "internalType": "struct LibFillResults.MatchedFillResults",
          "name": "matchedFillResults",
          "type": "tuple"
        }
      ],
      "stateMutability": "nonpayable",
      "type": "function"
    },
    {
      "inputs": [
        {
          "internalType": "uint256",
          "name": "_taker_fee_numerator",
          "type": "uint256"
        },
        {
          "internalType": "uint256",
          "name": "_taker_fee_denominator",
          "type": "uint256"
        },
        {
          "internalType": "uint256",
          "name": "_maker_fee_numerator",
          "type": "uint256"
        },
        {
          "internalType": "uint256",
          "name": "_maker_fee_denominator",
          "type": "uint256"
        }
      ],
      "name": "setFees",
      "outputs": [],
      "stateMutability": "nonpayable",
      "type": "function"
    }
  ],
  "bytecode": "0x6101406040526000600355612710600455600580556127106006553480156200002757600080fd5b5060405162002ea938038062002ea983398181016040528101906200004d919062000389565b828260008280519060200120905060008280519060200120905060007f8b73c3c69bb8fe3d512ecc4cf759cc79239f7b179b0ffacaa9a75d522b39400f90508260e081815250508161010081815250504660a08181525050620000b88184846200014b60201b60201c565b608081815250503073ffffffffffffffffffffffffffffffffffffffff1660c08173ffffffffffffffffffffffffffffffffffffffff1681525050806101208181525050505050505080600260006101000a81548173ffffffffffffffffffffffffffffffffffffffff021916908373ffffffffffffffffffffffffffffffffffffffff160217905550505050620004c7565b60008383834630604051602001620001689594939291906200046a565b6040516020818303038152906040528051906020012090509392505050565b6000604051905090565b600080fd5b600080fd5b600080fd5b600080fd5b6000601f19601f8301169050919050565b7f4e487b7100000000000000000000000000000000000000000000000000000000600052604160045260246000fd5b620001f082620001a5565b810181811067ffffffffffffffff82111715620002125762000211620001b6565b5b80604052505050565b60006200022762000187565b9050620002358282620001e5565b919050565b600067ffffffffffffffff821115620002585762000257620001b6565b5b6200026382620001a5565b9050602081019050919050565b60005b838110156200029057808201518184015260208101905062000273565b83811115620002a0576000848401525b50505050565b6000620002bd620002b7846200023a565b6200021b565b905082815260208101848484011115620002dc57620002db620001a0565b5b620002e984828562000270565b509392505050565b600082601f8301126200030957620003086200019b565b5b81516200031b848260208601620002a6565b91505092915050565b600073ffffffffffffffffffffffffffffffffffffffff82169050919050565b6000620003518262000324565b9050919050565b620003638162000344565b81146200036f57600080fd5b50565b600081519050620003838162000358565b92915050565b600080600060608486031215620003a557620003a462000191565b5b600084015167ffffffffffffffff811115620003c657620003c562000196565b5b620003d486828701620002f1565b935050602084015167ffffffffffffffff811115620003f857620003f762000196565b5b6200040686828701620002f1565b9250506040620004198682870162000372565b9150509250925092565b6000819050919050565b620004388162000423565b82525050565b6000819050919050565b62000453816200043e565b82525050565b620004648162000344565b82525050565b600060a0820190506200048160008301886200042d565b6200049060208301876200042d565b6200049f60408301866200042d565b620004ae606083018562000448565b620004bd608083018462000459565b9695505050505050565b60805160a05160c05160e05161010051610120516129926200051760003960006112cf01526000611311015260006112f0015260006112250152600061127b015260006112a401526129926000f3fe608060405234801561001057600080fd5b506004361061007d5760003560e01c80632ac126221161005b5780632ac12622146101125780636fcba37714610142578063c50e7b6e1461015e578063d98bfd811461017a5761007d565b806314a5918314610082578063159f91a6146100b2578063288cdc91146100e2575b600080fd5b61009c6004803603810190610097919061186d565b6101aa565b6040516100a99190611973565b60405180910390f35b6100cc60048036038101906100c7919061198e565b610497565b6040516100d99190611a05565b60405180910390f35b6100fc60048036038101906100f79190611a56565b6104bd565b6040516101099190611a92565b60405180910390f35b61012c60048036038101906101279190611a56565b6104d5565b6040516101399190611a05565b60405180910390f35b61015c60048036038101906101579190611aad565b6104f5565b005b61017860048036038101906101739190611b14565b6105a7565b005b610194600480360381019061018f9190611b14565b610655565b6040516101a19190611c09565b60405180910390f35b6101b261157c565b846040015173ffffffffffffffffffffffffffffffffffffffff16846020015173ffffffffffffffffffffffffffffffffffffffff1614610228576040517f08c379a000000000000000000000000000000000000000000000000000000000815260040161021f90611c81565b60405180910390fd5b846020015173ffffffffffffffffffffffffffffffffffffffff16846040015173ffffffffffffffffffffffffffffffffffffffff161461029e576040517f08c379a000000000000000000000000000000000000000000000000000000000815260040161029590611c81565b60405180910390fd5b846000015173ffffffffffffffffffffffffffffffffffffffff16846000015173ffffffffffffffffffffffffffffffffffffffff161415610315576040517f08c379a000000000000000000000000000000000000000000000000000000000815260040161030c90611ced565b60405180910390fd5b600061032086610655565b9050600061032d86610655565b905061034286600001518260200151866107a4565b610381576040517f08c379a000000000000000000000000000000000000000000000000000000000815260040161037890611d59565b60405180910390fd5b61039487600001518360200151876107a4565b6103d3576040517f08c379a00000000000000000000000000000000000000000000000000000000081526004016103ca90611dc5565b60405180910390fd5b856080015187608001516103e79190611e14565b866060015188606001516103fb9190611e14565b101561043c576040517f08c379a000000000000000000000000000000000000000000000000000000000815260040161043390611eba565b60405180910390fd5b61045c8787846040015184604001516003546004546005546006546107c7565b92506104708260200151846020015161088b565b6104828160200151846000015161088b565b61048d8787856108b8565b5050949350505050565b6000806104a384610ede565b90506104b4846000015182856107a4565b91505092915050565b60006020528060005260406000206000915090505481565b60016020528060005260406000206000915054906101000a900460ff1681565b600260009054906101000a900473ffffffffffffffffffffffffffffffffffffffff1673ffffffffffffffffffffffffffffffffffffffff163373ffffffffffffffffffffffffffffffffffffffff1614610585576040517f08c379a000000000000000000000000000000000000000000000000000000000815260040161057c90611f26565b60405180910390fd5b8360058190555082600681905550816003819055508060048190555050505050565b806000015173ffffffffffffffffffffffffffffffffffffffff163373ffffffffffffffffffffffffffffffffffffffff1614610619576040517f08c379a000000000000000000000000000000000000000000000000000000000815260040161061090611f92565b60405180910390fd5b600061062482610ede565b9050600180600083815260200190815260200160002060006101000a81548160ff0219169083151502179055505050565b61065d6115a4565b61066682610f55565b82602001836040018281525082815250505081608001518160400151106106c2576040517f08c379a00000000000000000000000000000000000000000000000000000000081526004016106b990611ffe565b60405180910390fd5b8160a00151421115610709576040517f08c379a00000000000000000000000000000000000000000000000000000000081526004016107009061206a565b60405180910390fd5b600160008260200151815260200190815260200160002060009054906101000a900460ff161561076e576040517f08c379a0000000000000000000000000000000000000000000000000000000008152600401610765906120d6565b60405180910390fd5b60038160000190600681111561078757610786611b41565b5b9081600681111561079b5761079a611b41565b5b81525050919050565b6000806107b084610f7d565b90506107bd858285610f97565b9150509392505050565b6107cf61157c565b6000878a608001516107e191906120f6565b905060006107f88b606001518c608001518461115d565b90506000888b6080015161080c91906120f6565b905060006108238c606001518d608001518461115d565b90506108318d8486846111ca565b9450878986600001516108449190611e14565b61084e9190612159565b856040018181525050858786602001516108689190611e14565b6108729190612159565b8560600181815250505050505098975050505050505050565b8060008084815260200190815260200160002060008282546108ad919061218a565b925050819055505050565b8060200151826020015173ffffffffffffffffffffffffffffffffffffffff166370a0823184600001516040518263ffffffff1660e01b81526004016108fe91906121ef565b602060405180830381865afa15801561091b573d6000803e3d6000fd5b505050506040513d601f19601f8201168201806040525081019061093f919061221f565b1015610980576040517f08c379a000000000000000000000000000000000000000000000000000000000815260040161097790612298565b60405180910390fd5b8060000151836020015173ffffffffffffffffffffffffffffffffffffffff166370a0823185600001516040518263ffffffff1660e01b81526004016109c691906121ef565b602060405180830381865afa1580156109e3573d6000803e3d6000fd5b505050506040513d601f19601f82011682018060405250810190610a07919061221f565b1015610a48576040517f08c379a0000000000000000000000000000000000000000000000000000000008152600401610a3f90612304565b60405180910390fd5b816020015173ffffffffffffffffffffffffffffffffffffffff166323b872dd8360000151856000015184602001516040518463ffffffff1660e01b8152600401610a9593929190612324565b6020604051808303816000875af1158015610ab4573d6000803e3d6000fd5b505050506040513d601f19601f82011682018060405250810190610ad89190612387565b50826020015173ffffffffffffffffffffffffffffffffffffffff166323b872dd8460000151846000015184600001516040518463ffffffff1660e01b8152600401610b2693929190612324565b6020604051808303816000875af1158015610b45573d6000803e3d6000fd5b505050506040513d601f19601f82011682018060405250810190610b699190612387565b50600081606001511115610cef578060600151826020015173ffffffffffffffffffffffffffffffffffffffff166370a0823184600001516040518263ffffffff1660e01b8152600401610bbd91906121ef565b602060405180830381865afa158015610bda573d6000803e3d6000fd5b505050506040513d601f19601f82011682018060405250810190610bfe919061221f565b1015610c3f576040517f08c379a0000000000000000000000000000000000000000000000000000000008152600401610c3690612426565b60405180910390fd5b816020015173ffffffffffffffffffffffffffffffffffffffff166323b872dd8360000151600260009054906101000a900473ffffffffffffffffffffffffffffffffffffffff1684606001516040518463ffffffff1660e01b8152600401610caa93929190612324565b6020604051808303816000875af1158015610cc9573d6000803e3d6000fd5b505050506040513d601f19601f82011682018060405250810190610ced9190612387565b505b600081604001511115610e74578060400151836020015173ffffffffffffffffffffffffffffffffffffffff166370a0823185600001516040518263ffffffff1660e01b8152600401610d4291906121ef565b602060405180830381865afa158015610d5f573d6000803e3d6000fd5b505050506040513d601f19601f82011682018060405250810190610d83919061221f565b1015610dc4576040517f08c379a0000000000000000000000000000000000000000000000000000000008152600401610dbb906124b8565b60405180910390fd5b826020015173ffffffffffffffffffffffffffffffffffffffff166323b872dd8460000151600260009054906101000a900473ffffffffffffffffffffffffffffffffffffffff1684604001516040518463ffffffff1660e01b8152600401610e2f93929190612324565b6020604051808303816000875af1158015610e4e573d6000803e3d6000fd5b505050506040513d601f19601f82011682018060405250810190610e729190612387565b505b7f6950339c7661cca450281e53722525cc136590e622b011d5be7e4c4993685a6c83600001518360000151856020015185602001518560000151866020015187604001518860600151604051610ed19897969594939291906124d8565b60405180910390a1505050565b60007f68d868c8698fc31da3a36bb7a184a4af099797794701bae97bea3de7ebe6e39960001b826000015183602001518460400151856060015186608001518760a00151604051602001610f389796959493929190612565565b604051602081830303815290604052805190602001209050919050565b600080610f6183610ede565b9150600080838152602001908152602001600020549050915091565b6000610f90610f8a611221565b8361133b565b9050919050565b6000806000610fa6858561136e565b9150915060006004811115610fbe57610fbd611b41565b5b816004811115610fd157610fd0611b41565b5b14801561100957508573ffffffffffffffffffffffffffffffffffffffff168273ffffffffffffffffffffffffffffffffffffffff16145b1561101957600192505050611156565b6000808773ffffffffffffffffffffffffffffffffffffffff16631626ba7e60e01b888860405160240161104e92919061265c565b604051602081830303815290604052907bffffffffffffffffffffffffffffffffffffffffffffffffffffffff19166020820180517bffffffffffffffffffffffffffffffffffffffffffffffffffffffff83818316178352505050506040516110b891906126c8565b600060405180830381855afa9150503d80600081146110f3576040519150601f19603f3d011682016040523d82523d6000602084013e6110f8565b606091505b509150915081801561110b575060208151145b801561114f5750631626ba7e60e01b7bffffffffffffffffffffffffffffffffffffffffffffffffffffffff19168180602001905181019061114d91906126f4565b145b9450505050505b9392505050565b600061116a8484846113c0565b156111aa576040517f08c379a00000000000000000000000000000000000000000000000000000000081526004016111a19061276d565b60405180910390fd5b8282856111b79190611e14565b6111c19190612159565b90509392505050565b6111d261157c565b818310611204576111ec856060015186608001518461115d565b81600001818152505081816020018181525050611219565b83816000018181525050828160200181815250505b949350505050565b60007f000000000000000000000000000000000000000000000000000000000000000073ffffffffffffffffffffffffffffffffffffffff163073ffffffffffffffffffffffffffffffffffffffff1614801561129d57507f000000000000000000000000000000000000000000000000000000000000000046145b156112ca577f00000000000000000000000000000000000000000000000000000000000000009050611338565b6113357f00000000000000000000000000000000000000000000000000000000000000007f00000000000000000000000000000000000000000000000000000000000000007f000000000000000000000000000000000000000000000000000000000000000061145f565b90505b90565b60008282604051602001611350929190612805565b60405160208183030381529060405280519060200120905092915050565b6000806041835114156113b05760008060006020860151925060408601519150606086015160001a90506113a487828585611499565b945094505050506113b9565b60006002915091505b9250929050565b600080831415611405576040517f08c379a00000000000000000000000000000000000000000000000000000000081526004016113fc90612888565b60405180910390fd5b60008214806114145750600084145b156114225760009050611458565b600083806114335761143261212a565b5b858409905082856114449190611e14565b6103e8826114529190611e14565b10159150505b9392505050565b6000838383463060405160200161147a9594939291906128a8565b6040516020818303038152906040528051906020012090509392505050565b6000807f7fffffffffffffffffffffffffffffff5d576e7357a4501ddfe92f46681b20a08360001c11156114d4576000600391509150611573565b6000600187878787604051600081526020016040526040516114f99493929190612917565b6020604051602081039080840390855afa15801561151b573d6000803e3d6000fd5b505050602060405103519050600073ffffffffffffffffffffffffffffffffffffffff168173ffffffffffffffffffffffffffffffffffffffff16141561156a57600060019250925050611573565b80600092509250505b94509492505050565b6040518060800160405280600081526020016000815260200160008152602001600081525090565b6040518060600160405280600060068111156115c3576115c2611b41565b5b815260200160008019168152602001600081525090565b6000604051905090565b600080fd5b600080fd5b600080fd5b6000601f19601f8301169050919050565b7f4e487b7100000000000000000000000000000000000000000000000000000000600052604160045260246000fd5b61163c826115f3565b810181811067ffffffffffffffff8211171561165b5761165a611604565b5b80604052505050565b600061166e6115da565b905061167a8282611633565b919050565b600073ffffffffffffffffffffffffffffffffffffffff82169050919050565b60006116aa8261167f565b9050919050565b6116ba8161169f565b81146116c557600080fd5b50565b6000813590506116d7816116b1565b92915050565b6000819050919050565b6116f0816116dd565b81146116fb57600080fd5b50565b60008135905061170d816116e7565b92915050565b600060c08284031215611729576117286115ee565b5b61173360c0611664565b90506000611743848285016116c8565b6000830152506020611757848285016116c8565b602083015250604061176b848285016116c8565b604083015250606061177f848285016116fe565b6060830152506080611793848285016116fe565b60808301525060a06117a7848285016116fe565b60a08301525092915050565b600080fd5b600080fd5b600067ffffffffffffffff8211156117d8576117d7611604565b5b6117e1826115f3565b9050602081019050919050565b82818337600083830152505050565b600061181061180b846117bd565b611664565b90508281526020810184848401111561182c5761182b6117b8565b5b6118378482856117ee565b509392505050565b600082601f830112611854576118536117b3565b5b81356118648482602086016117fd565b91505092915050565b6000806000806101c08587031215611888576118876115e4565b5b600061189687828801611713565b94505060c06118a787828801611713565b93505061018085013567ffffffffffffffff8111156118c9576118c86115e9565b5b6118d58782880161183f565b9250506101a085013567ffffffffffffffff8111156118f7576118f66115e9565b5b6119038782880161183f565b91505092959194509250565b611918816116dd565b82525050565b608082016000820151611934600085018261190f565b506020820151611947602085018261190f565b50604082015161195a604085018261190f565b50606082015161196d606085018261190f565b50505050565b6000608082019050611988600083018461191e565b92915050565b60008060e083850312156119a5576119a46115e4565b5b60006119b385828601611713565b92505060c083013567ffffffffffffffff8111156119d4576119d36115e9565b5b6119e08582860161183f565b9150509250929050565b60008115159050919050565b6119ff816119ea565b82525050565b6000602082019050611a1a60008301846119f6565b92915050565b6000819050919050565b611a3381611a20565b8114611a3e57600080fd5b50565b600081359050611a5081611a2a565b92915050565b600060208284031215611a6c57611a6b6115e4565b5b6000611a7a84828501611a41565b91505092915050565b611a8c816116dd565b82525050565b6000602082019050611aa76000830184611a83565b92915050565b60008060008060808587031215611ac757611ac66115e4565b5b6000611ad5878288016116fe565b9450506020611ae6878288016116fe565b9350506040611af7878288016116fe565b9250506060611b08878288016116fe565b91505092959194509250565b600060c08284031215611b2a57611b296115e4565b5b6000611b3884828501611713565b91505092915050565b7f4e487b7100000000000000000000000000000000000000000000000000000000600052602160045260246000fd5b60078110611b8157611b80611b41565b5b50565b6000819050611b9282611b70565b919050565b6000611ba282611b84565b9050919050565b611bb281611b97565b82525050565b611bc181611a20565b82525050565b606082016000820151611bdd6000850182611ba9565b506020820151611bf06020850182611bb8565b506040820151611c03604085018261190f565b50505050565b6000606082019050611c1e6000830184611bc7565b92915050565b600082825260208201905092915050565b7f6d69736d61746368656420746f6b656e73000000000000000000000000000000600082015250565b6000611c6b601183611c24565b9150611c7682611c35565b602082019050919050565b60006020820190508181036000830152611c9a81611c5e565b9050919050565b7f73656c662073776170206e6f7420616c6c6f7765640000000000000000000000600082015250565b6000611cd7601583611c24565b9150611ce282611ca1565b602082019050919050565b60006020820190508181036000830152611d0681611cca565b9050919050565b7f696e76616c69642074616b6572207369676e6174757265000000000000000000600082015250565b6000611d43601783611c24565b9150611d4e82611d0d565b602082019050919050565b60006020820190508181036000830152611d7281611d36565b9050919050565b7f696e76616c6964206d616b6572207369676e6174757265000000000000000000600082015250565b6000611daf601783611c24565b9150611dba82611d79565b602082019050919050565b60006020820190508181036000830152611dde81611da2565b9050919050565b7f4e487b7100000000000000000000000000000000000000000000000000000000600052601160045260246000fd5b6000611e1f826116dd565b9150611e2a836116dd565b9250817fffffffffffffffffffffffffffffffffffffffffffffffffffffffffffffffff0483118215151615611e6357611e62611de5565b5b828202905092915050565b7f6e6f742070726f66697461626c65207370726561640000000000000000000000600082015250565b6000611ea4601583611c24565b9150611eaf82611e6e565b602082019050919050565b60006020820190508181036000830152611ed381611e97565b9050919050565b7f6f6e6c79206665652061646472657373206d6179207570646174652066656573600082015250565b6000611f10602083611c24565b9150611f1b82611eda565b602082019050919050565b60006020820190508181036000830152611f3f81611f03565b9050919050565b7f6f6e6c792075736572206d61792063616e63656c206f72646572000000000000600082015250565b6000611f7c601a83611c24565b9150611f8782611f46565b602082019050919050565b60006020820190508181036000830152611fab81611f6f565b9050919050565b7f6f726465722069732066696c6c65640000000000000000000000000000000000600082015250565b6000611fe8600f83611c24565b9150611ff382611fb2565b602082019050919050565b6000602082019050818103600083015261201781611fdb565b9050919050565b7f6f72646572206578706972656400000000000000000000000000000000000000600082015250565b6000612054600d83611c24565b915061205f8261201e565b602082019050919050565b6000602082019050818103600083015261208381612047565b9050919050565b7f6f726465722063616e63656c6564000000000000000000000000000000000000600082015250565b60006120c0600e83611c24565b91506120cb8261208a565b602082019050919050565b600060208201905081810360008301526120ef816120b3565b9050919050565b6000612101826116dd565b915061210c836116dd565b92508282101561211f5761211e611de5565b5b828203905092915050565b7f4e487b7100000000000000000000000000000000000000000000000000000000600052601260045260246000fd5b6000612164826116dd565b915061216f836116dd565b92508261217f5761217e61212a565b5b828204905092915050565b6000612195826116dd565b91506121a0836116dd565b9250827fffffffffffffffffffffffffffffffffffffffffffffffffffffffffffffffff038211156121d5576121d4611de5565b5b828201905092915050565b6121e98161169f565b82525050565b600060208201905061220460008301846121e0565b92915050565b600081519050612219816116e7565b92915050565b600060208284031215612235576122346115e4565b5b60006122438482850161220a565b91505092915050565b7f74616b6572206f72646572206e6f7420656e6f7567682062616c616e63650000600082015250565b6000612282601e83611c24565b915061228d8261224c565b602082019050919050565b600060208201905081810360008301526122b181612275565b9050919050565b7f6d616b6572206f72646572206e6f7420656e6f7567682062616c616e63650000600082015250565b60006122ee601e83611c24565b91506122f9826122b8565b602082019050919050565b6000602082019050818103600083015261231d816122e1565b9050919050565b600060608201905061233960008301866121e0565b61234660208301856121e0565b6123536040830184611a83565b949350505050565b612364816119ea565b811461236f57600080fd5b50565b6000815190506123818161235b565b92915050565b60006020828403121561239d5761239c6115e4565b5b60006123ab84828501612372565b91505092915050565b7f74616b6572206f72646572206e6f7420656e6f7567682062616c616e6365206660008201527f6f72206665650000000000000000000000000000000000000000000000000000602082015250565b6000612410602683611c24565b915061241b826123b4565b604082019050919050565b6000602082019050818103600083015261243f81612403565b9050919050565b7f6d616b6572206f72646572206e6f7420656e6f7567682062616c616e6365206660008201527f6f72206665650000000000000000000000000000000000000000000000000000602082015250565b60006124a2602683611c24565b91506124ad82612446565b604082019050919050565b600060208201905081810360008301526124d181612495565b9050919050565b6000610100820190506124ee600083018b6121e0565b6124fb602083018a6121e0565b61250860408301896121e0565b61251560608301886121e0565b6125226080830187611a83565b61252f60a0830186611a83565b61253c60c0830185611a83565b61254960e0830184611a83565b9998505050505050505050565b61255f81611a20565b82525050565b600060e08201905061257a600083018a612556565b61258760208301896121e0565b61259460408301886121e0565b6125a160608301876121e0565b6125ae6080830186611a83565b6125bb60a0830185611a83565b6125c860c0830184611a83565b98975050505050505050565b600081519050919050565b600082825260208201905092915050565b60005b8381101561260e5780820151818401526020810190506125f3565b8381111561261d576000848401525b50505050565b600061262e826125d4565b61263881856125df565b93506126488185602086016125f0565b612651816115f3565b840191505092915050565b60006040820190506126716000830185612556565b81810360208301526126838184612623565b90509392505050565b600081905092915050565b60006126a2826125d4565b6126ac818561268c565b93506126bc8185602086016125f0565b80840191505092915050565b60006126d48284612697565b915081905092915050565b6000815190506126ee81611a2a565b92915050565b60006020828403121561270a576127096115e4565b5b6000612718848285016126df565b91505092915050565b7f666c6f6f7220726f756e64696e67206572726f72203e3d20302e312500000000600082015250565b6000612757601c83611c24565b915061276282612721565b602082019050919050565b600060208201905081810360008301526127868161274a565b9050919050565b600081905092915050565b7f1901000000000000000000000000000000000000000000000000000000000000600082015250565b60006127ce60028361278d565b91506127d982612798565b600282019050919050565b6000819050919050565b6127ff6127fa82611a20565b6127e4565b82525050565b6000612810826127c1565b915061281c82856127ee565b60208201915061282c82846127ee565b6020820191508190509392505050565b7f6572726f722064656e6f6d696e61746f72206973207a65726f00000000000000600082015250565b6000612872601983611c24565b915061287d8261283c565b602082019050919050565b600060208201905081810360008301526128a181612865565b9050919050565b600060a0820190506128bd6000830188612556565b6128ca6020830187612556565b6128d76040830186612556565b6128e46060830185611a83565b6128f160808301846121e0565b9695505050505050565b600060ff82169050919050565b612911816128fb565b82525050565b600060808201905061292c6000830187612556565b6129396020830186612908565b6129466040830185612556565b6129536060830184612556565b9594505050505056fea26469706673582212209bdd041ce83cc22ab8bbb91056850e148c5f85eff30a0261a0a9a2692c1b20dc64736f6c634300080a0033",
  "linkReferences": {},
  "deployedLinkReferences": {}
}