{
  "_format": "hh-sol-artifact-1",
  "contractName": "ZigZagExchange",
  "sourceName": "contracts/ZigZagExchange.sol",
  "abi": [
    {
      "inputs": [
        {
          "internalType": "string",
          "name": "name",
          "type": "string"
        },
        {
          "internalType": "string",
          "name": "version",
          "type": "string"
        },
        {
          "internalType": "address",
          "name": "fee_address",
          "type": "address"
        },
        {
          "internalType": "address",
          "name": "weth_address",
          "type": "address"
        }
      ],
      "stateMutability": "nonpayable",
      "type": "constructor"
    },
    {
      "anonymous": false,
      "inputs": [
        {
          "indexed": true,
          "internalType": "bytes32",
          "name": "orderHash",
          "type": "bytes32"
        }
      ],
      "name": "CancelOrder",
      "type": "event"
    },
    {
      "anonymous": false,
      "inputs": [
        {
          "indexed": true,
          "internalType": "bytes32",
          "name": "orderHash",
          "type": "bytes32"
        },
        {
          "indexed": false,
          "internalType": "uint256",
          "name": "filled",
          "type": "uint256"
        },
        {
          "indexed": false,
          "internalType": "uint256",
          "name": "remaining",
          "type": "uint256"
        }
      ],
      "name": "OrderStatus",
      "type": "event"
    },
    {
      "anonymous": false,
      "inputs": [
        {
          "indexed": false,
          "internalType": "address",
          "name": "maker",
          "type": "address"
        },
        {
          "indexed": true,
          "internalType": "address",
          "name": "taker",
          "type": "address"
        },
        {
          "indexed": true,
          "internalType": "address",
          "name": "makerSellToken",
          "type": "address"
        },
        {
          "indexed": true,
          "internalType": "address",
          "name": "takerSellToken",
          "type": "address"
        },
        {
          "indexed": false,
          "internalType": "uint256",
          "name": "makerSellAmount",
          "type": "uint256"
        },
        {
          "indexed": false,
          "internalType": "uint256",
          "name": "takerSellAmount",
          "type": "uint256"
        },
        {
          "indexed": false,
          "internalType": "uint256",
          "name": "makerVolumeFee",
          "type": "uint256"
        },
        {
          "indexed": false,
          "internalType": "uint256",
          "name": "takerVolumeFee",
          "type": "uint256"
        }
      ],
      "name": "Swap",
      "type": "event"
    },
    {
      "inputs": [
        {
          "components": [
            {
              "internalType": "address",
              "name": "user",
              "type": "address"
            },
            {
              "internalType": "address",
              "name": "sellToken",
              "type": "address"
            },
            {
              "internalType": "address",
              "name": "buyToken",
              "type": "address"
            },
            {
              "internalType": "uint256",
              "name": "sellAmount",
              "type": "uint256"
            },
            {
              "internalType": "uint256",
              "name": "buyAmount",
              "type": "uint256"
            },
            {
              "internalType": "uint256",
              "name": "expirationTimeSeconds",
              "type": "uint256"
            }
          ],
          "internalType": "struct LibOrder.Order",
          "name": "order",
          "type": "tuple"
        }
      ],
      "name": "cancelOrder",
      "outputs": [],
      "stateMutability": "nonpayable",
      "type": "function"
    },
    {
      "inputs": [
        {
          "internalType": "bytes32",
          "name": "",
          "type": "bytes32"
        }
      ],
      "name": "cancelled",
      "outputs": [
        {
          "internalType": "bool",
          "name": "",
          "type": "bool"
        }
      ],
      "stateMutability": "view",
      "type": "function"
    },
    {
      "inputs": [
        {
          "components": [
            {
              "internalType": "address",
              "name": "user",
              "type": "address"
            },
            {
              "internalType": "address",
              "name": "sellToken",
              "type": "address"
            },
            {
              "internalType": "address",
              "name": "buyToken",
              "type": "address"
            },
            {
              "internalType": "uint256",
              "name": "sellAmount",
              "type": "uint256"
            },
            {
              "internalType": "uint256",
              "name": "buyAmount",
              "type": "uint256"
            },
            {
              "internalType": "uint256",
              "name": "expirationTimeSeconds",
              "type": "uint256"
            }
          ],
          "internalType": "struct LibOrder.Order",
          "name": "makerOrder",
          "type": "tuple"
        },
        {
          "internalType": "bytes",
          "name": "makerSignature",
          "type": "bytes"
        },
        {
          "internalType": "uint256",
          "name": "takerSellAmount",
          "type": "uint256"
        },
        {
          "internalType": "bool",
          "name": "fillAvailable",
          "type": "bool"
        }
      ],
      "name": "fillOrderExactInput",
      "outputs": [
        {
          "internalType": "bool",
          "name": "",
          "type": "bool"
        }
      ],
      "stateMutability": "nonpayable",
      "type": "function"
    },
    {
      "inputs": [
        {
          "components": [
            {
              "internalType": "address",
              "name": "user",
              "type": "address"
            },
            {
              "internalType": "address",
              "name": "sellToken",
              "type": "address"
            },
            {
              "internalType": "address",
              "name": "buyToken",
              "type": "address"
            },
            {
              "internalType": "uint256",
              "name": "sellAmount",
              "type": "uint256"
            },
            {
              "internalType": "uint256",
              "name": "buyAmount",
              "type": "uint256"
            },
            {
              "internalType": "uint256",
              "name": "expirationTimeSeconds",
              "type": "uint256"
            }
          ],
          "internalType": "struct LibOrder.Order",
          "name": "makerOrder",
          "type": "tuple"
        },
        {
          "internalType": "bytes",
          "name": "makerSignature",
          "type": "bytes"
        },
        {
          "internalType": "uint256",
          "name": "takerSellAmount",
          "type": "uint256"
        },
        {
          "internalType": "bool",
          "name": "fillAvailable",
          "type": "bool"
        }
      ],
      "name": "fillOrderExactInputETH",
      "outputs": [
        {
          "internalType": "bool",
          "name": "",
          "type": "bool"
        }
      ],
      "stateMutability": "payable",
      "type": "function"
    },
    {
      "inputs": [
        {
          "components": [
            {
              "internalType": "address",
              "name": "user",
              "type": "address"
            },
            {
              "internalType": "address",
              "name": "sellToken",
              "type": "address"
            },
            {
              "internalType": "address",
              "name": "buyToken",
              "type": "address"
            },
            {
              "internalType": "uint256",
              "name": "sellAmount",
              "type": "uint256"
            },
            {
              "internalType": "uint256",
              "name": "buyAmount",
              "type": "uint256"
            },
            {
              "internalType": "uint256",
              "name": "expirationTimeSeconds",
              "type": "uint256"
            }
          ],
          "internalType": "struct LibOrder.Order",
          "name": "makerOrder",
          "type": "tuple"
        },
        {
          "internalType": "bytes",
          "name": "makerSignature",
          "type": "bytes"
        },
        {
          "internalType": "uint256",
          "name": "takerBuyAmount",
          "type": "uint256"
        },
        {
          "internalType": "bool",
          "name": "fillAvailable",
          "type": "bool"
        }
      ],
      "name": "fillOrderExactOutput",
      "outputs": [
        {
          "internalType": "bool",
          "name": "",
          "type": "bool"
        }
      ],
      "stateMutability": "nonpayable",
      "type": "function"
    },
    {
      "inputs": [
        {
          "components": [
            {
              "internalType": "address",
              "name": "user",
              "type": "address"
            },
            {
              "internalType": "address",
              "name": "sellToken",
              "type": "address"
            },
            {
              "internalType": "address",
              "name": "buyToken",
              "type": "address"
            },
            {
              "internalType": "uint256",
              "name": "sellAmount",
              "type": "uint256"
            },
            {
              "internalType": "uint256",
              "name": "buyAmount",
              "type": "uint256"
            },
            {
              "internalType": "uint256",
              "name": "expirationTimeSeconds",
              "type": "uint256"
            }
          ],
          "internalType": "struct LibOrder.Order",
          "name": "makerOrder",
          "type": "tuple"
        },
        {
          "internalType": "bytes",
          "name": "makerSignature",
          "type": "bytes"
        },
        {
          "internalType": "uint256",
          "name": "takerBuyAmount",
          "type": "uint256"
        },
        {
          "internalType": "bool",
          "name": "fillAvailable",
          "type": "bool"
        }
      ],
      "name": "fillOrderExactOutputETH",
      "outputs": [
        {
          "internalType": "bool",
          "name": "",
          "type": "bool"
        }
      ],
      "stateMutability": "payable",
      "type": "function"
    },
    {
      "inputs": [
        {
          "components": [
            {
              "internalType": "address",
              "name": "user",
              "type": "address"
            },
            {
              "internalType": "address",
              "name": "sellToken",
              "type": "address"
            },
            {
              "internalType": "address",
              "name": "buyToken",
              "type": "address"
            },
            {
              "internalType": "uint256",
              "name": "sellAmount",
              "type": "uint256"
            },
            {
              "internalType": "uint256",
              "name": "buyAmount",
              "type": "uint256"
            },
            {
              "internalType": "uint256",
              "name": "expirationTimeSeconds",
              "type": "uint256"
            }
          ],
          "internalType": "struct LibOrder.Order[]",
          "name": "makerOrder",
          "type": "tuple[]"
        },
        {
          "internalType": "bytes[]",
          "name": "makerSignature",
          "type": "bytes[]"
        },
        {
          "internalType": "uint256",
          "name": "takerAmount",
          "type": "uint256"
        },
        {
          "internalType": "bool",
          "name": "fillAvailable",
          "type": "bool"
        }
      ],
      "name": "fillOrderRoute",
      "outputs": [
        {
          "internalType": "bool",
          "name": "",
          "type": "bool"
        }
      ],
      "stateMutability": "payable",
      "type": "function"
    },
    {
      "inputs": [
        {
          "components": [
            {
              "internalType": "address",
              "name": "user",
              "type": "address"
            },
            {
              "internalType": "address",
              "name": "sellToken",
              "type": "address"
            },
            {
              "internalType": "address",
              "name": "buyToken",
              "type": "address"
            },
            {
              "internalType": "uint256",
              "name": "sellAmount",
              "type": "uint256"
            },
            {
              "internalType": "uint256",
              "name": "buyAmount",
              "type": "uint256"
            },
            {
              "internalType": "uint256",
              "name": "expirationTimeSeconds",
              "type": "uint256"
            }
          ],
          "internalType": "struct LibOrder.Order[]",
          "name": "makerOrder",
          "type": "tuple[]"
        },
        {
          "internalType": "bytes[]",
          "name": "makerSignature",
          "type": "bytes[]"
        },
        {
          "internalType": "uint256",
          "name": "takerAmount",
          "type": "uint256"
        },
        {
          "internalType": "bool",
          "name": "fillAvailable",
          "type": "bool"
        }
      ],
      "name": "fillOrderRouteETH",
      "outputs": [
        {
          "internalType": "bool",
          "name": "",
          "type": "bool"
        }
      ],
      "stateMutability": "payable",
      "type": "function"
    },
    {
      "inputs": [
        {
          "internalType": "bytes32",
          "name": "",
          "type": "bytes32"
        }
      ],
      "name": "filled",
      "outputs": [
        {
          "internalType": "uint256",
          "name": "",
          "type": "uint256"
        }
      ],
      "stateMutability": "view",
      "type": "function"
    },
    {
      "inputs": [
        {
          "components": [
            {
              "internalType": "address",
              "name": "user",
              "type": "address"
            },
            {
              "internalType": "address",
              "name": "sellToken",
              "type": "address"
            },
            {
              "internalType": "address",
              "name": "buyToken",
              "type": "address"
            },
            {
              "internalType": "uint256",
              "name": "sellAmount",
              "type": "uint256"
            },
            {
              "internalType": "uint256",
              "name": "buyAmount",
              "type": "uint256"
            },
            {
              "internalType": "uint256",
              "name": "expirationTimeSeconds",
              "type": "uint256"
            }
          ],
          "internalType": "struct LibOrder.Order",
          "name": "order",
          "type": "tuple"
        }
      ],
      "name": "getOpenOrder",
      "outputs": [
        {
          "components": [
            {
              "internalType": "bytes32",
              "name": "orderHash",
              "type": "bytes32"
            },
            {
              "internalType": "uint256",
              "name": "orderSellFilledAmount",
              "type": "uint256"
            }
          ],
          "internalType": "struct LibOrder.OrderInfo",
          "name": "orderInfo",
          "type": "tuple"
        }
      ],
      "stateMutability": "view",
      "type": "function"
    },
    {
      "inputs": [
        {
          "components": [
            {
              "internalType": "address",
              "name": "user",
              "type": "address"
            },
            {
              "internalType": "address",
              "name": "sellToken",
              "type": "address"
            },
            {
              "internalType": "address",
              "name": "buyToken",
              "type": "address"
            },
            {
              "internalType": "uint256",
              "name": "sellAmount",
              "type": "uint256"
            },
            {
              "internalType": "uint256",
              "name": "buyAmount",
              "type": "uint256"
            },
            {
              "internalType": "uint256",
              "name": "expirationTimeSeconds",
              "type": "uint256"
            }
          ],
          "internalType": "struct LibOrder.Order",
          "name": "order",
          "type": "tuple"
        },
        {
          "internalType": "bytes",
          "name": "signature",
          "type": "bytes"
        }
      ],
      "name": "isValidOrderSignature",
      "outputs": [
        {
          "internalType": "bool",
          "name": "",
          "type": "bool"
        }
      ],
      "stateMutability": "view",
      "type": "function"
    },
    {
      "stateMutability": "payable",
      "type": "receive"
    }
  ],
  "bytecode": "0x6101a0604052600060025561271060035560056004556127106005553480156200002857600080fd5b5060405162002ed938038062002ed98339810160408190526200004b91620001e4565b835160209485012083519385019390932060e08490526101008190524660a0818152604080517f8b73c3c69bb8fe3d512ecc4cf759cc79239f7b179b0ffacaa9a75d522b39400f818a01819052818301989098526060810194909452608080850193909352308483018190528151808603909301835260c0948501909152815191909701209052849052610120929092526001600160a01b039081166101405216610160526101805262000273565b634e487b7160e01b600052604160045260246000fd5b600082601f8301126200012257600080fd5b81516001600160401b03808211156200013f576200013f620000fa565b604051601f8301601f19908116603f011681019082821181831017156200016a576200016a620000fa565b816040528381526020925086838588010111156200018757600080fd5b600091505b83821015620001ab57858201830151818301840152908201906200018c565b83821115620001bd5760008385830101525b9695505050505050565b80516001600160a01b0381168114620001df57600080fd5b919050565b60008060008060808587031215620001fb57600080fd5b84516001600160401b03808211156200021357600080fd5b620002218883890162000110565b955060208701519150808211156200023857600080fd5b50620002478782880162000110565b9350506200025860408601620001c7565b91506200026860608601620001c7565b905092959194509250565b60805160a05160c05160e0516101005161012051610140516101605161018051612b466200039360003960008181610894015281816108c301528181610ce701528181610dc101528181611441015281816115520152818161171f015281816118e301528181611bea01528181611e170152611fb3015260008181610c4001528181610d1e01528181610f0201528181610f4c01528181611003015281816116450152818161174901528181611a0901528181611b8501528181611d8901528181611f8b015261205f0152600081816119da01528181611a9b01528181611b5d01528181611c520152611cf301526000612460015260006124af0152600061248a015260006123e30152600061240d015260006124370152612b466000f3fe6080604052600436106100c05760003560e01c80637334798f11610074578063cc43f94e1161004e578063cc43f94e1461020f578063efbdebce14610222578063feb31ca11461024257600080fd5b80637334798f146101ad578063acdf5718146101cd578063c50e7b6e146101ed57600080fd5b80632ac12622116100a55780632ac1262214610147578063427c59131461018757806359e656ef1461019a57600080fd5b80631e9c8a6c146100cc578063288cdc911461010c57600080fd5b366100c757005b600080fd5b3480156100d857600080fd5b506100ec6100e736600461261f565b610255565b604080518251815260209283015192810192909252015b60405180910390f35b34801561011857600080fd5b5061013961012736600461263b565b60006020819052908152604090205481565b604051908152602001610103565b34801561015357600080fd5b5061017761016236600461263b565b60016020526000908152604090205460ff1681565b6040519015158152602001610103565b6101776101953660046126af565b6103aa565b6101776101a83660046126af565b6103f0565b3480156101b957600080fd5b506101776101c83660046126af565b61043e565b3480156101d957600080fd5b506101776101e8366004612724565b610492565b3480156101f957600080fd5b5061020d61020836600461261f565b6104cc565b005b61017761021d3660046127bd565b6105f8565b34801561022e57600080fd5b5061017761023d3660046126af565b61098d565b6101776102503660046127bd565b6109e7565b604080518082019091526000808252602082015261028061027b3684900384018461288a565b610e4c565b808252600090815260208181526040909120549082018190526060830135116102f05760405162461bcd60e51b815260206004820152600f60248201527f6f726465722069732066696c6c6564000000000000000000000000000000000060448201526064015b60405180910390fd5b8160a001354211156103445760405162461bcd60e51b815260206004820152600d60248201527f6f7264657220657870697265640000000000000000000000000000000000000060448201526064016102e7565b805160009081526001602052604090205460ff16156103a55760405162461bcd60e51b815260206004820152600e60248201527f6f726465722063616e63656c656400000000000000000000000000000000000060448201526064016102e7565b919050565b60008060808701356103c060608901358661293b565b6103ca919061295a565b90506103db87878733338689610ef8565b6103e3611092565b5060019695505050505050565b6000600454600554610402919061297c565b60055461040f908561293b565b610419919061295a565b925061042a86868633338888610ef8565b610432611092565b50600195945050505050565b600080608087013561045460608901358661293b565b61045e919061295a565b90506103e387878733806104786040860160208701612993565b8d604001602081019061048b9190612993565b888b611150565b6000806104a761027b3687900387018761288a565b90506104c16104b96020870187612993565b82868661138d565b9150505b9392505050565b6104d96020820182612993565b6001600160a01b0316336001600160a01b0316146105395760405162461bcd60e51b815260206004820152601a60248201527f6f6e6c792075736572206d61792063616e63656c206f7264657200000000000060448201526064016102e7565b600061054d61027b3684900384018461288a565b6000818152602081905260409020549091506060830135116105b15760405162461bcd60e51b815260206004820152601460248201527f6f7264657220616c72656164792066696c6c656400000000000000000000000060448201526064016102e7565b6000818152600160208190526040808320805460ff19169092179091555182917f42c76c81a7cba1b9c861353909a184e20747ab960332628dabcbb5852fc5cbb591a25050565b600085841461066f5760405162461bcd60e51b815260206004820152603860248201527f4c656e677468206f66206d616b65724f726465727320616e64206d616b65725360448201527f69676e61747572657320646f6573206e6f74206d61746368000000000000000060648201526084016102e7565b856106c75760405162461bcd60e51b815260206004820152602260248201527f4c656e677468206f66206d616b65724f72646572732063616e206e6f74206265604482015261020360f41b60648201526084016102e7565b600186141561071f57610718878760008181106106e6576106e66129ae565b905060c00201868660008181106106ff576106ff6129ae565b905060200281019061071191906129c4565b868661043e565b9050610983565b600061072c60018861297c565b905060005b81811161097c578015806107b25750888882818110610752576107526129ae565b905060c00201604001602081019061076a9190612993565b6001600160a01b0316898961078060018561297c565b81811061078f5761078f6129ae565b905060c0020160200160208101906107a79190612993565b6001600160a01b0316145b6107fe5760405162461bcd60e51b815260206004820152601c60248201527f546f6b656e73206f6e20726f75746520646f206e6f74206d617463680000000060448201526064016102e7565b888882818110610810576108106129ae565b905060c002016080013589898381811061082c5761082c6129ae565b905060c002016060013586610841919061293b565b61084b919061295a565b9450610944898983818110610862576108626129ae565b905060c0020188888481811061087a5761087a6129ae565b905060200281019061088c91906129c4565b84156108b8577f00000000000000000000000000000000000000000000000000000000000000006108ba565b335b8686146108e7577f00000000000000000000000000000000000000000000000000000000000000006108e9565b335b8e8e888181106108fb576108fb6129ae565b905060c0020160200160208101906109139190612993565b8f8f89818110610925576109256129ae565b905060c00201604001602081019061093d9190612993565b8c8c611150565b600554600454610954908761293b565b61095e919061295a565b610968908661297c565b94508061097481612a0b565b915050610731565b5060019150505b9695505050505050565b600060045460055461099f919061297c565b6005546109ac908561293b565b6109b6919061295a565b925061043286868633806109d06040860160208701612993565b6109e060608e0160408f01612993565b8a8a611150565b6000858414610a5e5760405162461bcd60e51b815260206004820152603860248201527f4c656e677468206f66206d616b65724f726465727320616e64206d616b65725360448201527f69676e61747572657320646f6573206e6f74206d61746368000000000000000060648201526084016102e7565b85610ab65760405162461bcd60e51b815260206004820152602260248201527f4c656e677468206f66206d616b65724f72646572732063616e206e6f74206265604482015261020360f41b60648201526084016102e7565b6001861415610b075761071887876000818110610ad557610ad56129ae565b905060c0020186866000818110610aee57610aee6129ae565b9050602002810190610b0091906129c4565b86866103aa565b6000610b1460018861297c565b905060005b818111610e3557801580610b9a5750888882818110610b3a57610b3a6129ae565b905060c002016040016020810190610b529190612993565b6001600160a01b03168989610b6860018561297c565b818110610b7757610b776129ae565b905060c002016020016020810190610b8f9190612993565b6001600160a01b0316145b610be65760405162461bcd60e51b815260206004820152601c60248201527f546f6b656e73206f6e20726f75746520646f206e6f74206d617463680000000060448201526064016102e7565b888882818110610bf857610bf86129ae565b905060c0020160800135898983818110610c1457610c146129ae565b905060c002016060013586610c29919061293b565b610c33919061295a565b945080158015610c9e57507f00000000000000000000000000000000000000000000000000000000000000006001600160a01b031689896000818110610c7b57610c7b6129ae565b905060c002016040016020810190610c939190612993565b6001600160a01b0316145b15610d1257610d0d89896000818110610cb957610cb96129ae565b905060c0020188886000818110610cd257610cd26129ae565b9050602002810190610ce491906129c4565b337f00000000000000000000000000000000000000000000000000000000000000008a8a610ef8565b610dfd565b8181148015610d7b57507f00000000000000000000000000000000000000000000000000000000000000006001600160a01b0316898984818110610d5857610d586129ae565b905060c002016020016020810190610d709190612993565b6001600160a01b0316145b15610de857610d0d898984818110610d9557610d956129ae565b905060c00201888885818110610dad57610dad6129ae565b9050602002810190610dbf91906129c4565b7f0000000000000000000000000000000000000000000000000000000000000000338a8a610ef8565b610dfd898983818110610862576108626129ae565b600554600454610e0d908761293b565b610e17919061295a565b610e21908661297c565b945080610e2d81612a0b565b915050610b19565b50610e3e611092565b506001979650505050505050565b80516020808301516040808501516060860151608087015160a08801519351600097610edb977f68d868c8698fc31da3a36bb7a184a4af099797794701bae97bea3de7ebe6e3999791969195949392019687526001600160a01b0395861660208801529385166040870152919093166060850152608084019290925260a083019190915260c082015260e00190565b604051602081830303815290604052805190602001209050919050565b6001600160a01b037f000000000000000000000000000000000000000000000000000000000000000016610f326060890160408a01612993565b6001600160a01b03161480610f8757506001600160a01b037f000000000000000000000000000000000000000000000000000000000000000016610f7c6040890160208a01612993565b6001600160a01b0316145b610ff95760405162461bcd60e51b815260206004820152602760248201527f45697468657220627579206f722073656c6c20746f6b656e2073686f756c642060448201527f626520574554480000000000000000000000000000000000000000000000000060648201526084016102e7565b6001600160a01b037f0000000000000000000000000000000000000000000000000000000000000000166110336060890160408a01612993565b6001600160a01b0316141561106857611063878787878761105a6040860160208701612993565b60008989611150565b611089565b611089878787878760006110826060870160408801612993565b8989611150565b50505050505050565b471561114e5760408051600080825260208201909252339047906040516110b99190612a56565b60006040518083038185875af1925050503d80600081146110f6576040519150601f19603f3d011682016040523d82523d6000602084013e6110fb565b606091505b505090508061114c5760405162461bcd60e51b815260206004820152601360248201527f455448207472616e73666572206661696c65640000000000000000000000000060448201526064016102e7565b505b565b6001600160a01b0385166111a65760405162461bcd60e51b815260206004820152601c60248201527f43616e27742072656369766520746f207a65726f20616464726573730000000060448201526064016102e7565b60006111b18a610255565b90506111cc6111c360208c018c612993565b82518b8b61138d565b6112185760405162461bcd60e51b815260206004820152601760248201527f696e76616c6964206d616b6572207369676e617475726500000000000000000060448201526064016102e7565b60008082602001518c6060013561122f919061297c565b905083801561123d57508481105b15611246578094505b60608c013561125960808e01358761293b565b611263919061295a565b9150808511156112b55760405162461bcd60e51b815260206004820152601d60248201527f616d6f756e74206578636565647320617661696c61626c652073697a6500000060448201526064016102e7565b5060008483602001516112c89190612a72565b8351600090815260208181526040909120829055909150611330906112ef908e018e612993565b8a8a8a8a8a886003546002548b611306919061293b565b611310919061295a565b6005546004548f611321919061293b565b61132b919061295a565b6113dc565b82600001517ff56da1ef5eb4658fc8a117e0749fb8d158d65790babdb91264a19c3c2fad622c82838f60600135611367919061297c565b6040805192835260208301919091520160405180910390a2505050505050505050505050565b600080611399856121f7565b9050610983868286868080601f01602080910402602001604051908101604052809392919081815260200183838082843760009201919091525061226692505050565b6001600160a01b03851661143f578234101561143a5760405162461bcd60e51b815260206004820152601960248201527f6d73672076616c7565206e6f74206869676820656e6f7567680000000000000060448201526064016102e7565b611616565b7f00000000000000000000000000000000000000000000000000000000000000006001600160a01b0316886001600160a01b031614611616576040516370a0823160e01b81526001600160a01b0389811660048301528491908716906370a0823190602401602060405180830381865afa1580156114c1573d6000803e3d6000fd5b505050506040513d601f19601f820116820180604052508101906114e59190612a8a565b10156115335760405162461bcd60e51b815260206004820152601e60248201527f74616b6572206f72646572206e6f7420656e6f7567682062616c616e6365000060448201526064016102e7565b604051636eb1769f60e11b81526001600160a01b0389811660048301527f00000000000000000000000000000000000000000000000000000000000000008116602483015284919087169063dd62ed3e90604401602060405180830381865afa1580156115a4573d6000803e3d6000fd5b505050506040513d601f19601f820116820180604052508101906115c89190612a8a565b10156116165760405162461bcd60e51b815260206004820181905260248201527f74616b6572206f72646572206e6f7420656e6f75676820616c6c6f77616e636560448201526064016102e7565b6001600160a01b038616611809576040516370a0823160e01b81526001600160a01b038a8116600483015285917f0000000000000000000000000000000000000000000000000000000000000000909116906370a0823190602401602060405180830381865afa15801561168e573d6000803e3d6000fd5b505050506040513d601f19601f820116820180604052508101906116b29190612a8a565b10156117005760405162461bcd60e51b815260206004820152601e60248201527f6d616b6572206f72646572206e6f7420656e6f7567682062616c616e6365000060448201526064016102e7565b604051636eb1769f60e11b81526001600160a01b038a811660048301527f00000000000000000000000000000000000000000000000000000000000000008116602483015285917f00000000000000000000000000000000000000000000000000000000000000009091169063dd62ed3e90604401602060405180830381865afa158015611792573d6000803e3d6000fd5b505050506040513d601f19601f820116820180604052508101906117b69190612a8a565b10156118045760405162461bcd60e51b815260206004820181905260248201527f6d616b6572206f72646572206e6f7420656e6f75676820616c6c6f77616e636560448201526064016102e7565b6119a7565b6040516370a0823160e01b81526001600160a01b038a811660048301528591908816906370a0823190602401602060405180830381865afa158015611852573d6000803e3d6000fd5b505050506040513d601f19601f820116820180604052508101906118769190612a8a565b10156118c45760405162461bcd60e51b815260206004820152601e60248201527f6d616b6572206f72646572206e6f7420656e6f7567682062616c616e6365000060448201526064016102e7565b604051636eb1769f60e11b81526001600160a01b038a811660048301527f00000000000000000000000000000000000000000000000000000000000000008116602483015285919088169063dd62ed3e90604401602060405180830381865afa158015611935573d6000803e3d6000fd5b505050506040513d601f19601f820116820180604052508101906119599190612a8a565b10156119a75760405162461bcd60e51b815260206004820181905260248201527f6d616b6572206f72646572206e6f7420656e6f75676820616c6c6f77616e636560448201526064016102e7565b8015611b19576001600160a01b038616611a7c576040516323b872dd60e01b81526001600160a01b038a811660048301527f000000000000000000000000000000000000000000000000000000000000000081166024830152604482018390527f000000000000000000000000000000000000000000000000000000000000000016906323b872dd906064016020604051808303816000875af1158015611a52573d6000803e3d6000fd5b505050506040513d601f19601f82011682018060405250810190611a769190612aa3565b50611b19565b6040516323b872dd60e01b81526001600160a01b038a811660048301527f000000000000000000000000000000000000000000000000000000000000000081166024830152604482018390528716906323b872dd906064016020604051808303816000875af1158015611af3573d6000803e3d6000fd5b505050506040513d601f19601f82011682018060405250810190611b179190612aa3565b505b8115611d71576001600160a01b038516611be8576040517fb760faf90000000000000000000000000000000000000000000000000000000081526001600160a01b037f0000000000000000000000000000000000000000000000000000000000000000811660048301527f0000000000000000000000000000000000000000000000000000000000000000169063b760faf99084906024016000604051808303818588803b158015611bca57600080fd5b505af1158015611bde573d6000803e3d6000fd5b5050505050611d71565b7f00000000000000000000000000000000000000000000000000000000000000006001600160a01b0316886001600160a01b03161415611cd4576040517fa9059cbb0000000000000000000000000000000000000000000000000000000081526001600160a01b037f0000000000000000000000000000000000000000000000000000000000000000811660048301526024820184905286169063a9059cbb906044016020604051808303816000875af1158015611caa573d6000803e3d6000fd5b505050506040513d601f19601f82011682018060405250810190611cce9190612aa3565b50611d71565b6040516323b872dd60e01b81526001600160a01b0389811660048301527f000000000000000000000000000000000000000000000000000000000000000081166024830152604482018490528616906323b872dd906064016020604051808303816000875af1158015611d4b573d6000803e3d6000fd5b505050506040513d601f19601f82011682018060405250810190611d6f9190612aa3565b505b6001600160a01b038516611e15576001600160a01b037f00000000000000000000000000000000000000000000000000000000000000001663b760faf9611db8848661297c565b6040516001600160e01b031960e084901b1681526001600160a01b038d1660048201526024016000604051808303818588803b158015611df757600080fd5b505af1158015611e0b573d6000803e3d6000fd5b5050505050611f73565b7f00000000000000000000000000000000000000000000000000000000000000006001600160a01b0316886001600160a01b03161415611ede576001600160a01b03851663a9059cbb8a611e69858761297c565b6040516001600160e01b031960e085901b1681526001600160a01b03909216600483015260248201526044016020604051808303816000875af1158015611eb4573d6000803e3d6000fd5b505050506040513d601f19601f82011682018060405250810190611ed89190612aa3565b50611f73565b6001600160a01b0385166323b872dd898b611ef9868861297c565b6040516001600160e01b031960e086901b1681526001600160a01b03938416600482015292909116602483015260448201526064016020604051808303816000875af1158015611f4d573d6000803e3d6000fd5b505050506040513d601f19601f82011682018060405250810190611f719190612aa3565b505b6001600160a01b0386166120f2576001600160a01b037f0000000000000000000000000000000000000000000000000000000000000000166323b872dd8a7f0000000000000000000000000000000000000000000000000000000000000000611fdc858961297c565b6040516001600160e01b031960e086901b1681526001600160a01b03938416600482015292909116602483015260448201526064016020604051808303816000875af1158015612030573d6000803e3d6000fd5b505050506040513d601f19601f820116820180604052508101906120549190612aa3565b506001600160a01b037f00000000000000000000000000000000000000000000000000000000000000001663205c28788861208f848861297c565b6040516001600160e01b031960e085901b1681526001600160a01b0390921660048301526024820152604401600060405180830381600087803b1580156120d557600080fd5b505af11580156120e9573d6000803e3d6000fd5b50505050612187565b6001600160a01b0386166323b872dd8a8961210d858961297c565b6040516001600160e01b031960e086901b1681526001600160a01b03938416600482015292909116602483015260448201526064016020604051808303816000875af1158015612161573d6000803e3d6000fd5b505050506040513d601f19601f820116820180604052508101906121859190612aa3565b505b604080516001600160a01b038b811682526020820187905291810185905260608101849052608081018390528187169188811691908b16907f6950339c7661cca450281e53722525cc136590e622b011d5be7e4c4993685a6c9060a00160405180910390a4505050505050505050565b60006122606122046123d6565b836040517f19010000000000000000000000000000000000000000000000000000000000006020820152602281018390526042810182905260009060620160405160208183030381529060405280519060200120905092915050565b92915050565b600080600061227585856124fd565b9092509050600081600481111561228e5761228e612ac0565b1480156122ac5750856001600160a01b0316826001600160a01b0316145b156122bc576001925050506104c5565b600080876001600160a01b0316631626ba7e60e01b88886040516024016122e4929190612ad6565b60408051601f198184030181529181526020820180517bffffffffffffffffffffffffffffffffffffffffffffffffffffffff166001600160e01b03199094169390931790925290516123379190612a56565b600060405180830381855afa9150503d8060008114612372576040519150601f19603f3d011682016040523d82523d6000602084013e612377565b606091505b509150915081801561238a575080516020145b80156123ca575080517f1626ba7e00000000000000000000000000000000000000000000000000000000906123c89083016020908101908401612a8a565b145b98975050505050505050565b6000306001600160a01b037f00000000000000000000000000000000000000000000000000000000000000001614801561242f57507f000000000000000000000000000000000000000000000000000000000000000046145b1561245957507f000000000000000000000000000000000000000000000000000000000000000090565b50604080517f00000000000000000000000000000000000000000000000000000000000000006020808301919091527f0000000000000000000000000000000000000000000000000000000000000000828401527f000000000000000000000000000000000000000000000000000000000000000060608301524660808301523060a0808401919091528351808403909101815260c0909201909252805191012090565b6000808251604114156125345760208301516040840151606085015160001a61252887828585612543565b9450945050505061253c565b506000905060025b9250929050565b6000807f7fffffffffffffffffffffffffffffff5d576e7357a4501ddfe92f46681b20a083111561257a57506000905060036125fe565b6040805160008082526020820180845289905260ff881692820192909252606081018690526080810185905260019060a0016020604051602081039080840390855afa1580156125ce573d6000803e3d6000fd5b5050604051601f1901519150506001600160a01b0381166125f7576000600192509250506125fe565b9150600090505b94509492505050565b600060c0828403121561261957600080fd5b50919050565b600060c0828403121561263157600080fd5b6104c58383612607565b60006020828403121561264d57600080fd5b5035919050565b60008083601f84011261266657600080fd5b50813567ffffffffffffffff81111561267e57600080fd5b60208301915083602082850101111561253c57600080fd5b801515811461114c57600080fd5b80356103a581612696565b600080600080600061012086880312156126c857600080fd5b6126d28787612607565b945060c086013567ffffffffffffffff8111156126ee57600080fd5b6126fa88828901612654565b90955093505060e0860135915061010086013561271681612696565b809150509295509295909350565b600080600060e0848603121561273957600080fd5b6127438585612607565b925060c084013567ffffffffffffffff81111561275f57600080fd5b61276b86828701612654565b9497909650939450505050565b60008083601f84011261278a57600080fd5b50813567ffffffffffffffff8111156127a257600080fd5b6020830191508360208260051b850101111561253c57600080fd5b600080600080600080608087890312156127d657600080fd5b863567ffffffffffffffff808211156127ee57600080fd5b818901915089601f83011261280257600080fd5b81358181111561281157600080fd5b8a602060c08302850101111561282657600080fd5b60209283019850965090880135908082111561284157600080fd5b5061284e89828a01612778565b90955093505060408701359150612867606088016126a4565b90509295509295509295565b80356001600160a01b03811681146103a557600080fd5b600060c0828403121561289c57600080fd5b60405160c0810181811067ffffffffffffffff821117156128cd57634e487b7160e01b600052604160045260246000fd5b6040526128d983612873565b81526128e760208401612873565b60208201526128f860408401612873565b6040820152606083013560608201526080830135608082015260a083013560a08201528091505092915050565b634e487b7160e01b600052601160045260246000fd5b600081600019048311821515161561295557612955612925565b500290565b60008261297757634e487b7160e01b600052601260045260246000fd5b500490565b60008282101561298e5761298e612925565b500390565b6000602082840312156129a557600080fd5b6104c582612873565b634e487b7160e01b600052603260045260246000fd5b6000808335601e198436030181126129db57600080fd5b83018035915067ffffffffffffffff8211156129f657600080fd5b60200191503681900382131561253c57600080fd5b6000600019821415612a1f57612a1f612925565b5060010190565b60005b83811015612a41578181015183820152602001612a29565b83811115612a50576000848401525b50505050565b60008251612a68818460208701612a26565b9190910192915050565b60008219821115612a8557612a85612925565b500190565b600060208284031215612a9c57600080fd5b5051919050565b600060208284031215612ab557600080fd5b81516104c581612696565b634e487b7160e01b600052602160045260246000fd5b8281526040602082015260008251806040840152612afb816060850160208701612a26565b601f01601f191691909101606001939250505056fea26469706673582212205abb605eba2099105621f088513d49a4e24d39c2c85b05d52b19867bf8a9c01a64736f6c634300080a0033",
  "linkReferences": {},
  "deployedLinkReferences": {}
}